:020000041000EA
:1000000000B5324B212058609868022188439860DF
:10001000D860186158612E4B002199600221596106
:100020000121F02299502B49196001219960352056
:1000300000F044F80222904214D00621196600F024
:1000400034F8196E01211966002018661A6600F04E
:100050002CF8196E196E196E052000F02FF8012189
:100060000842F9D1002199601B49196000215960AB
:100070001A491B48016001219960EB211966A021F2
:10008000196600F012F800219960164914480160C1
:100090000121996001BC002800D000471248134993
:1000A000086003C880F30888084703B5996A0420EC
:1000B0000142FBD001200142F8D103BD02B5186610
:1000C0001866FFF7F2FF186E186E02BD00000240BE
:1000D000000000180000070000035F00212200005C
:1000E000F4000018222000A00001001008ED00E03C
:1000F00000000000000000000000000074B24E7A12
:1001000000200420F7010010C3010010C5010010F9
:10011000C1010010C1010010C1010010C101001097
:10012000C1010010C1010010C1010010C701001081
:10013000C1010010C1010010C9010010CB01001065
:10014000CD010010CD010010CD010010CD01001037
:10015000CD010010CD010010CD010010CD01001027
:10016000CD010010CD010010CD010010CD01001017
:10017000CD010010CD010010CD010010CD01001007
:10018000CD010010CD010010CD010010CD010010F7
:10019000CD010010CD010010CD010010CD010010E7
:1001A000CD010010CD010010CD010010CD010010D7
:1001B000CD010010CD010010CD010010CD010010C7
:1001C00000BE00BE00BE00BE00BE00BEEFF3058054
:1001D000103800BEF2EB8871403A0110603A01100D
:1001E0003402001090A31AE700201F49086006C8D7
:1001F00081F3088810471D48006800282FD10DA4FE
:100200000ECC002902D000F012F8F9E71849194A7B
:10021000002000E001C19142FCD1174988471749ED
:1002200088471749884700BEFDE701C901C29A42C5
:10023000FBD37047603A0110C0000020E81700208F
:100240008851011000000420000004208851011092
:10025000001004200010042000000000704709482E
:1002600009F068FD0047000008ED00E0000000D044
:10027000E8170020382C00201D82001019120010F1
:10028000458300105756000006005250ABB3605330
:100290005C2F011006005250861C03026C2F0110C7
:1002A000060052505422A29D802F0110050052508A
:1002B000DE65F46888510110F8B5C0460648074964
:1002C000091A8B10C90FC91810B5491003D0044B77
:1002D000002B00D0984710BDE8170020E817002039
:1002E00000000000054B10B5002B03D00449054861
:1002F00000E000BFFFF7E2FF10BDC04600000000B5
:100300003C2A002018170110F0B5DE464E4657462D
:100310004546E121E0B5BC4C4902A544BB4C200058
:1003200007F020FC0221002006F0CAF8022101207B
:1003300006F0C6F8C022236B12021340B44A08210B
:10034000136020000023012207F0D4FC01212000CB
:1003500007F00EFD05F0F6FE061E00D14FE107F096
:10036000FBF8002900D144E1FA220023920009F0B1
:1003700079FD2C9007F0F0F8002900D133E1FA2242
:100380000023920009F06EFD2D9000232E93002390
:100390009A46A04B2B962A934CAB9B469E4B5646B7
:1003A0009E4C30AD2F9307F0D7F8002900D195E08F
:1003B000FA220023920009F055FD814601239A4656
:1003C0002768BFF35F8F7022210028000BF02AF905
:1003D000BFF35F8F23689F42F2D1534652463B40A2
:1003E0003A42EDD198466923EB5C29936823EB5C94
:1003F0002893686E0AF06CFE26902791E86D0AF04B
:1004000067FE24902591A86D0AF062FE2290239148
:100410006B6D2093286D0AF05BFE1E901F91EB6CB4
:100420001C93A86C0AF054FE1A901B912A6C6B6CFA
:1004300018921993AA6BEB6B16921793286B0AF01C
:1004400047FE14901591E86A0AF042FE129013914B
:10045000A86A0AF03DFE10901191686A0AF038FE11
:100460000E900F91286A0AF033FE0C900D91E86906
:100470000AF02EFE0A900B91A8690AF029FE089056
:100480000991674928690AF04EFD0AF021FE06909D
:100490000791E8680AF01CFE0490059168680AF06C
:1004A00017FE02900391C8212B7A584600932A9A8E
:1004B0004B46490009F0D8FB2B9B0700002B13D1BA
:1004C0004B46FA229B1B9200934225D2142006F041
:1004D000DBFE07F041F8002900D069E7FA21890026
:1004E00009F082FC814669E705F0E4FF0028E7D0C7
:1004F000584605F0A5FF4B462C9A9B1AFA2292000B
:100500009342DDD305F018FF4B46FA222C934B465D
:1005100092009B1B9342D9D307F01EF8002956D0B6
:10052000FA220023920009F09DFC8246374E0AE031
:10053000FA220023920009F095FC5346C01AFA23D0
:100540005B00984212D8B84510D2B3699B0632D5E9
:1005500007F002F80029EBD1FA21890009F044FCE8
:100560005346C01AFA235B009842ECD943464E46E4
:10057000002BABD006F0F0FF00292ED0FA2200238A
:10058000920009F06FFC06002D9BF01A9E4206D0E7
:100590000AF02FFD011C23480AF0C5FC2E902E986E
:1005A0000AF096FD02000B002F9841460BF0FCF973
:1005B0002D964E468AE742465B46995C2022B369F7
:1005C0001A42FCD101239C463160E044C0E7FA2185
:1005D000890009F009FC8246A8E7FA21890009F0A0
:1005E00003FC0600D0E7FA21890009F0FDFB2D90FD
:1005F000CBE6FA21890009F0F7FB2C90BAE60A480D
:100600000BF0EAF8ABE6C0463CFDFFFF00400340BC
:100610003050034048170110B4170110281B002068
:100620000000C84200007A4418170110F0B5C64611
:100630002F4800B50BF0D0F82E4BD0241800984668
:100640000DF0FCFC032005F079FF022005F076FF99
:10065000082324066362043B002201210220A362D6
:1006600005F046FF09250827082605200021A66178
:1006700006F09CFD05200021676106F097FD636888
:100680005B0702D4013D002DEFD1D02404252406C0
:1006900065620520A561002106F088FD082305207C
:1006A0006361002106F082FD65610520002106F0EE
:1006B0007DFD404610490DF031FD0321022005F07B
:1006C000FFFE0321032005F0FBFE00220121022092
:1006D00005F00EFF00220121032005F009FF0A208A
:1006E00006F0D2FD05480BF077F880BCB846F0BDA7
:1006F000CC170110F0100020A0860100EC170110AB
:10070000F0B5C64600B584B01E000AAB90461F780F
:1007100004000D0006F020FF00230B9A80185941B9
:10072000002902DA01200749404202900391330078
:1007300042462900200000970DF018FD04B080BC4F
:10074000B846F0BDFFFFFF7F10B528220021002032
:1007500004F054FA96205021C00005F04FF910BD66
:10076000F0B5CE46474680B585B09946904606001E
:100770000F0006F0F1FE4A4604000D000023A41805
:100780005D410A48002D02DA0124094D644200232C
:100790003A00009331004346029403950DF00AFDA0
:1007A00005B0C0BCB946B046F0BDC046F010002050
:1007B000FFFFFF7FF0B5D6464F4646466E4BC0B5AD
:1007C00098460027180086B06C490DF0A7FC03215D
:1007D000022005F075FE0321032005F071FE0022C2
:1007E0000121022005F084FE00220121032005F0F2
:1007F0007FFE0A2006F048FD03230222604961487B
:100800000BF0D2F8604BC246082499460026B84641
:100810006B465E7506F0A0FEFA220023D200801817
:100820005941E5B2002902DA012058494042152217
:100830000290039101232900504600966A440DF06E
:10084000B9FC002817DB16272B006F44683B3E706D
:10085000012B53D92B00763B012B27D94C4A210081
:100860004C480BF0A1F83978002917D148460AF016
:10087000B3FF012398460134782CC9D14746D046AE
:10088000002F0FD048460AF0A7FF40460DF0D6FBD8
:1008900006B0E0BCBA46B146A846F0BD3E480BF0F3
:1008A00083F8E3E73D480AF097FFEBE7D0236A4679
:1008B000D375FA23DB000193172201232900504648
:1008C00000936A44FFF71CFF80460128C6D13220FE
:1008D000002106F06BFCFA23424639002800DB00B9
:1008E000FFF73EFF0128B9D13B782D4A583BDBB2D8
:1008F000092BB4D82B4A9B009A58B0E775236A4657
:10090000D375FA23DB0001931722012329005046F7
:1009100000936A44FFF7F4FE804601289ED13220FE
:10092000002106F043FCFA23424639002800DB0090
:10093000FFF716FF012891D13B78702B0AD00FD812
:10094000122B0BD0184A682B00D188E7112B03D14A
:10095000164A84E7164A82E7164A80E7164A7EE777
:10096000732B07D0154AAF2B00D178E7712BF3D149
:10097000134A74E7134A72E7F0100020A0860100C2
:10098000641801106C18011074190110FFFFFF7F2B
:100990000818011094180110A4180110B4180110BF
:1009A0005C18011058320110101801103018011095
:1009B00018180110541801103C18011048180110A3
:1009C0002018011028180110F0B54546DE4657469C
:1009D0004E46E0B504000D0091B0002938D06B23DD
:1009E0006A46938706F0B8FD00231D4A1D4E801805
:1009F0005941002902DA01201B494042002302909C
:100A000003910FAA21000093300002330DF0AEFBDA
:100A10006420002106F0CAFB3B2308AAD37506F028
:100A20009BFD00230E4A80185941002902DA01205B
:100A30000D4940420290039108A98C4601231722D8
:100A400021003000009362440DF090FB01280DD08E
:100A5000002011B0F0BCBB46B246A946A046F0BD8E
:100A6000204E0000F0100020FFFFFF7F3220002109
:100A700006F09CFB06F070FD0023DE4A8018594109
:100A8000002902DA0120DC49404200230290039150
:100A900000932100300002330EAA0DF08BFB0228D8
:100AA000D6D13220002106F081FB6B461F8F3D23FB
:100AB00008AAD37506F050FD0023CE4A12184B4108
:100AC000002B02DA0122CC4B524208A98C4602923A
:100AD00003930123172221003000009362440DF09C
:100AE00045FB0128B4D13220002106F05FFB06F05F
:100AF00033FD0023BF4A12184B41002B02DA0122BA
:100B0000BD4B524202920393002321000093300018
:100B100002330EAA0DF04EFB022899D1322000219B
:100B200006F044FB6B461B8F08AA98463F23D375FB
:100B300006F012FD0023AF4A12184B41002B02DAD7
:100B40000122AD4B524208A98C4602920393012325
:100B5000172221003000009362440DF007FB0128AA
:100B600000D075E73220002106F020FB06F0F4FCEF
:100B70000023A04A12184B41002B02DA01229E4B9F
:100B8000524202920393002321000093300002336B
:100B90000EAA0DF00FFB022800D059E732200021E9
:100BA00006F004FB08AB1B8B08AA09934123D375FD
:100BB000904B08A98C4601939946172201232100E6
:100BC000300000936244FFF79BFD8246012800D06D
:100BD0003EE73220002106F0E9FA4B4602222000CF
:100BE0000EA9FFF7BDFD8346022800D030E7322072
:100BF000002106F0DBFA08AB1B8B08AA06934323FF
:100C0000D3754B4608A98C46019317225346210001
:100C1000300000936244FFF773FD8246012800D044
:100C200016E73220002106F0C1FA5A464B46200052
:100C30000EA9FFF795FD8346022800D008E7322071
:100C4000002106F0B3FA08AB1B8B08AA07934523D3
:100C5000D3754B4608A98C460193172253462100B1
:100C6000300000936244FFF74BFD8246012800D01C
:100C7000EEE63220002106F099FA5A464B46200053
:100C80000EA9FFF76DFD8346022800D0E0E6322072
:100C9000002106F08BFA08AB1B8B08AA08934723A8
:100CA000D3754B4608A98C46019317225346300052
:100CB000210000936244FFF723FD0600012800D0C5
:100CC000C6E63220002106F071FA4B465A46200053
:100CD0000EA9FFF745FD022800D0B9E66A46414655
:100CE00040467BBA1385099B49BA5CBADBBA984681
:100CF000069B94845CBADBBA0693079B518559BA6C
:100D0000DBBA0793089BC0BA9485D1855CBA0021F1
:100D1000DBBA05903220089306F048FA08AA128B35
:100D2000FFBA53BAD2BA91466A46128D6B812A80B5
:100D30006A46518D928C6980AA806A46928D3800ED
:100D4000AA816A46D18D2C81E9800AF057F9E22107
:100D500089050AF0FCF8071C286105980AF04EF98D
:100D6000E22189050AF0F3F8041C686140460AF0A4
:100D700045F9E22189050AF0EAF88046A86107985A
:100D80000AF03CF91D490AF0CEF8E86108980AF02B
:100D900035F91A490AF0C7F8286248460AF02EF9D0
:100DA00016490AF0C0F8686206980AF027F9144953
:100DB0000AF0B9F813490AF0B3F8391CA862381CD4
:100DC0000AF0C5F8211C071C201C0AF0C0F8011C01
:100DD000381C0AF0A5F84146041C40460AF0B7F852
:100DE000011C201C0AF09CF80AF07CF9E862300033
:100DF0002FE6C046204E0000FFFFFF7F00000343A8
:100E00005CEFA6430000A841F0B5DE4657464E46CB
:100E10004546E0B54E4B91B01B780393002B00D1B3
:100E20008CE000274B4B002602933B005025B04638
:100E3000B146B2469B46019604AC371C12E0210035
:100E40006820FFF7C1FD00281AD121006920FFF7B3
:100E5000BBFD002814D1013D0520ADB206F014FA07
:100E6000002D36D03022002120000AF0D5FB029B55
:100E70001B78002BE3D1200001F06CFE0028EAD0A3
:100E80002169301C0AF04CF86169061C381C0AF014
:100E900047F8A169071C48460AF042F8E169814613
:100EA00040460AF03DF8216A804601980AF038F879
:100EB000616A019050460AF033F85B46013D013308
:100EC0009BB28246ADB205209B4606F0DDF9002DAF
:100ED000C8D15B46B3465646272B2FD918000AF0D7
:100EE0008DF8041C011C58460AF01DF81A4D211CEF
:100EF0002860381C0AF017F8184D211C2860484655
:100F00000AF011F8FE2189050AF007F8144D211C9A
:100F1000286040460AF007F8124D211C286001980D
:100F20000AF001F8104D211C2860301C09F0FBFF6D
:100F300001220E4D0E4B28601A7001E0002303932E
:100F4000039811B0F0BCBB46B246A946A046F0BD1E
:100F50002E2C00202F2C0020C8290020CC29002076
:100F6000D0290020D4290020D8290020DC29002005
:100F7000222C0020F0B5CE46474680B5794B87B08D
:100F80001800794998460DF0C9F80321042005F0AE
:100F900097FA0321052005F093FA0022012104208D
:100FA00005F0A6FA00220121052005F0A1FA0A2089
:100FB00006F06AF9052304226C496D480AF0F4FC36
:100FC0006C4B08240027994600266B465E7506F098
:100FD000C3FAFA220023D20080185941E5B2002951
:100FE00002DA012064494042152202900391012354
:100FF0002900404600966A440DF0DCF8002816DB14
:1010000016272B006F44683B3E70012B5DD92B00E7
:10101000763B012B23D9594A210059480AF0C4FCD8
:101020003978002913D148460AF0D6FB012701344C
:10103000782CCAD1002F0ED048460AF0CDFB40468E
:101040000CF0FCFF07B0C0BCB946B046F0BD4D483F
:101050000AF0AAFCE7E74C480AF0BEFBECE7D02315
:101060006A46D375FA23DB00172201930123290076
:10107000404600936A44FFF743FB0128CBD132205E
:10108000002106F093F806F067FAFA220023D20056
:1010900080185941002902DA0120374940420023D3
:1010A0000290039100933A002900404601330DF06D
:1010B00081F80128AFD13B78344A583BDBB2092B89
:1010C000AAD8334A9B009A58A6E775236A46D37577
:1010D000FA23DB00172201930123290040460093E5
:1010E0006A44FFF70DFB012895D13220002106F05C
:1010F0005DF806F031FAFA220023D2008018594137
:10110000002902DA01201C49404200230290039189
:1011100000933A002900404601330DF04BF80128B6
:1011200000D078E73B78702B0AD00FD8122B0BD069
:10113000184A682B00D16FE7112B03D1164A6BE7D1
:10114000164A69E7164A67E7164A65E7732B07D020
:10115000154AAF2B00D15FE7712BF3D1134A5BE740
:10116000134A59E7F8100020A0860100CC1801109E
:101170006C18011074190110FFFFFF7F081801108F
:1011800094180110A4180110B41801105C18011073
:1011900058320110101801103018011018180110E1
:1011A000541801103C1801104818011020180110A3
:1011B0002818011010B513480AF00EFBFFF7FAFAD1
:1011C000FFF7D8FE104911480CF0A8FF03210220B8
:1011D00005F076F90321032005F072F900220121C0
:1011E000022005F085F900220121032005F080F995
:1011F0000322022106480AF0D7FB06480AF0ECFA5F
:1012000010BDC046D4180110A0860100F0100020C7
:10121000F418011024190110F0B5DE464546574672
:101220004E46E0B57C4C0025A5440AF0C9FBFA20E7
:10123000C00006F029F879480AF0CEFA784C200070
:101240000AF0CAFA012277490023774800950AF08C
:10125000ABFB20000AF0C0FAD02403F0BFFC04F07E
:1012600019F904F0B1FB072005F068F98023240682
:1012700063620620A36105F061F940230C206362DC
:10128000A36105F05BF980235B010122A3620021C9
:101290000C2005F02DF904F0FDF8FA2064218000FF
:1012A00004F0ACFB61480AF097FAFFF783FAFFF706
:1012B00061FE5F480AF090FA5E4B5F4918007B932D
:1012C0000CF02CFF0321022005F0FAF80321032083
:1012D00005F0F6F800220121022005F009F90022AC
:1012E0000121032005F004F9534B03220221534846
:1012F0000AF05AFBFFF79AF904F0CCF8FA206421BF
:10130000800004F07BFB4E480AF066FAFFF71CFAF7
:1013100001F0F2F94B4B20931870002801D101F035
:10132000C1F8494B1D70339301F0C8FD474B0100D4
:1013300018000AF039FB464D7B9C20000CF07EFE25
:10134000C820002105F032FF3B4920000CF0E6FEEA
:101350000321022005F0B4F80321032005F0B0F8C2
:1013600000220121022005F0C3F800220121032000
:1013700005F0BEF837480AF017FB1E220F210020A7
:1013800003F03CFCAF205021C00004F037FB01F01B
:10139000BFFF314B22931870002801D101F0A4F84F
:1013A0002E4C20000AF018FA2D480AF0FDFA02F03F
:1013B00057FA002800D1E2E320000AF00DFA29488C
:1013C00002F02CFD28480AF0EFFA02F0CFFD0028C9
:1013D00000D1D4E320000AF0FFF904F07DFC23489B
:1013E0000AF0E2FA02F0F2FF20000AF0F5F9FA2121
:1013F0001F4809010AF0D8FA06F0AEF8002901D119
:1014000001F078F8FA220023920008F02BFD040086
:10141000FA2636013EE0C046F4FDFFFF70190110C8
:1014200078190110A4190110B8190110CC19011074
:10143000E4190110F0100020A0860100FC19011031
:101440002C1A01102E2C00202F2C0020481A0110DD
:10145000E0290020B41A01102C2C0020001C0110DF
:10146000E81A011070170000301B0110481B011012
:10147000681B0110FA220023920008F0F3FC001B05
:10148000B04212D2142000220A2103F0B7FB8C20B4
:1014900005F0FAFE06F060F80029EBD1FA21890088
:1014A00008F0A2FC001BB042ECD3209B1B78002B61
:1014B00001D001F026F8229B1B78002B01D001F00F
:1014C00035F8D02380221B069A61403A9A6103F0D6
:1014D000A9FC04F0B3FABC480AF07EF9209B1B7803
:1014E000002B03D0229B1B78002B04D1B7480AF0B5
:1014F00073F9FFF75FFEB6480AF06EF9B54BA846E0
:101500009946180004F0B2FAB3480AF065F9B34BF3
:101510004D461800219304F071FC484604F088FB06
:1015200003F080FCAE4C7022002120000AF074F819
:10153000E12301225B020021AA480AF035FAAA48F9
:101540000CF020FCA9480AF047F9A9480AF044F930
:10155000A8480AF041F9A84AA84B2D92A84A2E9211
:10156000A84A3592A84A4D92A84A7C92A84A2A9243
:10157000A84A4C92A84A4E92A84A8092A84A3F9202
:10158000A84A4692A84A4792A84A4892A84A49922D
:10159000A84A4A92A84A4B92A84A8192A84A9346DE
:1015A000A84A7192A84A2592A84A9246A84AD146CA
:1015B0003492A84A9A463892A74A2B92A74A2C926C
:1015C000A74A3792A74A3C92A74A7292A74A269204
:1015D000A74A3D92A74A3E92A74A4292A74A4392FF
:1015E000A74A4492A74A4592A74A3A92A74A249208
:1015F000A74A2792A74A3B92A74A3692A74A5592F2
:10160000A74A5692A74A5D92A74A5E92A74A5F925E
:10161000A74A7D92A74A7392A74A3992A74A749221
:10162000A74A6592A74A4F92A74A4192A74A669253
:10163000A74A7592A74A5792A74A6892A74A7692F4
:10164000A74A6A92A74A7E92A74A7F92A74A7992AE
:10165000A74A7A92A74A7092A74A5092A74A5192F3
:10166000A74A5292A74A7892A74A7792A74A5392DA
:10167000A74A5492A74A5892A74A5992A74A5A92FF
:10168000A74A5B92A74A5C92A74A6092A74A6192D6
:10169000A74A6292A74A6392A74A6492A74A6792AE
:1016A000A74A6992A74A6B92A74A6C92A74A6D9281
:1016B000A74A6E92A74A6F92A74A2392A74A2F92EF
:1016C000A74A4092534651461A68531C0B60A54BDB
:1016D00053430322D341A44A934208D8280004F07C
:1016E00077FA04F077FA01002D980AF05DF905F019
:1016F00033FF002901D100F06EFCFA220023920092
:1017000008F0B0FB0700209B1B78002B08D1FA22C1
:101710002E9BD2001B68FB1A934201D300F088FD78
:101720002A9A1368FB1A092B00D8FBE1209B17604B
:101730001B78002B40D0339B1B78002B01D100F08D
:10174000FFFC41466820FFF73FF9002801D000F078
:10175000FEFC41466930FFF737F9002801D000F060
:10176000F6FC4C9A41461368682001331360359AA1
:10177000138801331380FFF727F9002801D000F008
:1017800096FD41466920FFF71FF9002801D000F0BF
:101790008EFD209B1870339B1870359B1B88022B85
:1017A00001D900F059FEFA224E9B52001B68FB1A29
:1017B000934201D300F042FE229B1B78002B01D004
:1017C00000F021FDD2E0C046641C0110881C01100D
:1017D000D01C01104C250020F81C011070250020A1
:1017E000281B0020201D0110090300106C1D011092
:1017F000941D0110AC1D0110F01D0110302A0020B5
:10180000202A0020122C0020181E0110381E011062
:10181000242A0020342A00201C2A0020501E0110F7
:10182000222C0020C8290020CC290020D02900200B
:10183000D4290020D8290020DC2900208C1E01108A
:1018400030250020B41E01100C2C00209C25002007
:1018500000100020322C0020882B0020982B002024
:10186000312C0020E01E0110381F0110142A002026
:10187000541F01106C1F0110801F0110941F0110D4
:10188000A81F0110D41F0110E81F0110102A00200A
:10189000041000201C20011060310110B82001103C
:1018A000C0200110CC200110D8200110E42001102C
:1018B000382101104C210110582101107419011018
:1018C00064210110441901104819011084210110EC
:1018D0004C19011054190110B02101105C190110AC
:1018E000E02101102822011078220110BC220110F1
:1018F00004230110202301105C2301109023011008
:10190000081000206819011060190110C02301108F
:10191000E8230110F82301100C24011038240110D1
:101920004424011068240110782401108C24011033
:101930009C240110AC240110C8240110F0240110D3
:101940000C250110202501103C250110482501100F
:101950006C250110AC250110252C0020403201100F
:10196000182A0020D578E9263789410002F040FD89
:10197000259B1860209B1A78229B1B78002B00D196
:10198000D8E35946002A00D0D8E30022219804F079
:101990004BFA219804F0BCFB061C219804F0BAFB1A
:1019A000209B021C1B78002B00D1C0E34346DB6A5E
:1019B000311C280004F07AF8229B209A1B781678B4
:1019C0002893236801332360BFF35F8F6B6928007E
:1019D000636004F0FDF8AB692072A3652B69E365D1
:1019E000EB6823662023EA5C4833E254289B002BF3
:1019F0000BD05B461B68E3605B465B6823615B461C
:101A00009B6863615B46DB68A361002E14D043468C
:101A10001B69E36143465B69236243469B696362DA
:101A20004346DB69A36243461B6AE36243465B6A43
:101A3000236343469B6A63634B46186809F048FB7F
:101A40004B46A063E163586809F042FB4B469B6834
:101A500020646164A3644B461B7D6922E3644B46AA
:101A6000DB6823654B465B7D6365259B1B6863666E
:101A7000D0231B065B68DB04DB0FA354BFF35F8F2F
:101A8000236828000133236004F0A2F8349A06008A
:101A900013783293984245D0389910700B782B9A6E
:101AA000D0542C989A0087500F2201331340379A54
:101AB0000B7013780F2B01D801331370300004F032
:101AC00089F82890686909F003FB4346309031910A
:101AD000D86A09F0FDFA43460A900B91986909F01B
:101AE000F7FA434608900991586909F0F1FA43461C
:101AF00006900791186909F0EBFA04900591E869DE
:101B000009F0E6FA02900391A86909F0E1FA309A27
:101B1000319B0090019128993C9809F045FF012ED6
:101B200000D1A8E3269B1B68FB1AC72B00D9F8E25B
:101B3000280004F05BF8002800D0D4E205F00CFD8A
:101B4000002900D14EE2FA220023920008F08AF91F
:101B50000600249B279A1B681268F31A934200D34D
:101B60004DE2002009F030FF431C00D1E2E03F3895
:101B7000372800D9DEE0369B80001B589F46DF489F
:101B800009F02AFEDE4809F027FE8026D02505242C
:101B90002D0632206E61013C05F076FBE4B2322066
:101BA000AE6105F071FB002CF3D1FA20400005F086
:101BB0006BFBEBE7659809F00FFE209B41991B78C2
:101BC000002B00D04F99229B419A1B78002B00D00C
:101BD0004F9A669809F0E8FE339B57991B78002BC3
:101BE00000D075994C9B68981A6809F0DDFE3F9B00
:101BF000419A1B782892002B01D0769B2893469B14
:101C0000186809F065FA4B9B060018680F0009F088
:101C10005FFA089009914A9B186809F059FA0690F2
:101C20000791499B186809F053FA04900591489B65
:101C3000186809F04DFA02900391479B186809F063
:101C400047FA3B0000900191320028996A9809F008
:101C5000ABFE209B1B78002B00D0BFE3229B1B78A0
:101C6000002B00D095E324234A46D35C002B00D1FF
:101C700087E3106809F02CFA4B465B7D0600089359
:101C80004B46D8680F0009F023FA4B46069007919F
:101C90001B7D04934B46986809F01AFA4B46029054
:101CA0000391586809F014FA3200009001913B004A
:101CB000799809F079FE280003F08AFF03F08AFF83
:101CC0002890686909F004FA0600E8690F0009F035
:101CD000FFF902900391A86909F0FAF932003B007C
:101CE000009001912899709809F05EFEE86809F06B
:101CF000EFF92223EB5C0600029328690F0009F03C
:101D0000E7F932003B0000900191509809F04CFE39
:101D1000219B419E9B7E002B00D04F9E219F3869C6
:101D200009F0D6F90B00398B02000091519831006F
:101D300009F03AFE280003F04BFF239B06001B78B6
:101D4000834276D0052800D9ACE22F9A8300D3587D
:101D50009F4603F079F90523239A1370642000212C
:101D600005F024FAAEE403F081FA0423239A1370F9
:101D700005F0F2FB002962D0FA220023920008F05D
:101D800071F8FA22409BD2001B68C31A9342E5D334
:101D9000409BC82118605B4803F030FEDEE703F08B
:101DA00079FB0323239A1370D8E703F085FC022301
:101DB000239A1370D2E703F035F80123239A1370A6
:101DC000CCE7599809F008FD5A9809F005FD5B9891
:101DD00009F002FD5C9809F0FFFC609809F0FCFC3A
:101DE000619809F0F9FC629809F0F6FC639809F033
:101DF000F3FC649809F0F0FC679809F0EDFC699831
:101E000009F0EAFC6B9809F0E7FC6C9809F0E4FC37
:101E10006D9809F0E1FC6E9809F0DEFC6F9809F00E
:101E2000DBFC280003F0D4FE239B06001B788342D2
:101E300088D1042B92D105F08FFB00299CD1FA2187
:101E4000890007F0D1FF9CE7280003F0F1FED026BF
:101E500003F05AFF559803F0B3FF0327360680239B
:101E60006420736105F010FA8023013F6420B361A0
:101E7000FFB205F009FA002FF1D15BE7549803F0A7
:101E80009FFF209B1B78002B06D0339B1B78002BD9
:101E900000D103E3FEF7B8FF229B1B78002B00D094
:101EA00098E2219804F038F9589803F089FF41E747
:101EB000FA20C821C00003F0A1FD3BE75E9803F0C3
:101EC0007FFF03F073FF280003F0D0FD219804F09A
:101ED00023F92FE7FFF76EF92CE7012252990B78CF
:101EE00053400B7000D049E2F4327899FF32279BBF
:101EF00053981A6009F058FD1CE7C046201C0110D9
:101F0000001B0110DC050000280003F0AFFD2800D5
:101F100003F08EFE03F008FF569803F051FF09E727
:101F20005D9803F04DFF03F025FF03E7280003F061
:101F30004FFE03F04FFE2890686909F0C9F80600CB
:101F400028690F0009F0C4F808900991E86809F0C1
:101F5000BFF8202306900791EB5C0493E86909F031
:101F6000B7F802900391A86909F0B2F83B0000901D
:101F70000191320028995F9809F016FD379B1B7874
:101F8000002B00D101E21A1C082B00D90822D7B27D
:101F9000739809F009FD002630943C002895389D7F
:101FA0002B78013B9B1B00D510332C999A008F583E
:101FB0002B9A0136D05C03F00DFE390002003998EF
:101FC00009F0F2FCF3B29C42EAD87498289D309C48
:101FD00009F002FCAEE6FA21890007F005FF0700D0
:101FE000FFF791FBFA21890007F0FEFE0600249B13
:101FF000279A1B681268F31A934200D2B1E5249B1A
:1020000028001E6003F0E4FD03F0E4FD07002198C2
:1020100004F07EF809F05CF828902991219804F0EA
:1020200079F820233090EB5C1E93259B186809F00B
:102030004FF843461C901D91586A09F049F84346F1
:102040001A901B91186A09F043F8434618901991A9
:10205000D86909F03DF8434616901791986909F040
:1020600037F8434614901591586909F031F8434602
:1020700012901391186909F02BF85B46109011919A
:10208000D86809F025F85B460E900F91986809F022
:102090001FF85B460C900D91EE49586808F043FF1D
:1020A00009F016F85B460A900B91186809F010F8D1
:1020B00008900991E86809F00BF8069007912869E3
:1020C00009F006F804900591309809F001F80290A3
:1020D0000391289A299B3100009201933B983A0082
:1020E00009F062FC3DE53D9809F076FB3E9803F06F
:1020F00067FE03F023FE002800D192E0280003F0E1
:10210000C1FD429809F068FB439803F059FE28008E
:1021100003F05EFD03F05EFD01003A9809F044FC17
:102120000CE5269B48461F6001F004FF00E5FE23F6
:102130009B053DE4002A00D12BE40021424625E422
:10214000404600F007FD002801D1FFF70AFB0023FD
:10215000359A13803F9B1B78002B01D1FFF72CFB96
:10216000469B19684346186908F0D7FE424610613D
:10217000479A289011684246506908F0CEFE4146C1
:1021800030904861404648998069096808F0C5FE6A
:102190004146061C886140464999C069096808F0B3
:1021A000BCFE4146C86140464A99006A096808F089
:1021B000B4FE4146086240464B99406A096808F0FF
:1021C000ACFE414648622898011C08F0C0FE3099D8
:1021D0002890081C08F0BBFE011C289808F0A0FEFF
:1021E000311C2890301C08F0B2FE011C289808F021
:1021F00097FE08F077FF4346D862229B1B78002B9E
:1022000001D1FFF7B3FB584601F0F6F9002801D0E1
:10221000FFF7ACFB229B1870719809F0DDFAFFF70D
:10222000A5FB449809F0D8FA459803F0C9FD6EE77C
:102230002E9B414668201F60FEF7C6FB002824D174
:1022400041466930FEF7C0FB061E1ED100F054FA6D
:10225000002801D1FFF764FA0123209A7C981370BB
:10226000339B1E70359B1E8009F0B6FA322000F0B9
:102270007BFDFFF755FA329B012B00D152E403F0AE
:1022800043FD729809F0A8FA4CE40123209A4D9876
:102290001370339A13700023359A138009F09CFA57
:1022A000FFF73EFA03F0F6F8239B1E7056E5012374
:1022B000339A13700023359A13803F9B1B78002BB1
:1022C0004CD0469B19684346186908F026FE4346E1
:1022D0001861479B061C19684346586908F01DFEA3
:1022E00042465061489A289011684246906908F029
:1022F00014FE41463090886140464999C06909689A
:1023000008F00BFE4146C86140464A99006A0968D8
:1023100008F003FE4146086240464B99406A09684E
:1023200008F0FBFD41464862311C301C08F00FFEEE
:10233000061C2898011C08F00AFE011C301C08F03D
:10234000EFFD3099061C081C08F001FE011C301C32
:1023500008F0E6FD08F0C6FE4346D862FA224E9B1E
:1023600052001B68FB1A934201D2FFF725FA4E9BDD
:1023700081981F6009F030FAFFF71EFA3222779930
:10238000B5E57A9809F028FA95E47D9809F024FAE1
:10239000D0E45B46186808F09BFE5B460600D868F0
:1023A0000F0008F095FE5B4604900591986808F0D0
:1023B0008FFE5B46029003912649586808F0B3FDF2
:1023C00008F086FE3200009001913B007F9809F0F2
:1023D000EBFA48E4142001F0D1F962E543461869AC
:1023E00008F076FE43460600986A0F0008F070FE7B
:1023F00043460A900B91586A08F06AFE43460890DB
:102400000991186A08F064FE434606900791D8695E
:1024100008F05EFE434604900591986908F058FE66
:10242000434602900391586908F052FE3200009032
:1024300001913B007E9809F0B7FA0FE44E9B80981B
:102440001F604C9B1A68359B198809F0ADFAFFF79D
:10245000B3F9C0460000C842FEF7E8F87B9E3000A2
:102460000BF0ECFDC820002104F0A0FE300046492E
:102470000BF054FE0321022004F022F80321032074
:1024800004F01EF800220121022004F031F800229D
:102490000121032004F02CF8FFF785F9642000F0F7
:1024A00063FCF7E4394D68202900FEF78DFA002817
:1024B0000FD129006930FEF787FA002809D1344886
:1024C00009F08AF9334809F087F9334B3393FEF763
:1024D00033FF0123209A314813702F4A339213702F
:1024E00009F07AF9FEF728FF2D4809F075F92D4C0F
:1024F000FEF75AFFFA21890007F076FC0400FEF788
:1025000087FF294809F068F9FEF71EF9339B1B780D
:10251000002B2FD0254809F05FF9FEF775FC002845
:1025200023D0234809F058F9FEF7C5FF214809F0E8
:1025300053F91E220F21002002F060FBAF20502132
:10254000C00003F05BFA142001F018F9002801D153
:10255000FEF7B7FF01F00CF908F0BAFD02000B001E
:10256000154809F021FAFEF7ACFF144809F034F9D8
:10257000FEF7A1FF642000F0F7FB0028CAD0104846
:1025800009F02AF9C6E7C046A0860100E02900202C
:102590005C1A0110701A01102F2C00208C1A0110E7
:1025A000CC1A0110001C0110881B0110C41B011063
:1025B000E41B0110281C0110401C0110041C011018
:1025C000A01B0110F0B557464546DE464E46172380
:1025D000E0B587B06B449846187005239A46424B85
:1025E00057469B4600259246404E414C0491337815
:1025F000994604F0B1FF00196941002902DA01206F
:102600003C494042012302900391424649465846C4
:1026100000930BF0ABFD012829D06420002104F0C9
:10262000C5FD3378994604F097FF001969410029E8
:1026300002DA01202F4940420023029003910093C7
:1026400042464946584601330BF090FD01282FD0F1
:10265000C8200021013F04F0A9FD002FC7D10020B0
:1026600007B0F0BCBB46B246A946A046F0BD32203A
:10267000002104F09BFD3378994604F06DFF0019AA
:102680006941002902DA01201A49404200230290E0
:1026900003910093494653465846049A0BF08AFD2D
:1026A0008245BAD16420002104F080FD0120D7E7E3
:1026B0006420002104F07AFD3378994604F04CFF41
:1026C00000196941002902DA01200A494042002329
:1026D000029003910093494653465846049A0BF0E2
:1026E00069FD8245B4D1DDE7F0100020091000201B
:1026F000A8610000FFFFFF7FF0B5DE4657464E465B
:102700004546E0B58DB004AA9446172363449B4622
:1027100000235A4613706246D34B6420138304F09F
:10272000B3FDD24809F058F80AAB069368239946DE
:10273000CF4B00279A46CF4BCF4E07935346CA46FE
:1027400099460A230593752304AA1377052004F0FC
:102750009BFD00230525984604F0FEFE8019794173
:10276000002902DA0120C549404201230290039169
:102770000093514648460BAA0BF0F8FC012834D0D0
:10278000C820002104F012FD04F0E6FE8019794112
:10279000002902DA0120B949404200230290039146
:1027A00000935146484601330BAA0BF0DFFC0400AE
:1027B000012800D1A9E0C8200021013D04F0F6FC69
:1027C000002DC9D1434622005146AD4809F0ECF82E
:1027D000322004F059FD059B013B0593002B00D1ED
:1027E000F8E0069B1B789A46ADE73220002104F002
:1027F000DDFC04F0B1FE80197941002902DA0120E4
:102800009E49404200230290039100935A4651464C
:10281000484601330BF0CEFC80460128B0D15B4620
:102820001A78702A00D165E100D98AE0122A00D115
:10283000A3E0682A00D114E1112A00D09FE0914B57
:102840005146079809F0B0F85B461A78732A00D908
:1028500088E0672A00D8A9E011008B4B6839C9B21B
:10286000CB40DB07B4D54B46D1469A46702A00D1FF
:1028700048E100D8A8E0732A00D140E1712A00D0D5
:1028800046E1712381494C46814805260470804603
:102890008048002502704A467F4809F085F80A20E2
:1028A00004F0F2FC6B236A46938580231B0699464D
:1028B0005746714C43461B789A4604F04DFE00196A
:1028C0006941494502D301206C49404200230290EE
:1028D000039100935146380002330BAA0BF046FCDB
:1028E00002284ED0C8200021013E04F05FFC002EDB
:1028F000E0D16A4808F070FF002420000DB0F0BC61
:10290000BB46B246A946A046F0BD6420002104F0B3
:102910004DFC04F021FE80197941002902DA0120E2
:102920005649404200230290039100935A46514673
:10293000484601330BF03EFC8046012800D03AE7C0
:102940006DE7732A17D0AF2A00D1D1E0712A16D1D2
:102950004E4B5146079809F027F85B461A78732AC0
:1029600000D876E7AF2A00D032E74B464C49D14633
:102970009A46AF2387E74B4B62E74B4B60E74B4BE5
:102980005EE70021642004F011FC642004F07CFC6C
:1029900002223B200BA9FFF715FE041E5DD06B46FB
:1029A000998D4348C9BA08F0FFFFA6E71300113B11
:1029B000012B00D90CE74B46D1469A46122A00D08B
:1029C000B3E0122338495EE7682A00D194E013008F
:1029D000364958E704A91A228C46069B6244013303
:1029E0000693934200D090E05B463248197808F095
:1029F000DBFF314C200008F0EFFE304808F0ECFE21
:102A00005B462F48197808F0CFFF2E4808F0E4FE07
:102A1000200008F0E1FE5B461B78602B7BD0200095
:102A200008F0DAFE284808F0D7FE284808F0D4FE5F
:102A3000274808F0D1FE274808F0CEFE264808F0C7
:102A4000CBFE03220221254808F0AEFF244808F0FF
:102A5000C3FE244808F0C0FE4EE7234808F0BCFE41
:102A60004AE7224BECE6C0466869000004260110E4
:102A7000F010002058260110A8610000FFFFFF7F22
:102A80002C26011030180110010B00002018011035
:102A900009100020202C0020D42801100429011046
:102AA00048180110281801103C180110FC250110CD
:102AB000282901108026011074190110AC2601107C
:102AC000CC260110E4260110AC270110B827011014
:102AD000F827011030280110582801107028011023
:102AE00094280110B4280110502901101018011069
:102AF0000F4BA5E60F4BA3E668230F49C3E67323EC
:102B00000E49C0E670230B49BDE61B789A4618E6CD
:102B100072230B49B7E60B4808F05EFE0A4808F03E
:102B20005BFE0A4808F058FE79E711230849AAE637
:102B30004818011018180110101801102818011059
:102B4000FC25011024270110482701107C270110C3
:102B500030180110F0B5DE4657464E464546E0B502
:102B6000040087B0002800D1F4E002AD0E22290055
:102B70003B20FFF727FD002800D185E0764B288811
:102B80001A8840BA801A00B220806E885A8876BAB5
:102B9000B61A36B26680AF889A887FBABF1AEA88BA
:102BA0003FB251BAD2BAA780A18192462A89D98868
:102BB00052BA521A12B2E28090466A89198952BA00
:102BC000521A12B29146AD8922815B896DBAED1A13
:102BD0002DB2658108F012FAE221890508F0B7F9F3
:102BE00083462061300008F009FAE221890508F0E7
:102BF000AEF9061C6061380008F000FAE221890590
:102C000008F0A5F9071CA061404608F0F7F9534900
:102C100008F089F9E061484608F0F0F94F4908F0FA
:102C200082F92062280008F0E9F94C4908F07BF9A4
:102C30006062504608F0E2F9494908F074F94949E0
:102C400008F06EF95946A062584608F080F9311C28
:102C5000051C301C08F07BF9011C281C08F060F9E9
:102C6000391C051C381C08F072F9011C281C08F0DE
:102C700057F908F037FAE062012007B0F0BCBB4614
:102C8000B246A946A046F0BD01AD022229003B2074
:102C9000FFF798FC00285DD0022229003D202F88F4
:102CA000FFF790FC002855D0022229003F202E88F3
:102CB000FFF788FC00284DD02B88022229004120F4
:102CC0009B46FFF77FFC002844D02B880222290076
:102CD00043209A46FFF776FC00283BD02B8802223F
:102CE000290045209846FFF76DFC002832D02B883C
:102CF0000222290047209946FFF764FC002829D0CA
:102D000053465ABADBBA9A46134B78BA198876BA40
:102D1000401A00B2208059882D88761A594636B25A
:102D200066804FBA9988A28142467F1A3FB2A78037
:102D3000D98852BA521A12B2E28090464A4619898C
:102D400052BA521A12B222815B896DBAED1A9146BB
:102D50002DB23EE7002090E7E81700200000034373
:102D60005CEFA6430000A841F0B5DE465746454655
:102D70004E46E0B54F4F8BB0069004000C22002168
:102D8000380008F049FC0025002C00D18DE000231C
:102D900009AC9A46994698469B4601930293079739
:102DA00049E023880222DBBA21003D200393FFF78C
:102DB00009FC002846D023880222DBBA21003F20EC
:102DC0000493FFF7FFFB00283CD023880222DBBAE4
:102DD000210043200593FFF7F5FB002832D0268819
:102DE000022221004520F6BAFFF7ECFB002829D08B
:102DF0002788022221004720FFBAFFF7E3FB0028C3
:102E000020D00399029A8C4662440292049A059952
:102E10009446E3448C46019A23886244DBBA0A2034
:102E20009A440192013504F02FFA069BADB2B044EA
:102E3000B944AB420ED0022221003B20FFF7C2FB77
:102E40000028AED100200BB0F0BCBB46B246A9466C
:102E5000A046F0BD190002981E0006F09DFF31004B
:102E600085B2584606F098FF0004310005430198EA
:102E700006F092FF104B3100C418404606F08CFF5C
:102E8000A4B2000431000443484606F085FFB04672
:102E900006B24146504606F07FFF079F00B2788198
:102EA0003D6001207C603E81CDE7C02400200026EB
:102EB0002402F4E7E817002000C0FFFF104B1B7846
:102EC000702B16D007D8122B11D0682B0DD0112BD8
:102ED00013D10C487047732B0DD0AF2B03D0712B3F
:102EE0000BD10948F6E70948F4E70948F2E7094831
:102EF000F0E70948EEE70948ECE70948EAE7C04689
:102F0000202C002030180110201801104818011042
:102F1000101801103C180110181801102818011081
:102F2000FC2501105F4BF0B51968DE460A00CB178F
:102F3000012157464E46454683465B484942121892
:102F40004B41E0B5100089B0190014001D0007F0D6
:102F5000C7FF564E804601960822B05E2B00220025
:102F60008A46C1170294039507F0BAFF030D0F03B9
:102F70001F43019B06030A21585E42465346C11770
:102F800007F0AEFF0B06040A1C430D128021A419A2
:102F90007D410020019E0902002300196941F28849
:102FA00007F09EFF4B10CF1799463B4300D176E0C8
:102FB0001023F05E42465346C11707F091FF05917A
:102FC00004900E23F05E029A039BC11707F088FF5E
:102FD000C40B4B04234342040498059912184B4137
:102FE00080245946029203936403641A6508E1172A
:102FF000E0070C24325F0024C9072943D500029A58
:10300000039BA4185D410023001BA941284A07F037
:1030100067FF4A463B0006F00DFF07910690069EAB
:10302000079FFB04740B1C43019B7D131622985EC3
:1030300022002B00C11707F053FF22002B0007F0DE
:103040004FFFCB01440E32001C433B00019E4D1646
:103050001421705EA4185D41C11707F041FF4F03B2
:10306000C20CCB143A4312196B411906140A1D12F3
:103070001222B35E0C43DE171A0F310111431801FF
:103080000019694108F016F8EE21890507F05FFF85
:1030900009B0F0BCBB46B246A946A046F0BD002030
:1030A000F6E7C046E02B0020000CFEFF5C24002069
:1030B000350C0000F0B54E46DE4657464546D02357
:1030C000E0B589B002AAD375CD3B9A46434B814601
:1030D00000269B460025424C059104F03DFA00195C
:1030E0006941002902DA01203E49404202900391E1
:1030F00002A98C4601231722494658460093624490
:103100000BF034F8012831D004F026FA0019694197
:10311000002902DA0120334940420290039102A9BA
:103120008C460023172200934946584601336244D7
:103130000BF01CF88046012832D06420002104F0F6
:1031400035F801235B429C46E2445346002BC4D130
:10315000330042464946244808F026FC002009B0C6
:10316000F0BCBB46B246A946A046F0BD04F0F4F957
:1031700000231B4A12184B41002B02DA0122194B83
:103180005242029203930023494600935846059AFF
:1031900001330BF00FF806000128B5D10120DEE75E
:1031A0003220002104F002F8002704F0D5F90C4E7B
:1031B00036184F41002F02DA01260A4F76420023CB
:1031C00002960397009349465846059A01330AF040
:1031D000F1FF06000128B0D10120C0E7F010002067
:1031E000204E0000FFFFFF7F84290110F0B55746F5
:1031F0004E464546DE461723E0B587B06B449846F9
:10320000187001233E4D8B46914603249A462F00A9
:103210003C4E357804F0A0F900233B4A8018594110
:10322000002902DA012039494042534602900391B5
:10323000009342460123290038000AF097FF012835
:1032400026D0357804F088F900232F4A8018594198
:10325000002902DA01202D49404200230290039107
:10326000009342462900380001330AF07FFF01280D
:1032700028D064200021013C03F098FF002CC8D125
:10328000002007B0F0BCBB46B246A946A046F0BD40
:10329000357804F061F900231B4A80185941002950
:1032A00002DA012019494042002302900391009361
:1032B0005A464B46290038000AF07CFF8145C0D1B0
:1032C0000120DEE73220002103F070FF357804F0A2
:1032D00043F900230C4A80185941002902DA0120E1
:1032E0000A49404200230290039100935A464B46FC
:1032F000290038000AF05EFF8145BAD10120C0E7FD
:10330000F01000200A100020204E0000FFFFFF7F79
:10331000F0B5DE4657464E4645460023E0B58FB031
:1033200007AC210076202370FFF7C4FE002804D0EC
:103330002378602B1DD0582B54D0002321007720F8
:103340002370FFF7B7FE002805D02378602B00D14B
:10335000C7E0582B4FD077227621974808F024FBFE
:10336000002528000FB0F0BCBB46B246A946A046D7
:10337000F0BD924B984676234246137060231A00A4
:103380008F4904938F4B904805931A7008F00CFBFB
:103390008E4B032523808E4B00279B4680231B06E4
:1033A0009A468C4E43461B78994604F0D5F880190E
:1033B0007941514502D301208749404200230290C0
:1033C0000391009322004946584602330AF0CEFE8C
:1033D000022812D064200021013D03F0E7FE002DF9
:1033E000E0D1BDE77623754A7C4913705823904697
:1033F00004931A00C6E71F33F5E70A2003F044FFE1
:1034000002AB13269C460A25664401223100F320B4
:10341000FFF7ECFE0028A3D0012003F035FF33783E
:10342000DB0702D5013D002DEFD11A2221008820B3
:10343000FFF7DCFE002893D0694E079B0A993360A2
:10344000089B0B9A099873600C9BB060F160326125
:103450007361637E07222100E1203376FFF7C6FE09
:10346000051E00D17CE70F2223887383A37873762F
:103470002379E1781A4009010A43B28362791B0972
:1034800012011343F3832023A279F254049B602B8F
:1034900053D0544B4746238080231B06032699466E
:1034A000A8463D7804F058F800234A4A801859414C
:1034B000494502D30120484940420023029003912C
:1034C000009322002900584602330AF04FFE0228DA
:1034D0000DD064200021013E03F068FE002EE0D1F3
:1034E0003EE7364B984677234246137046E73E4BFD
:1034F0000326238080231B0699463D7804F02CF890
:103500000023344A80185941494502D301203249E9
:103510004042002302900391009322002900584664
:1035200002330AF023FE022830D064200021013E3D
:1035300003F03CFE002EE0D112E7F9235B0023806C
:1035400080231B0647460326994680463D7804F0B3
:1035500003F800231F4A80185941494502D301202E
:103560001D4940420023029003910093220029004C
:10357000584602330AF0FAFD02281AD064200021CE
:10358000013E03F013FE002EE0D1E9E6059B45461F
:103590001B78582B0AD00A49602B08D1134B009393
:1035A00002221023124808F0FFF9DAE60B49114B0A
:1035B000F5E74546B8466CE7BC2901100A10002023
:1035C000EC2501102D2C0020FC290110E0B6FFFF96
:1035D000F0100020204E0000FFFFFF7FE4250110C7
:1035E0005C240020F5100000F4570000B029011001
:1035F000142A01103C2A0110F0B5CE46474680B58A
:10360000040083B0002806D008226946F720FFF79F
:10361000EDFD051E06D10025280003B0C0BCB9464B
:10362000B046F0BD6B461E785B7836031B011E4327
:103630006B469B78464F1B091E436B46DA781B7915
:1036400012031B011A436B4659793B880909114340
:103650001209D21AC9105B00C91A02203B5E5243FC
:103660004B43DB1299460420395E12134A439213EE
:1036700091444A46374B900048441A60803007F026
:10368000BDFC354907F04FFC20603000FFF74AFCD5
:10369000324B061C1B786060582B57D06A46D18885
:1036A0001C203A5E49BA89B212052D4B8903891A4A
:1036B0001E203A5E4B445A43891A8022D201944616
:1036C00080221202614494462022787EBA565843E2
:1036D0005A438023C0129B0360449C46921242438B
:1036E0001A203B5E92126244534380229201944618
:1036F0006344C9139B134B43DA135243397ED211EF
:103700004A4312119B1ADA43D2171340C8225205BA
:10371000934219DC181307F071FCEA21890507F0C0
:1037200016FC104BA0601968301C07F0FCFB0E491A
:1037300007F0FEFD011CFE20800507F0EEFB0B49A3
:1037400007F005FCE06067E71300E3E70020E8E727
:103750005C240020E02B00200000C8462D2C002017
:1037600000D4FEFF0C10002001DE423E002A2D474F
:10377000014B18687047C0460C100020F0B5454654
:10378000DE4657464E46E0B5804683B000285AD004
:103790002F4B002500266C4699462E4F082221000B
:1037A000F720FFF723FD002806D103B0F0BCBB468D
:1037B000B246A946A046F0BD637820781B010003FD
:1037C0001843A37822791B091843E37812011B03DD
:1037D00013436279398812091A431B095B1A5B4348
:1037E0004900D2108446521A0220395E1B134A4304
:1037F0000420395ED2124B439B13D2184B466046CD
:103800001A60FFF78FFB8246134B013519689B4600
:1038100007F089FB114907F08BFD5146301C07F07A
:103820007FFBADB2061C322003F02EFDA845B5D1BA
:10383000404607F0E3FB011C301C07F074FB5B46BD
:1038400018600120B1E7044B00269B46F0E7C04614
:10385000E02B00205C2400200C10002001DE423E02
:10386000F0B5CE464746962180B5594C8DB08901BA
:10387000200004F077F90221042002F021FE022149
:10388000052002F01DFEC022236B12021340514A94
:103890000821136020000023012204F02BFA0121EB
:1038A000200004F065FA002128224B4807F0B4FEFE
:1038B000FA200022494B80001A8003F0E5FC4848BA
:1038C00007F08AFF0D2023220021684407F0A4FEA0
:1038D0006A4605231373434B03AED381424BCC207E
:1038E000019301AB994624234A464E279380330027
:1038F0001A780133BF18FFB238180CAAC0B29A4226
:10390000F6D10A244D462021314A6C442B78984642
:1039100093691942FCD1434601351360A542F5D1A4
:1039200020212B4A357893691942FCD101360CAB22
:103930001560B342F6D12021254A93691942FCD182
:1039400017602022224916008B691E401A42FAD1C4
:103950000860642003F098FC0521244808F024F84E
:10396000234B6A4601934B469E80224B12270393BA
:10397000062320211382164A03A86F440678936910
:103980001942FCD1013016608742F7D14D46202103
:103990000F4A287893691942FCD101351060AC4276
:1039A000F7D120210A4A93691942FCD1DD23202155
:1039B0001360074A93691942FCD16823642013609D
:1039C00003F062FC01200DB0C0BCB946B046F0BDAA
:1039D000008003403090034098240020142C0020E5
:1039E000402A011006030000B5620624602A011077
:1039F000C8000100B5620608F0B54646D6464F46F7
:103A0000C64DC0B5C64C2E8800271022C5498B690B
:103A10001A421DD110008B6918401A42FAD10B6866
:103A2000DBB2242B0ED0FE2E1AD90A2BEFD1002F99
:103A300000D02E80BA4F3B78242B18D000230026CC
:103A40002B80E1E723808B69012701261A42E1D010
:103A5000002F00D02E80E0BCBA46B146A846F0BD8B
:103A6000771CBFB2A3553E00E0550127DDE72A21B0
:103A700038000CF005F90028E0D07B1C984200D8F3
:103A8000C0E10222591C5242521A411A092900D897
:103A9000BAE1BB787E785E40FB785E4013181A006E
:103AA000910889007A1899469046B4463B00002256
:103AB0005E68043372409845FAD166461304564056
:103AC0001B0E5E4013021B0E5E40130E4A465E4004
:103AD000954BF6B2CB188A4231D01A7856405A1C10
:103AE00090422CD95A7856409A1CF6B2904226D968
:103AF0009A785640DA1C904221D9DA7856401A1D3D
:103B000090421CD91A7956405A1D904217D95A79B9
:103B100056409A1D904212D99A795640DA1D904229
:103B20000DD9DA7956401A000832904207D91A7A2C
:103B300056401A000932904201D95B7A5E40102249
:103B4000002101300CF090F8C0B2B04200D075E70F
:103B5000764B1A78472A6BD01A78522A00D06DE734
:103B60005A784D2A00D069E79B78432B00D065E74F
:103B7000002398466E4B380019009A460CF044F921
:103B8000061E00D15AE76B4F19E0022B41D0072BDC
:103B90000BD130000AF052FCC022674B120606F02F
:103BA0008EFB06F085FC634EF06001239C46514677
:103BB0000020E0440CF028F9061E00D13EE7434601
:103BC000082B2ED0E1DD092BEFD130000CF082F96B
:103BD0000528EAD9F421C9008C463378303B9A0095
:103BE0009B1872785B00303A9B187B76B378303B39
:103BF0009A009B18F2785B00303A9B18BB763379B9
:103C0000303B9A009B1872795B0062449B18BB831F
:103C1000CBE73378474A413B59424B412421535427
:103C2000C3E730000AF00AFC06F042FC3861BCE74A
:103C30005A78472A90D19A78412A8DD10023984604
:103C40003B4B380019009A460CF0DEF8002800D1F2
:103C5000D0E03A4F01239C4651460020E0440CF04E
:103C6000D3F8061E00D1C5E04346092BF2D89B00CD
:103C7000FB589F4630000AF0E1FB06F019FC2D4E80
:103C8000B060E7E730000AF0D9FB06F011FC294EDE
:103C90003062DFE730000AF0D7FB264B1875D9E712
:103CA00030000AF0D1FB234BC0B25875421E904140
:103CB00024229854CEE73378572BCBD180210906A4
:103CC0008C461C4A536863445360C3E730000CF0D1
:103CD00001F9032800D891E030000AF0AFFB06F0AC
:103CE000E7FB1749814607F01EF907F0A9F906001E
:103CF0006420704307F082F9011C484607F00DF973
:103D0000104907F010F98146300007F077F9011CDF
:103D1000484607F005F9074B58609BE7142C002034
:103D2000742A002000800340782A0020772A00208F
:103D3000882A011098240020CAA1FD3F803201107A
:103D40000000C842000070423378532B00D081E756
:103D5000802109068C462D4A13686344136079E775
:103D600030000CF0B7F803284AD930000AF066FB9F
:103D700006F09EFB2649814607F0D5F807F060F96A
:103D800006006420704307F039F9011C484607F02B
:103D9000C4F8204907F0C7F88146300007F02EF933
:103DA000011C484607F0BCF8184B186052E7300079
:103DB0000CF090F8052800D84CE73378134A303BD4
:103DC00099005B1871785B0030395B189375B37894
:103DD000303B99005B18F1785B0030395B18D37584
:103DE0003379303B99005B1871795B0030395B188F
:103DF00013762FE70122084B1A701FE600208AE78E
:103E00000020D1E700269AE6002666E698240020E6
:103E10000000C842000070421F2C0020F0B5DE46B2
:103E200057464E464546FA21E0B5890085B08246A0
:103E300005F0DAFF81463A48494607F0B5FD03F040
:103E40008BFB002958D0FA220023920006F00AF8D2
:103E50000400344B00269846334D2EE0FA2200230E
:103E6000920005F0FFFF001B504531D2FFF7C4FD63
:103E700003F072FB002939D0FA220023920005F0EA
:103E8000F1FF0700FA22BB1BD200934212D3FA21A2
:103E9000381B890005F0A8FF2423EE5C0200002EE9
:103EA00003D06B7D9B46002B2CD14046297D07F02B
:103EB0007BFD3E00322003F0E7F903F04DFB0029C3
:103EC000CCD1FA21890005F08FFF001B5045CDD3DE
:103ED00049462A7D154807F067FD0026300005B0E9
:103EE000F0BCBB46B246A946A046F0BDFA21890007
:103EF00005F07AFF0700C5E7FA21890005F074FF95
:103F00000400A6E72F7D0290286A07F0E1F8084C2C
:103F1000009001915A463900200007F045FDDDE789
:103F2000902A0110EC2A011098240020102B011077
:103F3000BC2A011070B50400FFF75EFD002C0FD005
:103F4000084B1878002800D170BD2200064B62CBC8
:103F500062C232CB32C232CB32C21B681360F3E78B
:103F60000020F1E71F2C002098240020F0B5DE4649
:103F700057464E464546E0B5042183B00E2002F078
:103F80009FFA072500234E4F4E4C04210F203D6021
:103F9000236002F095FA4C4B4C4E1D600520063D07
:103FA0009846356004F078F83B684949994605F031
:103FB0001BFF07F01EF8824607F074F8C7B23800FE
:103FC00007F01CF8011C504606F0A7FF8321C90525
:103FD00006F0BDFF07F066F84B46990049443D4B9B
:103FE0003D4A3F018900C0B2CB183843586024686D
:103FF0001A619246394A9446621E9441384A614495
:104000001700914664420A6867403A40934680220E
:1040100052010194140000975F460C432760A446A8
:104020001C681343A3462C005F46BC431C604346F8
:104030001B68284C98469B004344A0469B0098442C
:1040400044466060544640460461244C3068A246B1
:10405000461EB0414E4653441C68404246403440E0
:10406000A14614004F461C432760A24644462468DC
:10407000A5434446224315600E251A4A15701A4A74
:104080001278002A13D0194D019A009F2A4014007B
:10409000174A284090460A684444624017406246E6
:1040A00017601B68404443401E4053461E60012079
:1040B00003B0F0BCBB46B246A946A046F0BDC04620
:1040C0007C2B002084240020802B002088240020CA
:1040D00040420F00000005401F4E00000C0005404C
:1040E000FFFF00001E2C0020212C002071FD8E02FD
:1040F0008F02000010B5031CB42800D9B423214955
:10410000DAB20B70204B1B78002B34D01F4B5001C0
:104110001B68801A9C00E4181D4B80009C46801888
:10412000B421A4000001644405F05EFE194BF53093
:104130001B68FF3080B2002B1ED10100164A236895
:104140004B401A4080235B0123431A60134B1A68CB
:1041500093009B180E4A9B009446114A63441268D0
:10416000002A0CD00F4900041A68424011408022F6
:1041700052011343196010BD0A4A0104DFE70649E2
:10418000F2E7C0461E2C0020212C00207C2B0020B2
:104190000C00054084240020FFFF0000802B00203D
:1041A000882400200000FFFF012210B5214B224986
:1041B0001A700B781A1CB42B01D9B4231A1CD3B271
:1041C0005801C01A8000C0180A700001B42105F01F
:1041D0000BFE1A4BF5301B68FF3080B2002B23D04A
:1041E000174A0404174B19688B005B1816499B008B
:1041F0008C466344196861400A40802149010B43A1
:104200001A60124B1A6893009B18114A9B0012689F
:104210006344002A0BD10F491A68424011408022A2
:1042200052011343196010BD04000A4ADAE7044939
:104230000004F1E7212C00201E2C00208424002003
:104240000000FFFF7C2B00200C000540802B00208D
:1042500088240020FFFF0000F0B5D6464F464646B2
:10426000C0B5050088B0002873D001AB1B2099466B
:1042700002220021684407F0CFF94A464A4B1380D6
:104280004A4A1388591C11804A46538003F064F946
:10429000002964D0FA220023920005F0E3FD040017
:1042A0004B4629000F2203A85C600BF07FFD019BA9
:1042B000039A63405340049A00255340059A3C4CAE
:1042C0005340069A53401A041902120E5A40090E1E
:1042D0004A401B0E53404A46137603F03DF924181A
:1042E0004D41002D02DA0124324D64420023202783
:1042F0009A46314EB3691F4247D003F02DF9220090
:104300002B00121A8B41002BF4DC01D1002AF1D1D1
:10431000D04603F021F90025254C24184D41002DED
:1043200002DA0124234D64422026234FBB691E423A
:104330001BD003F011F922002B00121A8B41002B25
:10434000F4DC01D1002AF1D11C4919221C4807F0E4
:104350002BFB08B0E0BCBA46B146A846F0BDFA2136
:10436000890005F041FD04009AE72021124A936973
:104370001942FCD10A2313604346192BE4D1114A98
:104380001149138801331380DFE701235344984612
:1043900052464B469A5CB3691F42FCD14346326099
:1043A000192BB6D0C246A5E7AA020000182C00209F
:1043B000E0930400FFFFFF7F00400340542B0110F7
:1043C000802B0110162C00205C19011010B509F08B
:1043D00015FF1F211A2002F073F8002200211A2075
:1043E00002F086F800211A2002F094F810BDC046B1
:1043F000E0210D4AC901136810B50B400B490B6051
:1044000004210B4B1960FC3113680B42FCD050683F
:104410000004000C06F0F2FD064906F098FD06497E
:1044200006F081FD10BDC04600C0044000D004402D
:1044300000E004403333534000F07F4570B582B054
:104440006B469C1D402316006A4618430D002070E1
:1044500021000123073218480DF036F96A462B0E69
:10446000210023700732012313480DF02DF96A460D
:104470002B0C21002370073201230F480DF024F983
:104480006A462B0A21002370073201230A480DF0E7
:104490001BF96A46210001232570073206480DF0FA
:1044A00013F96A46012321002670073202480DF0F5
:1044B0000BF902B070BDC0460000044070B582B078
:1044C0006B469C1D40236A4618430E002070210055
:1044D0000123073216480DF0F7F800256A4621003F
:1044E00001232570073212480DF0EEF86A462100CC
:1044F0000123257007320E480DF0E6F86A462100C8
:104500000123257007320A480DF0DEF86A462100C3
:1045100001232570073206480DF0D6F86A460123BC
:1045200021002670073202480DF0CEF802B070BDAF
:1045300000000440F0B5D64646464F46C0B5D349C4
:1045400082B0D34809F076FE01210A2001F0B8FFBD
:1045500001210B2001F0B4FF0121082001F0B0FF80
:10456000092001F0EBFFD02380221B0692005A6243
:104570000A205A6102F088FE0A25FF2601AC6B462C
:104580006946DE7022000123C1480331013D0DF070
:104590009BF8002DF3D1D02380221B069200952199
:1045A00000209A61FFF78AFFFF270A356B466946AC
:1045B000DF7022000123B64803310DF085F826781C
:1045C000FF2E18D1013D002DF0D1D02380221B06F3
:1045D00092005A6121000122AD4826700DF06CF85E
:1045E0003100AC4807F0E0F9002002B0E0BCBA4668
:1045F000B146A846F0BDD02580232D069B006B61F7
:1046000001222100A248277098460DF055F8012E8E
:10461000E6D14346D521AB61872208204900FFF748
:104620000DFF0A25FF276B466946DF702200012334
:10463000974803310DF048F82678FF2E00D0E2E0CD
:10464000013D002DEFD100239846D02380221B0688
:1046500092005A61FF230122210023708C480DF043
:104660002BF802F079FF002900D1BFE0FA220023E5
:10467000920005F0F7FB8246FA23DB00994602F030
:104680006BFF002958D0FA220023920005F0EAFBC4
:104690005346C01A484557D2D02380221B069200A9
:1046A000652137209A61FFF709FF0A25FF266B462F
:1046B0006946DE7022000123754803310DF004F8CD
:1046C0002378FF2B02D1013D002DF0D1D02580268B
:1046D000FF232D06B6006E610122210023706C4875
:1046E0000CF0EAFF4346AE61772229209907FFF7D5
:1046F000A5FE0A25FF276B466946DF7022000123CD
:10470000634803310CF0E0FF2678FF2E34D1013DE1
:10471000002DF0D1D02380221B0692005A61210087
:1047200001225B4826700CF0C7FF0A2002F0ACFDA6
:1047300002F012FF0029A6D1FA21890005F054FBEE
:104740005346C01A4845A7D3002E57D10023524ED6
:1047500033704346002B22D150494D4809F00EFEDC
:1047600001224F4B1A703378002B45D14D494E48EA
:1047700007F01AF9012038E7D02380221B069200A7
:104780005A6121000122424827700CF095FF002E4B
:10479000CBD10023404E33704346002BDCD0D023D6
:1047A00080221B069200FD213A209A61FFF786FEC7
:1047B0000A25FF276B466946DF7022000123344833
:1047C00003310CF081FF2378FF2B41D1013D002DF7
:1047D000F0D1D02380221B0692005A61FF230122D0
:1047E000210023702A480CF067FFB5E7FA21890001
:1047F00005F0FAFA82463FE72C49B8E731002C4829
:1048000007F0D2F8F0E6012E00D01CE76B469F1CA3
:10481000FF232500984643466A463B703900012332
:104820001B4803320CF050FF6B46DB782B700135D0
:1048300002AB9D42EFD10022A3789046012B00D01D
:1048400003E7E378AA3B5A425341DBB29846FCE6C1
:10485000002BBED16B469F1CFF2325009846434684
:104860006A463B7039000123094803320CF02CFFE3
:104870006B46DB782B70013502AB9D42EFD123787C
:104880005B06A6D501233370A3E7C046801A060055
:1048900000000440AC2B01102A2C002080969800C8
:1048A000292C0020A82B0110F02B0110A02B0110A7
:1048B000CC2B0110F0B5C64600B5774B06001F782B
:1048C000884682B0002F45D0744B1B78002B4DD00A
:1048D000D02380221B0692009A6102F03DFE00293F
:1048E0003ED0FA220023920005F0BCFA05006B4688
:1048F000DC1D16E0FA220023920005F0B3FAFA2339
:10490000401B5B00984219D2FF236A4669469371A7
:104910006348FE3B220006310CF0D6FE2378FF2BC5
:1049200026D002F019FE0029E4D1FA21890005F011
:104930005BFAFA23401B5B009842E5D3D023802228
:104940001B0692005A61FF23012221005448237064
:104950000CF0B2FE0027380002B080BCB846F0BDB3
:10496000FA21890005F040FA0500C0E74602AFE7EA
:104970003100FF221820FFF761FD0A25FF266B4654
:1049800069469E7122000123454806310CF09CFEC9
:104990002378FF2B03D1013D002DF0D1CEE7002B72
:1049A000CCD1FE236A46694693710631FD3B220055
:1049B0003B480CF089FE80224146920038480CF0BA
:1049C0007BFE6B46694622009E7106310123344806
:1049D0000CF07AFE6B46694622009E710631012377
:1049E0002F480CF071FE6B46694622009E712C48E0
:1049F000012306310CF068FE1F2322781340052B9B
:104A00002AD102F0A9FD00293FD0FA22002392000A
:104A100005F028FA050016E0FA220023920005F0BE
:104A200021FAFA23401B5B00984221D2FF236A46F9
:104A3000694693711A48FE3B220006310CF044FE91
:104A40002378FF2B14D002F087FD0029E4D1FA214E
:104A5000890005F0C9F9E4E7D02380221B06920003
:104A60005A612100012226700D480CF025FE71E7E5
:104A7000D02380221B0692005A61FF2301222100CD
:104A8000237007480CF018FE65E7FA21890005F04D
:104A9000ABF90500D7E7C046292C00202A2C0020BE
:104AA00000000440F0B5C64600B5494B88461E7864
:104AB00082B0002E2DD0474B1B78002B2FD0D02357
:104AC00080221B0692009A61023A0100FF3A1120EF
:104AD000FFF7B4FC6B460A25FF27DC1D6B466946D1
:104AE0009F71220001233C4806310CF0EDFD237834
:104AF000FF2B16D1013D002DF0D1D02380221B06C3
:104B000092005A61FF2301222100334823700CF0E8
:104B1000D3FD0026300002B080BCB846F0BD400294
:104B2000CDE7002BE9D102F017FD002926D0FA22AB
:104B30000023920005F096F9050016E0FA22002302
:104B4000920005F08FF9FA23401B5B009842D4D203
:104B50006B46FF2769469F71220001231E480631DC
:104B60000CF0B2FD2378FE2B0ED002F0F5FC0029EC
:104B7000E4D1FA21890005F037F9E4E7FA21890048
:104B800005F032F90500F0E78025AD002B00424624
:104B9000FF2111480CF050FD6B46694622009F71C1
:104BA000063101230C480CF08FFD6B46694622004C
:104BB0009F710631012308480CF086FDD0231B06A7
:104BC0005D6101222100277003480CF075FDA1E70B
:104BD000292C00202A2C00200000044010B51020B1
:104BE00001F0ACFCD02380221B0652025A626420E2
:104BF00000219A6102F0DAFA10BDC04670B50402D5
:104C0000144309040C43EFF3108C72B6D0208021BA
:104C100017230125000649027BE0C046C046C04676
:104C2000C046C046C046C046C046C046C046C04654
:104C3000C046C046C046C046C046C046C046C04644
:104C4000C046C046C046C046C046C046C046C04634
:104C5000C046C046C046C046C046C046C046C04624
:104C6000C046C046C046C046C046C046C046C04614
:104C7000C046C046C046C046C046C046C046C04604
:104C8000C046C046C046C046C046C046C046C046F4
:104C9000C046C046C046C046C046C046C046C046E4
:104CA000C046C046C046C046C046C046C046C046D4
:104CB000C046C046C046C046C0468161C046C046E8
:104CC000C046C046C046C046C046C046C046C046B4
:104CD000C046C046C046C046C046C046C046C046A4
:104CE000C046C046C046C046C046C046C046C04694
:104CF000C046C046C046C046C046C046C046C04684
:104D0000C046C046C046C046C046C046013B00D271
:104D100081E02A009A404161144200D07DE7C046FC
:104D2000C046C046C046C046C046C046C046C04653
:104D3000C046C046C046C046C046C046C046C04643
:104D4000C046C046C046C046C046C046C046C04633
:104D5000C046C046C046C046C046C046C046C04623
:104D6000C046C046C046C046C046C046C046816137
:104D7000C046C046C046C046C046C046C046C04603
:104D8000C046C046C046C046C046C046C046C046F3
:104D9000C046C046C046C046C046C046C046C046E3
:104DA000C046C046C046C046C046C046C046C046D3
:104DB000C046C046C046C046C046C046C046C046C3
:104DC000C046C046C046C046C046C046C046C046B3
:104DD000C046C046C046C046C046C046C046C046A3
:104DE000C046C046C046C046C046C046C046C04693
:104DF000C046C046C046C046C046C046C046C04683
:104E0000C046C046C046C046C046C046C046C04672
:104E1000013B00D37DE78CF310883C20002102F099
:104E2000C5F970BD70B5EFF3108C72B6F024D021C7
:104E30008022172301256403090652027BE0C04645
:104E4000C046C046C046C046C046C046C046C04632
:104E5000C046C046C046C046C046C046C046C04622
:104E6000C046C046C046C046C046C046C046C04612
:104E7000C046C046C046C046C046C046C046C04602
:104E8000C046C046C046C046C046C046C046C046F2
:104E9000C046C046C046C046C046C046C046C046E2
:104EA000C046C046C046C046C046C046C046C046D2
:104EB000C046C046C046C046C046C046C046C046C2
:104EC000C046C046C046C046C046C046C046C046B2
:104ED000C046C046C046C046C046C046C0468A61BD
:104EE000C046C046C046C046C046C046C046C04692
:104EF000C046C046C046C046C046C046C046C04682
:104F0000C046C046C046C046C046C046C046C04671
:104F1000C046C046C046C046C046C046C046C04661
:104F2000C046C046C046C046C046C046C046C04651
:104F3000013B00D281E0280098404A61204200D025
:104F40007DE7C046C046C046C046C046C046C046D3
:104F5000C046C046C046C046C046C046C046C04621
:104F6000C046C046C046C046C046C046C046C04611
:104F7000C046C046C046C046C046C046C046C04601
:104F8000C046C046C046C046C046C046C046C046F1
:104F9000C0468A61C046C046C046C046C046C046FC
:104FA000C046C046C046C046C046C046C046C046D1
:104FB000C046C046C046C046C046C046C046C046C1
:104FC000C046C046C046C046C046C046C046C046B1
:104FD000C046C046C046C046C046C046C046C046A1
:104FE000C046C046C046C046C046C046C046C04691
:104FF000C046C046C046C046C046C046C046C04681
:10500000C046C046C046C046C046C046C046C04670
:10501000C046C046C046C046C046C046C046C04660
:10502000C046C046C046C046C046C046C046C04650
:10503000C046C046013B00D37DE78CF310883C207E
:10504000002102F0B3F870BD70B5EFF3108C72B6AA
:10505000F024D02180221723012564010906520281
:105060007BE0C046C046C046C046C046C046C046BB
:10507000C046C046C046C046C046C046C046C04600
:10508000C046C046C046C046C046C046C046C046F0
:10509000C046C046C046C046C046C046C046C046E0
:1050A000C046C046C046C046C046C046C046C046D0
:1050B000C046C046C046C046C046C046C046C046C0
:1050C000C046C046C046C046C046C046C046C046B0
:1050D000C046C046C046C046C046C046C046C046A0
:1050E000C046C046C046C046C046C046C046C04690
:1050F000C046C046C046C046C046C046C046C04680
:10510000C0468A61C046C046C046C046C046C0468A
:10511000C046C046C046C046C046C046C046C0465F
:10512000C046C046C046C046C046C046C046C0464F
:10513000C046C046C046C046C046C046C046C0463F
:10514000C046C046C046C046C046C046C046C0462F
:10515000C046C046013B00D281E0280098404A6129
:10516000204200D07DE7C046C046C046C046C0468B
:10517000C046C046C046C046C046C046C046C046FF
:10518000C046C046C046C046C046C046C046C046EF
:10519000C046C046C046C046C046C046C046C046DF
:1051A000C046C046C046C046C046C046C046C046CF
:1051B000C046C046C0468A61C046C046C046C046DA
:1051C000C046C046C046C046C046C046C046C046AF
:1051D000C046C046C046C046C046C046C046C0469F
:1051E000C046C046C046C046C046C046C046C0468F
:1051F000C046C046C046C046C046C046C046C0467F
:10520000C046C046C046C046C046C046C046C0466E
:10521000C046C046C046C046C046C046C046C0465E
:10522000C046C046C046C046C046C046C046C0464E
:10523000C046C046C046C046C046C046C046C0463E
:10524000C046C046C046C046C046C046C046C0462E
:10525000C046C046C046C046013B00D37DE78CF344
:1052600010883C20002101F0A1FF70BD70B5EFF364
:10527000108C72B6D021802217230125014C09061B
:1052800052027DE0001E1400C046C046C046C04623
:10529000C046C046C046C046C046C046C046C046DE
:1052A000C046C046C046C046C046C046C046C046CE
:1052B000C046C046C046C046C046C046C046C046BE
:1052C000C046C046C046C046C046C046C046C046AE
:1052D000C046C046C046C046C046C046C046C0469E
:1052E000C046C046C046C046C046C046C046C0468E
:1052F000C046C046C046C046C046C046C046C0467E
:10530000C046C046C046C046C046C046C046C0466D
:10531000C046C046C046C046C046C046C046C0465D
:10532000C046C046C046C0468A61C046C046C04668
:10533000C046C046C046C046C046C046C046C0463D
:10534000C046C046C046C046C046C046C046C0462D
:10535000C046C046C046C046C046C046C046C0461D
:10536000C046C046C046C046C046C046C046C0460D
:10537000C046C046C046C046C046013B00D281E0A0
:10538000280098404A61204200D07DE7C046C046D0
:10539000C046C046C046C046C046C046C046C046DD
:1053A000C046C046C046C046C046C046C046C046CD
:1053B000C046C046C046C046C046C046C046C046BD
:1053C000C046C046C046C046C046C046C046C046AD
:1053D000C046C046C046C046C046C0468A61C046B8
:1053E000C046C046C046C046C046C046C046C0468D
:1053F000C046C046C046C046C046C046C046C0467D
:10540000C046C046C046C046C046C046C046C0466C
:10541000C046C046C046C046C046C046C046C0465C
:10542000C046C046C046C046C046C046C046C0464C
:10543000C046C046C046C046C046C046C046C0463C
:10544000C046C046C046C046C046C046C046C0462C
:10545000C046C046C046C046C046C046C046C0461C
:10546000C046C046C046C046C046C046C046C0460C
:10547000C046C046C046C046C046C046C046013BC6
:1054800000D37DE78CF310883C20002101F08EFED4
:1054900070BDC04670B5EFF3108C72B6D02180227B
:1054A000172301251E24090652027BE0C046C04690
:1054B000C046C046C046C046C046C046C046C046BC
:1054C000C046C046C046C046C046C046C046C046AC
:1054D000C046C046C046C046C046C046C046C0469C
:1054E000C046C046C046C046C046C046C046C0468C
:1054F000C046C046C046C046C046C046C046C0467C
:10550000C046C046C046C046C046C046C046C0466B
:10551000C046C046C046C046C046C046C046C0465B
:10552000C046C046C046C046C046C046C046C0464B
:10553000C046C046C046C046C046C046C046C0463B
:10554000C046C046C046C046C046C0468A61C04646
:10555000C046C046C046C046C046C046C046C0461B
:10556000C046C046C046C046C046C046C046C0460B
:10557000C046C046C046C046C046C046C046C046FB
:10558000C046C046C046C046C046C046C046C046EB
:10559000C046C046C046C046C046C046C046013BA5
:1055A00000D281E0280098404A61044200D07DE7A3
:1055B000C046C046C046C046C046C046C046C046BB
:1055C000C046C046C046C046C046C046C046C046AB
:1055D000C046C046C046C046C046C046C046C0469B
:1055E000C046C046C046C046C046C046C046C0468B
:1055F000C046C046C046C046C046C046C046C0467B
:105600008A61C046C046C046C046C046C046C04685
:10561000C046C046C046C046C046C046C046C0465A
:10562000C046C046C046C046C046C046C046C0464A
:10563000C046C046C046C046C046C046C046C0463A
:10564000C046C046C046C046C046C046C046C0462A
:10565000C046C046C046C046C046C046C046C0461A
:10566000C046C046C046C046C046C046C046C0460A
:10567000C046C046C046C046C046C046C046C046FA
:10568000C046C046C046C046C046C046C046C046EA
:10569000C046C046C046C046C046C046C046C046DA
:1056A000C046013B00D37DE78CF310883C200021ED
:1056B00001F07CFD70BDC04670B5EFF3108C72B682
:1056C000D021802217230125014C090652027DE0DA
:1056D00014141400C046C046C046C046C046C0466A
:1056E000C046C046C046C046C046C046C046C0468A
:1056F000C046C046C046C046C046C046C046C0467A
:10570000C046C046C046C046C046C046C046C04669
:10571000C046C046C046C046C046C046C046C04659
:10572000C046C046C046C046C046C046C046C04649
:10573000C046C046C046C046C046C046C046C04639
:10574000C046C046C046C046C046C046C046C04629
:10575000C046C046C046C046C046C046C046C04619
:10576000C046C046C046C046C046C046C046C04609
:10577000C046C0468A61C046C046C046C046C04614
:10578000C046C046C046C046C046C046C046C046E9
:10579000C046C046C046C046C046C046C046C046D9
:1057A000C046C046C046C046C046C046C046C046C9
:1057B000C046C046C046C046C046C046C046C046B9
:1057C000C046C046C046013B00D281E02800984058
:1057D0004A61204200D07DE7C046C046C046C04670
:1057E000C046C046C046C046C046C046C046C04689
:1057F000C046C046C046C046C046C046C046C04679
:10580000C046C046C046C046C046C046C046C04668
:10581000C046C046C046C046C046C046C046C04658
:10582000C046C046C046C0468A61C046C046C04663
:10583000C046C046C046C046C046C046C046C04638
:10584000C046C046C046C046C046C046C046C04628
:10585000C046C046C046C046C046C046C046C04618
:10586000C046C046C046C046C046C046C046C04608
:10587000C046C046C046C046C046C046C046C046F8
:10588000C046C046C046C046C046C046C046C046E8
:10589000C046C046C046C046C046C046C046C046D8
:1058A000C046C046C046C046C046C046C046C046C8
:1058B000C046C046C046C046C046C046C046C046B8
:1058C000C046C046C046C046C046013B00D37DE747
:1058D0008CF310883C20002101F068FC70BDC046AC
:1058E000F8B5040005200F0002F0D6FB210004F0FB
:1058F0007BFA8026451E7602B54257D3FE24A405C6
:10590000211C201C05F00CFB6D08041CB542F7D2CD
:1059100005F0C8FBC6B2300005F070FB011C201C6E
:1059200005F0FBFA8321C90505F011FB05F0BAFB70
:105930003601C0B230431E4C1E49226809689300EC
:105940009B181D4A9B009A18506015611B4A6808F5
:105950009A18002914D01A490004156801266840D5
:1059600080256D0101402A431160134A310094469D
:1059700063441A682B4391431960002F02D1F8BD8C
:105980001049EAE7380001F07FFC226893009B1879
:10599000094A9B00944663441A681D431640D0236D
:1059A00080221B0692012E609A61E8E71020C2E770
:1059B000842B002080240020000005400C000540BE
:1059C0000000FFFFFFFF000010B504210D2000F0D4
:1059D00077FD0622054B1A600123054A1360054A2C
:1059E00012681340044A136010BDC046842B002087
:1059F00080240020780005407810054010B500286C
:105A000014D10C4B01211A6893009B180A4A9B0081
:105A1000944663441A68114080225201134319606E
:105A20008022D02392011B069A6110BDFFF758FF18
:105A3000FBE7C046842B002000000540FA2010B58B
:105A400064218000FFF74CFF322001F01DFC64212F
:105A50000548FFF745FF322001F016FCFA20962199
:105A6000C000FFF73DFF10BDDC050000002310B5AE
:105A70000380040001F070FD002911D0FA220023F8
:105A8000920004F0EFF900230022E36023616361D8
:105A9000A361E36122236060A2602284E25410BD0E
:105AA000FA21890004F0A0F9EDE7C046F8B541619C
:105AB0008261C36104000D1C01F04EFD00290CD071
:105AC000FA220023920004F0CDF923780600E7685B
:105AD000012B0BD0032B43D0F8BDFA21890004F031
