:020000041000EA
:1000000000B5324B212058609868022188439860DF
:10001000D860186158612E4B002199600221596106
:100020000121F02299502B49196001219960352056
:1000300000F044F80222904214D00621196600F024
:1000400034F8196E01211966002018661A6600F04E
:100050002CF8196E196E196E052000F02FF8012189
:100060000842F9D1002199601B49196000215960AB
:100070001A491B48016001219960EB211966A021F2
:10008000196600F012F800219960164914480160C1
:100090000121996001BC002800D000471248134993
:1000A000086003C880F30888084703B5996A0420EC
:1000B0000142FBD001200142F8D103BD02B5186610
:1000C0001866FFF7F2FF186E186E02BD00000240BE
:1000D000000000180000070000035F00212200005C
:1000E000F4000018222000A00001001008ED00E03C
:1000F00000000000000000000000000074B24E7A12
:1001000000200420F7010010CB010010CD010010E9
:10011000C9010010C9010010C9010010C901001077
:10012000C9010010C9010010C9010010CF01001061
:10013000C9010010C9010010D1010010D301001045
:10014000C1010010C1010010C1010010C101001067
:10015000C1010010C1010010C1010010C101001057
:10016000C1010010C1010010C1010010C101001047
:10017000C1010010C1010010C1010010C101001037
:10018000C1010010C1010010C1010010C101001027
:10019000C1010010C1010010C1010010C101001017
:1001A000C1010010C1010010C1010010C101001007
:1001B000C1010010C1010010C1010010C1010010F7
:1001C000EFF30580103800BE00BE00BE00BE00BECA
:1001D00000BE00BEF2EB8871E0EA001000EB0010F8
:1001E0003802001090A31AE71E481F49086006C88D
:1001F00081F3088810471D480068002801D019487D
:10020000F3E70DA40ECC002902D000F012F8F9E7B4
:100210001749184A002000E001C19142FCD116495B
:100220008847164988471649884700BEFDE701C937
:1002300001C29A42FBD3704700EB0010C0000020BF
:10024000E01800202003011000000420000004201A
:100250002003011000100420001004200000000002
:10026000704700000000000008ED00E0000000D032
:10027000E018002044360020D9770010D502001085
:1002800099770010F8B5C04606480749091A8B103F
:10029000C90FC91810B5491003D0044B002B00D06A
:1002A000984710BDE0180020E01800200000000072
:1002B000054B10B5002B03D00449054800E000BFF2
:1002C000FFF7E2FF10BDC046000000001034002020
:1002D000DCD80010F0B5DE4657464E464546E0B540
:1002E000CBB007F0A3FBFA20000103F065FCF04857
:1002F00007F036FCEF4C200007F032FC002301220F
:10030000ED490093ED4807F0ADFC200007F028FC14
:10031000102002F04FFED02380221B0652025A62A8
:10032000E7495A61E7480AF089F90321042002F0FD
:1003300017FE0321052002F013FE002201210420F4
:1003400002F026FE00220121052002F021FEDE48F7
:1003500007F088FC00F03CFD002800D199E2DB4862
:1003600007F0FEFBDA4807F07DFC00F0D9FF00281B
:1003700000D18EE2D54807F0F3FBD64807F072FCB7
:1003800001F0FEF9002800D183E2D04807F0E8FB35
:10039000D14807F067FC01F0E5FC002800D178E2C5
:1003A000CA4807F0DDFB02F097F802F02DF9CB48C0
:1003B00007F0D6FBCA4807F055FC642000F052FE57
:1003C000002801D100F0F9FCC04807F0C9FBC54C7A
:1003D000C54807F047FC142001F048F9002801D176
:1003E00000F0E6FC01F03CF905F050FB02000B00C8
:1003F000BE4807F037FCD02380221B0652029A61C8
:10040000BB4807F0ADFBBB4F30220021380005F0A0
:10041000A3FD01F067FE01F071FF02F0D7F902F0D1
:10042000EDFB02F0F9FCB44802F0C0F9B34807F064
:1004300097FBFA20C00003F0BFFB0121962003F0D8
:1004400061FF9621AE4807F00DFC03F0C5FC0029C2
:1004500001D100F0A6FCFA220023920004F0D8F9A2
:1004600005000023A74A07930D92A74AA74B0F92B6
:10047000A74A0C939146A74AA74B0A92A74A0B9307
:100480001A92A74AA74B1D92A74A08932F92A74AF0
:10049000A74B3092A74A3E003192A74A9A46139240
:1004A000A64A1B92A64A1C92A64A9346A64A904682
:1004B000A64A1092A64A3492A64A3592A64A369285
:1004C000A64A3792A64A3292A64A3392A64A389250
:1004D000A64A3992A64A2D92A64A2E92A64A1E9262
:1004E000A64A1F92A64A2092A64A2192A64A229282
:1004F000A64AA74F2392A74A2492A74A2592A74A21
:100500002692A74A2792A74A2892A74A2992A74A41
:100510002A92A74A2B92A74A2C92A74A1292A74A3C
:100520000E92A74A11925A46CB46069203F054FC0B
:10053000002900D1A7E1FA220023920004F068F913
:100540000400601B346005F032FA9E4905F0C5F9DD
:100550009D49051C05F00CFA002800D0B2E2FE21EE
:10056000281C890505F012FA002801D0FE25AD05EA
:100570000C98756000F0C8FC05000B9800F0B4FF03
:100580008146089801F0D2FB2A234A46F5542800F8
:1005900031680133F25402F049FC4846316802F0F8
:1005A0004DFC002D00D08FE253461B680993B360C9
:1005B000FE239B05F3604B46002B00D050E35B46C7
:1005C0001D68242308993561CA5C0433F2540A7DFE
:1005D0000133F25400230D9A138000230F9A1380E5
:1005E0005346099A1A605B461D602D230125F55478
:1005F0000A9B1B78002B00D15CE3300002F006F967
:10060000300002F08DF9300001F0C2FD306801F0D9
:100610006FFE050001F05AFE032800D1D9E204283C
:1006200000D1CBE2022803D1684B9D4200D964E39C
:10063000300001F08BFE01F02FFF002815D001F0F3
:10064000A9FF002800D03BE3139802F0AFF87069CF
:1006500001F06EFF002800D135E301F02BFF0420EC
:1006600001F056FD1B9802F0A1F8079BDB0700D4B0
:10067000A0E20A21079804F08DF8002900D18AE24F
:100680000521079804F086F8002900D17FE2306840
:1006900002F0E4FB02F096F800239946FA2080006D
:1006A00007F0C8F90500831C00D1AFE090E0C04618
:1006B00008D90010E0D800100CD9001020D9001083
:1006C000801A06006810002034D9001088D9001064
:1006D0008CD90010A4D90010BCD90010D4D90010B6
:1006E000ECD9001050D90010F8D9001010DA001021
:1006F0001CDA0010B035002040DA001050DA00108B
:1007000068DA00101A36002016360020BC330020AC
:10071000F03300203F360020682F002090DA0010D0
:10072000A0DA0010802F0020B4DA0010D4DA001014
:10073000980F0020F4DA001018DB00102CDB0010FA
:1007400040DB001054DB001090350020D4E0001096
:1007500064DB001074DB001084DB001098DB0010F9
:10076000ACDB0010BCDB0010D0DB0010D8DB0010CD
:10077000E4DB0010F0DB0010FCDB00100CDC0010F0
:1007800050DC00105CDC001070DC001098DC001005
:100790003E360020A4DC0010B0DC0010C0DC0010ED
:1007A000D4DC0010E4DC0010F4DC001010DD0010DC
:1007B0001CDD00102CDD0010ACE10010F433002033
:1007C0003936002000007A446F12833A60EA000054
:1007D00002000100069807F045FA3B780D2D7BD00A
:1007E0000A2D79D0082D00D15BE17F2D00D158E191
:1007F0001E2B00D952E75A1CFA203A70424680005C
:10080000D55407F017F90500831CE1D103F0E4FA91
:10081000002900D150E1FA220023920003F0F8FFF2
:10082000050001F053FD6422052802D8129B8000C8
:100830001A580E990B68EB1A93420CD301220D60E3
:1008400011990B7853400B7000D103E2D023802222
:100850001B0652025A6103F04BFD079B01330793BD
:1008600003F0BAFA002900D121E1FA220023920014
:1008700003F0CEFF031B132B27D9250003F0ACFA9E
:10088000002900D057E6FA21890003F083FF040015
:1008900057E6D94807F064F98026D84807F060F990
:1008A0007602D02505242D0632206E61013C03F02E
:1008B00083F9E4B23220AE6103F07EF9002CF3D16B
:1008C000FA20400003F078F9EBE723001433181AFC
:1008D00003F072F92500D1E742464946D154137816
:1008E000202B01D0092B01D10132F8E7002B28D0B1
:1008F0003F3BDBB2352B24D8109A9B00D3589F4640
:10090000229807F02DF9239807F02AF9249807F088
:1009100027F9259807F024F9269807F021F9279858
:1009200007F01EF9289807F01BF9299807F018F925
:100930002A9807F015F92B9807F012F92C9807F070
:100940000FF94B463B70A9E601F0C0FC01F0C4FC76
:100950000990706905F09AF814901591F06905F006
:1009600095F816901791B06805F090F818901991C5
:1009700001F0ACFD050001F00DFE189A199B0590E1
:1009800002920393169A179B099900920193149A65
:10099000159B1F98049507F065F94B463B707DE663
:1009A00001F024FE01F09EFB01F0A8FC02F006F924
:1009B00002F000FA30220021300005F0CDFA1E9836
:1009C00001F0F4FE4B463B7068E62E9801F0EEFE17
:1009D00001F0EAFD4B463B7060E602F063FA0378F3
:1009E0000500002B00D194E14378002B00D1B9E140
:1009F00073698349181C099304F0BAFF002800D0DA
:100A0000B9E12D23F35C002B00D0BFE1AB78002BC4
:100A100000D1C2E1329A3AAB23CA23C31278012033
:100A20001A7001F075FB002800D195E101F066FD18
:100A3000D025389801F0BAFE099403242D068023AE
:100A40005B0264206B6103F0B7F88023013C5B021A
:100A50006420AB61E4B203F0AFF8002CEFD1099C45
:100A60004B463B701AE6002001F052FB01F056FDA8
:100A70002D9801F09BFE4B463B700FE6209801F04D
:100A800095FE642000F0EEFA142000F0EFFD01F076
:100A900035FC02F093F8219801F088FE4B463B703C
:100AA000FCE5002B00D1F9E5013B3B70F6E5FA21AE
:100AB000890003F06FFEDDE6FA21890003F06AFE8B
:100AC0000500AEE64F4D53E50C9B0021D86A9B69AB
:100AD0004D4AF360B06002F02FFA4B4AB0604B49C8
:100AE000F06802F029FAB368F06009934B46002BD6
:100AF00000D193E02423089A0998D15C0B9B127DC6
:100B0000DD681B68356173622823F1540133F254A8
:100B10005346196804F0DBFE40003D49400804F0EC
:100B200027FF002800D1E4E00D9B1B8801339BB216
:100B300099460D9A281C13805B46196804F0C7FE7D
:100B400040003349400804F013FF002800D1BEE004
:100B50000F9A0999138801339BB213805246116092
:100B60005A4615604A46FA2A00D93EE5FA2B00D9C2
:100B70003BE52D230025F5540A9B1B78002B00D163
:100B80003BE51D9801F012FE0A9B1D7035E5300013
:100B900002F066F87BE5089D280001F0C7F82423E1
:100BA000E85C0433F0542A7D01333168F25402F0DA
:100BB0004DF965E5300001F035FD5AE5154B9D42D4
:100BC00000D835E5319801F0F1FD052001F0A0FADB
:100BD0002EE5114B9D4200D82AE5309801F0E6FD44
:100BE00001F0D8FC002800D18FE001F063FC042064
:100BF00001F08EFA1CE5C04650D9001058D90010FB
:100C0000000048426F12833A00004040000040C09C
:100C10006F12033AC0D40100881300005B461D68C0
:100C2000242308993561CA5C0433F2540A7D0133E8
:100C3000F25453460998196804F049FE400062498D
:100C4000400804F095FE002800D1C3E40D9B1B88EA
:100C50000133C0E4D02380221B0652029A61FAE5D8
:100C6000242308990A7DC95C0B9BD8681B683061F6
:100C700073622823F1540133F2540D9B81461D8089
:100C80005B46196804F023FE40004F49400804F019
:100C90006FFE002827D00F9A012513880133138097
:100CA0005B464A461A602D23F5540A9B1B78002B9D
:100CB00000D0A2E41A9801F079FD0A9B1D709CE413
:100CC00001F0F8FBD1E41C9801F070FDCDE40F9B1E
:100CD000099A188053461A605B461D604B46FA2BF2
:100CE00000D982E445E70F9B4A4618805B461A60AC
:100CF0007BE40022002391461BE72F9801F056FD6C
:100D000001F048FC002800D06FE7706901F010FC8A
:100D10006BE7349A3AAB23CA23C312881A803AA8E5
:100D200001F044FDD02533983AA906F09BFF0994C1
:100D300005242D0680235B0232206B6102F03CFF0C
:100D40008023013C5B023220AB61E4B202F034FF4D
:100D5000002CEFD1099C83E6399801F027FD4B4622
:100D60003B709BE4359A3AAB23CA23C311881980A0
:100D700092789A70D3E7099804F088FE369A00902A
:100D8000019140213AA806F08FFCC8E71A9A3AABC5
:100D900023CA23C312781A70C1E7379801F006FD01
:100DA00038E6FA21890003F0F5FC0500FFF759FB4E
:100DB000200006F0D5FEFFF71EFB044C200006F0D5
:100DC000CFFEFFF705FBC0466F12033A50D9001063
:100DD00010B584B075236A461373743B6821464886
:100DE000009303AA09F052FC012802D0002004B0AD
:100DF00010BD00230B22009368213F4801336A4451
:100E000009F04EFC0128F1D16B46DB7A682BEDD15D
:100E10006A463A4B6821938100233748009303AA1E
:100E2000023309F033FC0228E0D1623002F0C4FE44
:100E30006C236A46FF3393810023682100932E4878
:100E4000023303AA09F022FC0228CFD1083002F0B5
:100E5000B3FE6A462A4B68219381002326480093FB
:100E600003AA023309F012FC0228BFD16A46254BBF
:100E70006821938100232048009303AA023309F0DC
:100E800005FC0228B2D11B236A4693810023682106
:100E900000931948023303AA09F0F8FB0228A5D1F0
:100EA0001C236A46938100236821009303AA030050
:100EB000114809F0EBFB0300022897D12322694671
:100EC0008A810022682100920B4803AA09F0DEFB08
:100ED000022800D08AE79C236A465B0093810023A6
:100EE0006821009303AA0300034809F0CFFB0238EE
:100EF00043425841C0B27AE7681000206B80FFFF80
:100F0000190900001A030000F0B504008DB0002894
:100F10000ED03B2304AAD3730F2204A94C483A3BBA
:100F2000521800936821060009F0B0FB012802D096
:100F300000200DB0F0BD002308AD00932A00682109
:100F400030000E3309F0ACFB0E28F1D1414A28885D
:100F5000138840BAC01A00B220806B8851885BBAEF
:100F60005B1A1EB26680AB8891885BBA5B1A1FB2AF
:100F7000EB88A78059BADBBA0593A1812B89D18868
:100F80005BBA5B1A1BB20293E3806B8911895BBA6F
:100F90005B1A19B20391AB89218152895BBA9B1A02
:100FA0001AB26281049204F007FDE221890504F07F
:100FB000A8FC051C2061300004F0FEFCE22189053C
:100FC00004F09FFC061C6061380004F0F5FCE2218F
:100FD000890504F096FC071CA061029804F0ECFC63
:100FE0001D4904F07AFCE061039804F0E5FC1A491D
:100FF00004F073FC2062049804F0DEFC164904F04F
:101000006CFC6062059804F0D7FC144904F065FCA0
:10101000134904F05FFC291CA062281C04F071FC39
:10102000311C051C301C04F06CFC011C281C04F055
:1010300051FC391C051C381C04F063FC011C281CE5
:1010400004F048FC04F02CFDE062012071E7C0468A
:1010500068100020A8190020000003430000AA43E4
:10106000B81E1242F0B5DE46454657464E46E0B53C
:10107000444B8DB0049004000C220021180005930D
:10108000002504F069FF002C00D175E00023002644
:101090000027984699469A469B463B4B08AC0393DB
:1010A0003B2204ABDA73012304A92C3A52180398AB
:1010B0006821009309F0EAFA012807D000200DB05A
:1010C000F0BCBB46B246A946A046F0BD00232200B4
:1010D0000093682103980E3309F0E2FA0E28EDD14F
:1010E00023880438DBBA9B4463880135DBBAF618E1
:1010F000A388ADB2DBBAFF182389DBBA98446389B1
:10110000DBBA9944A389DBBA9A4402F055FD049BEB
:10111000AB42C5D11C0052464B4621005846B94649
:10112000B2461F00160003F00DFB210005045046D7
:1011300003F008FB2D0C000421000543484603F092
:1011400001FB124B2100A146C418404603F0FAFAF5
:1011500024040004240C49460443380003F0F2FA46
:1011600049460700300003F0EDFA059B58811D60E9
:1011700001205C601F81A2E7C02400200027240218
:10118000F3E7C046A81900206810002000C0FFFF48
:101190005F4BF0B51B68CE461C00DD1701234746A8
:1011A0005C4A5B42A4185D4180B5220087B02B00E9
:1011B00029008146200004F06DFB26002F00564BCD
:1011C000040098460820185E0D0032003B00C1174D
:1011D0000096019704F05EFB030D0F03DF194346F1
:1011E00006030A20185E22002B00C11704940595FF
:1011F00004F050FB04000806220A82180B1280211A
:1012000092197B4100200902801859414346DA882F
:10121000002304F03FFB4B10CF1703933B4300D157
:1012200074E0049A059B41461024085FC11704F03E
:1012300031FB009A019B0490059141460E25485FC1
:10124000C11704F027FBC40B4B04E3184204049CB1
:10125000059D12196B41802449466403641AE61700
:101260006508E0074446F1070C26A65F00246918CC
:10127000F500A4185D410023001BA941274A04F092
:1012800009FB3B00039A03F0ABFACB04460B9E1913
:10129000434604001620185E4F130D0032003B0039
:1012A000C11704F0F7FA32003B0004F0F3FACE0164
:1012B000420EB2184B1612196B411F004346142000
:1012C000185E16002B002200C11704F0E3FA4C034D
:1012D000C20CA218CB1492197B4119061D12434669
:1012E000140A12229B5E0C19DE171A0F31015118D5
:1012F00018010019694104F0BBFBEE21890504F0D7
:1013000000FB07B0C0BCB946B046F0BD0020F8E70E
:10131000F4350020000CFEFFA82E0020350C000044
:10132000F0B58BB0D0236A466A4C1373CF3B76215D
:101330002000009303AA09F0A9F9012802D0002097
:101340000BB0F0BD092500236D4400932A007621DF
:101350002000013309F0A4F90128F0D12B78602B8B
:10136000EDD16A465C4B76219381002320000093E7
:1013700003AA023309F08AF90228E0D1083002F00A
:101380001BFC012515E000230A2200937621200092
:1013900001336A4409F084F907000128CFD1012004
:1013A00002F00AFC6B462A009B7A1A4016001D4286
:1013B0000CD06B46F32276211A732000012300958E
:1013C00003AA09F063F90128B9D1DCE788236A464A
:1013D000D3720B2200970123762120006A4409F082
:1013E00055F907000128AAD11A237621200000967A
:1013F00003AA09F055F91A28A1D1384D039B069983
:101400002B60049B079A6B60089B05986B616B4689
:10141000A860E9602A6125331B786A462B76E123B0
:10142000D3720B2201237621200000976A4409F031
:101430002DF9012800D082E70723762120000096AD
:1014400003AA09F02DF9072800D078E76B469B899D
:101450006A466B836B469B7B20006B766B46D17B29
:101460000F221B7C09011A400A43AA836A46527C58
:101470001B0912011343EB836B469A7C2023EA5429
:101480006A46D333FF339381F13B76210096FF3BCD
:1014900003AA09F0FBF8022800D050E76A46104B77
:1014A0007621938120000223009603AA09F0EEF82A
:1014B000022800D043E76A460A4B76219381200038
:1014C0000223009603AA09F0E1F80238434258418A
:1014D000C0B235E768100020E0B6FFFFA82E00205C
:1014E000F5100000F4430000F0B5040089B00028B6
:1014F0000ED0F72302AAD3730F2202A95048F63B5D
:10150000521800937621060009F0C0F8012802D095
:10151000002009B0F0BD002306AD00932A0076211B
:101520003000083309F0BCF80828F1D16A782B782C
:1015300012011B031343AA78E988120913431F0001
:101540002A79EB7812011B03134349BA6A793D4D9E
:1015500089B20391120929881A431B095B1A5B435C
:101560004900D210521A0220295E1B135143042055
:101570002A5EC9125A4392138E18334BB000801959
:101580001E60803004F018FA304904F0A6F920609B
:101590003800FFF7FDFD2E4A03996060B318071C61
:1015A0008A031C20295E0905521A1E20295E80200C
:1015B0005943521A8021C9015218697E00025943C9
:1015C000C912091820202856D21343439B124B43BB
:1015D00080219B1289035B181A21685E584380237F
:1015E0009B01C01880135043C3135B432A7EDB1159
:1015F00053431B11C01AC343DB171840C8235B05B4
:1016000098421ADC001304F0D7F9EA21890504F0A6
:1016100078F9104BA0601968381C04F05EF90E4987
:1016200004F06AFB011CFE20800504F050F90B4910
:1016300004F067F9E06001206BE71800E2E7C046BC
:1016400068100020A82E0020F43500200000C846B5
:1016500000D4FEFF9C0F002001DE423E002A2D47F1
:10166000014B18687047C0469C0F0020F0B54546F6
:10167000DE4657464E46E0B5804689B0002800D188
:101680006FE03A4B00240393012300259946384E1E
:10169000F72302AAD3734B460F2202A900935218D4
:1016A00001237621039808F0F1FF012807D00020DC
:1016B00009B0F0BCBB46B246A946A046F0BD002327
:1016C00006AF00933A0076210398083308F0E8FF4C
:1016D0000828ECD17B7838781B0100031843BB78CD
:1016E0003A791B091843FB7812011B0313437A79DB
:1016F000204F3188BC4612091A431B095B1A5B4311
:101700004900D210521A0227F15F1B134A430427E3
:10171000F15FD2124B439B13D21863461A60FFF756
:1017200037FD8246144B013419689B4604F0D5F806
:10173000124904F0E1FA5146281C04F0CBF8A4B297
:10174000051C322002F038FAA045A1D1404604F031
:1017500033F9011C281C04F0C0F85B461860012016
:10176000A6E7054B00259B46F0E7C0466810002021
:10177000A82E0020F43500209C0F002001DE423E00
:10178000962110B5134C8901200002F075FB02214F
:10179000082001F0E5FB0221092001F0E1FBC02255
:1017A000236B120213400C4A20001360082100230F
:1017B000012202F0EFFB2000012102F027FC282289
:1017C0000021064804F0C8FB0022054B01201A80C6
:1017D00010BDC0460080034030900340082F002019
:1017E0001E360020F0B54646D6464F46A84DC0B539
:1017F000A84C2E8800271022A7498B691A421DD1B8
:1018000010008B6918401A42FAD10B68DBB2242B06
:101810000ED0FE2E1AD90A2BEFD1002F00D02E8029
:101820009C4F3B78242B18D0002300262B80E1E727
:1018300023808B69012601271A42E1D0002F00D0B6
:101840002E80E0BCBA46B146A846F0BD771CBFB2B8
:10185000A3553E00E0550127DDE72A2138000AF0B4
:10186000FBFA0028E0D07B1C984200D8F4E15A1C17
:10187000821A092A00D848E2BA787E78C31A5640FC
:10188000FA78033B56409A089846930039009C46E4
:101890000022B146FE184B6804315A40B142FAD1D9
:1018A0004E4611045640090E4E401102090E4E409C
:1018B000120E5640F6B2E04533D0784B63441A78A6
:1018C00056405A1C90422CD95A7856409A1CF6B26F
:1018D000904226D99A785640DA1C904221D9DA787B
:1018E00056401A1D90421CD91A7956405A1D9042F2
:1018F00017D95A7956409A1D904212D99A79564072
:10190000DA1D90420DD9DA7956401A000832904219
:1019100007D91A7A56401A000932904201D95B7AE7
:101920005E401022002101300AF08AFAC0B2B042B3
:1019300000D079E75A4B1A78472A6DD01A78522A84
:1019400000D071E75A784D2A00D06DE79B78432B81
:1019500000D069E700239846524B38001900994699
:101960000AF03AFB061E00D15EE74F4B9A4619E09B
:10197000022B41D0072B0BD1300008F09BFEC02278
:101980004A4B120603F071F903F066FA464FF8600D
:10199000434649460133002098460AF01DFB061EC7
:1019A00000D141E74346082B2ED0E1DD092BEFD1D2
:1019B00030000AF07BFB0528EAD95146F420337841
:1019C000C000303B9A009B1872785B00303A9B183D
:1019D0004B76B378303B9A009B18F2785B00303A34
:1019E0009B188B763379303B9A009B1872795B0099
:1019F00012189B188B83CBE733782B4F413B5A420D
:101A000053412422BB54C3E7300008F053FE03F0D7
:101A100023FA53461861BBE75A78472A8ED19A7841
:101A2000412A8BD1002398461E4B38001900994655
:101A30000AF0D2FA002800D10AE11D4B9A46494625
:101A400000200AF0C9FA061E00D101E1474601371D
:101A5000092F12D85246BB00D3589F46300008F0D9
:101A600029FE03F0F9F9104F4946B86000200AF04A
:101A7000B3FA002800D1EBE00A27494600200AF01B
:101A8000ABFA002800D1E3E07B1C9846D7E7C046BC
:101A90001E360020503400200080034054340020C3
:101AA0005334002070DD0010082F0020CAA1FD3F34
:101AB000C4E1001030000AF0F9FA052800D8DEE091
:101AC0003378964F303B9A009B1872785B00303A1F
:101AD0009B18BB75B3784946303B9A009B18F27847
:101AE0005B00303A9B18FB7533790020303B9A003D
:101AF0009B1872795B00303A9B183B760AF06CFABF
:101B0000061E00D1A4E030000AF0D0FA032800D865
:101B1000B2E0300008F0CEFD03F09EF98049804627
:101B200003F0DBFE03F06AFF06006420704303F05D
:101B300043FF011C404603F0CAFE7A4903F0CDFE84
:101B40008046300003F038FF011C404603F0C2FE1F
:101B50003860494600200AF03FFA061E78D03378F4
:101B6000532B7BD0494600200AF036FA061E6FD070
:101B70006A4F30000AF09AFA032800D8ADE030002E
:101B800008F098FD03F068F96549804603F0A5FE6A
:101B900003F034FF06006420704303F00DFF011CC6
:101BA000404603F094FE5F4903F097FE8046300004
:101BB00003F002FF011C404603F08CFE78604946AA
:101BC00000200AF009FA061E42D03378572B24D0A1
:101BD000494600200AF000FA002839D008F070FDCC
:101BE0004E4FC0B27875431E98412423F8541E3BD3
:101BF000984624E7494F300008F062FD49463875A1
:101C000000200AF0E9F9002822D008F053FD03F083
:101C100023F908233862984611E780223F4F1206C5
:101C20007B6849469B1800207B600AF0D5F9061EA8
:101C30000ED0300008F044FDC0B27875431E9841C4
:101C400024234946F85400200AF0C6F9061ED2D1D2
:101C50000122354B1A70E7E5002662E680222F4FFD
:101C600012063B6849469B1800203B600AF0B4F915
:101C7000061E00D07DE7EBE700233B6069E749469D
:101C800000200AF0A9F9061EE2D00AF00FFA032894
:101C900041D9300008F00EFD03F0DEF82049071CA2
:101CA00003F01BFE03F0AAFE06006420704303F05D
:101CB00083FE011C381C03F00AFE1A4903F00DFED6
:101CC000071C300003F078FE011C381C03F002FEF4
:101CD0000223124F98463860B1E600237B606EE71E
:101CE000300008F0E7FC03F0B7F80C4F49463862C3
:101CF00000200AF071F90028AAD008F0DBFC03F0FC
:101D0000ABF80923B860984699E60026D7E5034F5B
:101D1000F9E6024F8DE70020DAE7C046082F0020E1
:101D20000000C842000070422E36002070B504004A
:101D3000FFF758FD002C0FD0084B1878002800D171
:101D400070BD2200064B32CB32C232CB32C232CB14
:101D500032C21B681360F3E70020F1E72E36002043
:101D6000082F0020F0B5C646042100B50F2001F071
:101D7000F7F801250723274C274E052023603560FF
:101D800002F058FA254902F005FD03F010FE8046E6
:101D900003F066FE2768C4B2200003F00DFE011CAC
:101DA000404603F094FD8321C90503F0AAFD03F02A
:101DB00057FEBB001A4ADB199B0099182401194AE7
:101DC000C0B2204348600A61174832681C18501E90
:101DD0008241164E2068164F52425640DF1930405D
:101DE000386009688D4313495B1800211D60124B50
:101DF0001970124B1B78002B07D0114B1A40F5328B
:101E00002368FF3253401E403E60012080BCB8462C
:101E1000F0BDC046E8350020CC2E002040420F0027
:101E2000000005401F4E00000C000540FFFF0000B1
:101E30000C100540001005402C36002031360020E3
:101E40000CFEF30110B5031CB42800D9B4231449C7
:101E5000DAB20B70134B1B78002B1DD0124B5001C4
:101E60001B68801A9C008000E41880180F4BB42176
:101E7000A4000001E41802F08DFC0D4BF5301B6846
:101E8000FF3080B2002B08D10A4B22684240134039
:101E900080225201A418236010BD074B0004F4E710
:101EA0002C36002031360020E83500200C0005409B
:101EB000CC2E0020FFFF00000000FFFF014B187830
:101EC0007047C0462C3600200122134B10B51A7003
:101ED000124BB4211B689C00E418114BA400E418B9
:101EE000104B1B785801C01A8000C018000102F086
:101EF00051FC0D4BF5301B68FF3080B2002B09D030
:101F00000A4B000422684240134080225201A41868
:101F1000236010BD064BF5E731360020E835002080
:101F20000C0005402C360020CC2E00200000FFFFC6
:101F3000FFFF0000E12110B5124C4902200001F022
:101F40009BFF0221002001F00BF80221012001F08B
:101F500007F8C022236B120213400B4A20001360C3
:101F600008210023012202F015F82000012102F0CF
:101F70004DF80022054B01201A80054B1A80054BB5
:101F80001A7010BD0040034030500340223600203C
:101F9000203600203D36002070B5060088B00028AD
:101FA00041D01B2002220021684403F0D5FF224BC0
:101FB000224A01AC23801388591C1180638001F0F0
:101FC0000BFF002931D0FA220023920002F020FCFE
:101FD00005000F22310003A8656009F0CDFF019BC9
:101FE000039A6B405340049A20005340059A534093
:101FF000069A53401A041902120E5A40090E4A401A
:102000001B0E534023761D2420210D4A6C449369F6
:102010001942FCD1037801301360A042F7D1094A7C
:1020200013880133138008B070BDFA21890002F0D3
:10203000B1FB0500CDE7C046AA0200002236002011
:10204000004003402036002010B500280CD00029A5
:102050000AD044182021054A93691942FCD103781B
:1020600001301360A042F7D110BDC04600400340CC
:10207000194A30B59369DB0618D4184B00259C46E5
:1020800010211878164C93691942FCD11368DBB201
:1020900000280CD1AA2B02D12370013001259369AD
:1020A0001942F0D0002D01D06346187030BD3F2892
:1020B00007D96378042B02D001250020EFE7002028
:1020C000ECE7451C2354E8B20328E7D96378042BD6
:1020D000F5D04028F0D0E1E7004003403D36002035
:1020E000503500200023054A1370054A1370054A35
:1020F0001370054A1360054A136070472D3600209F
:102100003C36002035360020642F0020EC330020C0
:1021100000280ED01B4B1B78002B12D0032B25D090
:1021200016D8012B27D0C31E5A425341DBB2002BD5
:1021300005D00122144B1870144B1A70012318009B
:1021400070470128FBD1104B1870104B1870F5E741
:10215000042B15D1431F5A425341DBB2002BEED062
:102160000122094B1870094B1A70E7E7031F5A4206
:102170005341DBB2F2E7831E5A425341DBB2D6E74A
:102180000023DCE72D3600203C36002035360020C9
:10219000F0B5C646444D040000B52B7800280AD09F
:1021A00002681700002B09D1404E3378042B23D04E
:1021B00080BCB846F0BD002BFAD000273B4E3C4A0D
:1021C000337812789046934207D0002A39D0042BF6
:1021D0000BD8384A9B00D3589F46374A3370176054
:1021E000042B02D00022354B1A6000232B70002CE8
:1021F000DED03378042BDBD13149606903F0B8FBC2
:10220000002817D0FC21E06989054000400803F050
:10221000AFFB00280ED0294A1368002B32D0294981
:10222000FB1A8B42C4D905233370234B1F60002354
:102230001360BDE70022214B1A60B9E74346022B29
:10224000D3D1434633701C4B1F60CBE74346012B71
:10225000CBD1002C18D01C49606903F097FB0028F3
:1022600015D12870A4E74346032BBED1E9E74346C6
:10227000042BBAD13370104B1F60B6E74346052BD1
:10228000B3D1DEE7176093E700232B7090E72D238F
:10229000E35C002BF8D142463270074A2B7017607E
:1022A000064A13603378A5E7353600202D36002026
:1022B0003C360020ECE10010642F0020EC330020BD
:1022C0000000A0418713000000004842014B18782D
:1022D0007047C0462D360020052803D8024B8000E9
:1022E000C05870470148FCE700E2001078DD00109C
:1022F000014B1B68C01A7047642F002000220A4B54
:102300001A600023094A1370094A1370094A1370AE
:10231000094A1370094A1370094A1370094A137065
:10232000094A13607047C04610360020433600202B
:10233000343600202A3600202F3600203036002088
:1023400033360020293600205C2F0020F0B5C64629
:10235000040000B5002819D0FFF7B8FF2022A35EC3
:1023600005001E00414B98461B781F1E11D1012805
:1023700048D03F4B1F001B78002B14D1022839D0C6
:102380003C4B1B78002B01D1032D15D080BCB846E7
:10239000F0BD374B1F001B78002B25D1022829D018
:1023A0000128EDD122E0022DEAD10320FFF7B0FE93
:1023B000304B1B78002BE9D12F4B1B68002B04D02E
:1023C0002268D31A2D4A93420AD82D49606903F036
:1023D000CFFA002801D0002E02DB3B78002BD5D0AD
:1023E0000122284B1A70D1E70128DCD10220FFF727
:1023F0008FFECBE7322E1EDD0121234A1170234AC6
:102400001370D5E72249A06803F0B2FA002802D180
:10241000204B1870BAE73300C8331DDA1D4A137811
:102420000133DBB21370022BB0D9434622681D7012
:10243000114B1A60DAE7144B1B78002B0FD03300D6
:1024400014330FDA114A13780133DBB21370022B05
:10245000AED901233B70A8E70E4B1F7096E73300FF
:102460001433A5DB0022094B1A70A1E73436002093
:102470002A360020303600205C2F00202F75000007
:102480000000F0412F36002043360020293600207E
:102490009A99993E33360020044B1878002803D0CF
:1024A000034B1878012358407047C0462F36002050
:1024B000303600200122034B1A700022024B1A70A2
:1024C0007047C046303600202F360020014B186878
:1024D0007047C0465C2F002010B5FFF743FC00207A
:1024E000FFF7B0FCFFF7F0FC0022024B1A70024B22
:1024F0001A7010BD403600204136002010B5064C41
:102500002378002B00D010BD0020FFF79BFCFFF7C5
:10251000DBFC01232370F6E740360020034B1A78DA
:10252000012A01D100221A707047C04640360020AF
:1025300070B5154C051C2378012B01D0002070BD0F
:10254000FFF7C4FE0028F9D0104B1B78002B05D1F3
:102550000F49281C03F012FA0028EFD10223237040
:1025600001F03AFC5A20FFF76DFCFA20400001F020
:1025700023FBFFF7A3FC5A2802D004232370DDE7D6
:10258000032359382370DAE7403600204136002013
:102590000000F041034B1878033843425841C0B261
:1025A0007047C0464036002070B50E4B00241B78A3
:1025B000012B01D0200070BD0B4A15001370FFF7EE
:1025C00083FC5A20FFF73EFCFA20800001F0F4FA69
:1025D0000020FFF737FCFA20400001F0EDFA2C70E4
:1025E0000134E7E7403600204136002010B50020D6
:1025F000FFF728FC0022024B1A70024B1A7010BD24
:10260000403600204136002010B5FFF793FC002231
:10261000024B1A80024B1A6010BDC0461C360020C7
:1026200000340020F0B5C64600B505008EB0002885
:1026300005D0584A06681368F31A312B03D80EB038
:1026400080BCB846F0BD002116600BA80C2203F038
:1026500083FCD523504A09AC5B0023801388666055
:10266000591C11806380FFF731FE4C492072686964
:1026700003F047F903F0C2F92D236B441870000AE8
:1026800058704749E86903F03CF903F0B7F92F2384
:102690006B441870000A58704249A86803F031F979
:1026A00003F0ACF931236B441870000A58703B49B1
:1026B000686A03F026F903F0A1F933236B4418701C
:1026C000000A58702923EB5C63740023A374FFF79E
:1026D000FDFD002854D1FFF7F9FD04284BD102225B
:1026E000A37C1343A3742823EB5C002B03D00422A8
:1026F000A37C1343A3742D23EB5C002B04D0802315
:10270000A27C5B421343A374099B0A9A617C5A40E2
:102710000B9B20005A400C9B5A40237C4B40A17CD1
:102720004B4011045340090E4B401102090E120E8A
:102730004B4053401421E374FFF786FC6768FFF7B2
:10274000C5FDFFF7C9FD638880460693A86803F0BE
:102750009DF904900591E86903F098F902900391BE
:10276000686903F093F942460090019139000E48E0
:1027700005F078FA63E7FFF7A9FD0528B3D1AEE7C6
:10278000FFF7A4FD0528A6D00122A37C1343A37460
:10279000A1E7C046003400201C3600200000204184
:1027A0000000C84200007A44B0DD001010B5041EDD
:1027B00005D0FFF7F1FB2100014805F053FA10BDE9
:1027C000D0DD001010B5FFF753FC10BD0022094BFF
:1027D00010B51A60084B00211A600023074A084808
:1027E0001370084A1370084A1370282203F0B4FBD0
:1027F00010BDC0464034002044340020363600204E
:10280000802300202836002027360020F0B5C64659
:1028100000B5040082B000280DD0354B00691A784D
:10282000002A0CD13349606108600021A1612C218C
:10283000625401321A7002B080BCB846F0BD2D4E11
:102840002D4A316801AB019100F058FB012358403B
:102850002C233168E054294A019800F027FB00211D
:10286000274A606100F068FB264D011C60618046CC
:102870002878254B8200D15001300A2101F062FFF7
:102880002970002902D10122204B1A7065680021AD
:10289000281C03F07BF8002800D11D4D316840460C
:1028A00003F015F8291C03F018F81A49051C03F069
:1028B0006DF800281AD11849281C03F059F800288F
:1028C00001D0154D0EE06B005F081449381C03F071
:1028D00062F8002805D11149381C03F057F8002888
:1028E00000D000254346A5613360A4E7094DF9E710
:1028F00036360020403400200000A0419A99193E4D
:1029000000409C45283600208023002027360020E8
:102910000AD7A33C0000C8420000C8C2FFFF7F7F67
:10292000F0B5DE4657464E464546E0B5040087B052
:10293000002800D1EBE046680021301C03F026F8A7
:10294000002800D1EAE08F4B1F78002F00D1EBE088
:102950008D4D00212B68181C009302F0BBFF6A68A4
:10296000111C019202F0B6FFAA68111C029202F03B
:10297000B1FFEA68111C039202F0ACFF2A69111C36
:10298000049202F0A7FF6A69111C059202F0A2FFEF
:10299000AA69111C934602F09DFFEA69111C924638
:1029A00002F098FF2A6A111C914602F093FF6A6AAE
:1029B000011C101C904602F08DFF744902F08DFF3F
:1029C000051C011C009802F082FF011C02F099FF17
:1029D000002102F07FFF291C0090019802F077FF90
:1029E000011C02F08EFF009902F074FF291C009078
:1029F000029802F06CFF011C02F083FF009902F0C4
:102A000069FF291C0090039802F061FF011C02F08D
:102A100078FF009902F05EFF291C0090049802F0F4
:102A200056FF011C02F06DFF009902F053FF291CB4
:102A30000090059802F04BFF011C02F062FF009924
:102A400002F048FF291C0090584602F040FF011C8C
:102A500002F057FF009902F03DFF291C83465046C3
:102A600002F035FF011C02F04CFF594602F032FF24
:102A7000291C8246484602F02AFF011C02F041FF51
:102A8000514602F027FF291C8146404602F01FFFF5
:102A9000011C02F036FF494602F01CFF3B4902F0E0
:102AA0001CFF3B4902F072FF002855D0FC25AD0504
:102AB000A8462E23FE21E7548905E06802F007FFAF
:102AC000344902F01EFF311C02F01BFF324E316808
:102AD00002F000FF414602F014FFA169071C281C08
:102AE00002F00FFF011C381C02F0F4FE2B49051CFC
:102AF00002F04CFF00282CD12949281C02F038FF95
:102B0000002815D0274B264DE5613560238407B09A
:102B1000F0BCBB46B246A946A046F0BD194B224EBA
:102B20001F78002F00D013E7204B214D9846C0E7B7
:102B30006F007F081F49381C02F02DFF002805D1C7
:102B40001C49381C02F022FF00280AD0002300256F
:102B5000DAE7194B114DD7E7144B00279846144D6F
:102B6000A7E70E49281C02F0CCFE02F047FF0D4AF1
:102B70000300904200DA13000F4A9342C4DD1300B1
:102B8000C2E7C046273600208023002000002041F5
:102B90000000A0400AE81C41443400200000C84264
:102BA0000000C8C278ECFFFF0AD7A33C3333333FA1
:102BB0009A99993EFFFF7F7F881300000022094BFE
:102BC00010B51A60084B00211A600023074A084814
:102BD0001370084A1370084A1370282203F0BCF9D6
:102BE00010BDC0464034002044340020363600205A
:102BF0008023002028360020273600200F4B104865
:102C000010B5104C1860104B00211C6000230F4AB7
:102C100013800F4A13800F4A11700F4A002113606E
:102C20000E4A1360A022D20003F096F9A0220021E0
:102C30002000D20003F090F910BDC046A40F002080
:102C4000A8240020A8290020A00F0020143600206E
:102C50001836002032360020FC330020F8330020E4
:102C6000F0B5DE4657464E464546E0B504008FB007
:102C7000002805D0474A05681368EB1A632B06D86D
:102C80000FB0F0BCBB46B246A946A046F0BDC36932
:102C900081680A93476915600691FFF717FB3E4B61
:102CA0001E889C463F2E0FD83C4BB2001B689219E1
:102CB00092009B1806990A9A1D605F609A60D9601D
:102CC0001874634601361E80FA21354A206813685D
:102CD0004900C31A8B42D3D3324B0B931B78002B82
:102CE00050D1314B9946314B2C4D196828682960D9
:102CF000494600250E80614600260D800B9901355E
:102D00000D702B490D948A460027B0469B4604005F
:102D100018600C9204E04346143398465B461C68E6
:102D20004444236860680A9302F0B0FE069007915D
:102D3000A06802F0ABFE08900991E06802F0A6FEE0
:102D40000500207C0E00FFF7C7FA089B099C049041
:102D500000930194069A079B5046029503960A99A0
:102D600004F080FF4B4601371B88BFB2BB42D2D86C
:102D7000002349460D9C0B800C9A20680B9910602B
:102D80000B707DE7084B99461B88002BABD0106079
:102D900076E7C046FC33002014360020A40F002044
:102DA000F83300203236002018360020A00F002013
:102DB000D8DD00100F4B104810B5104C1860104BA8
:102DC00000211C6000230F4A13800F4A13800F4A12
:102DD00011700F4A002113600E4A1360A022D20026
:102DE00003F0BAF8A02200212000D20003F0B4F8CA
:102DF00010BDC046A40F0020A8240020A829002050
:102E0000A00F002014360020183600203236002093
:102E1000FC330020F833002010B5102200210248B6
:102E200003F09AF810BDC046A82F0020024B0028DE
:102E300000D0596018707047A82F0020024B00285E
:102E400000D0996058707047A82F0020024B0028CE
:102E500000D0D96098707047A82F0020104B1A78C6
:102E6000002A03D05A68821A642A15D85A78002A90
:102E700003D09A68821A642A0BD89A78002A07D05D
:102E8000DA68801AFA22D200904201D900229A70A0
:102E9000704700225A70F0E700221A70E6E7C04639
:102EA000A82F002000487047A82F002070B5061CEE
:102EB0000D1C101C0021141C02F05AFD00281BD10F
:102EC000FE21201C890502F061FD002811D1FE20A1
:102ED000211C800502F0FBFC011C281C02F011FDE6
:102EE000051C311C201C02F00CFD291C02F0F2FC18
:102EF00070BDFE24A405EAE70024F2E7F8B51C0043
:102F0000061C0D1C171C002B14D00021101C02F0F5
:102F10002FFD00280ED1291C301C02F0D8FC4000E7
:102F20004008391C02F032FD002802D10120266041
:102F3000F8BD25600020FBE770B5051C0C1C161CB5
:102F400002F016FD002806D1311C281C02F01EFDDF
:102F5000341C002801D0201C70BD2C1CFBE7C0468F
:102F600010B54024074A83009A181268C0005440E4
:102F7000C0222240044C1B191A60044BC018416047
:102F800010BDC04604C0014004D0014000400140D3
:102F9000064B8000C3181B68C90092000A435A40C0
:102FA0000C231340024A80180360704704C001409C
:102FB00004D001400123D022834012069362936122
:102FC000084A83009A1811684022514080320A4012
:102FD0000549C0005B181A60044BC0180523436004
:102FE0007047C04604C0014004D001400040014089
:102FF0008023DB051868000F7047C0460FB400B58A
:10300000084883B004F0ACFD049B002B07D005A951
:103010001800019104F08CFB034804F0A1FD01208D
:1030200004F09EFBF4DD001018DA001070B58C4639
:103030001600EFF3108472B60F490B68002BFCD01A
:10304000BFF35F8F6346DB08C5180722C05C634689
:103050001A40012393401A000240034207D118434B
:103060002870BFF35F8F0A6084F3108870BD6146DB
:103070003000FFF7C3FFC0462C0100D0F8B5CE46A4
:1030800047468C4680B51C00EFF3108872B61C4989
:103090000B68002BFCD0BFF35F8FA24221D807231F
:1030A000994602E00132944218D349460126114064
:1030B0008E40D308C718C35C1E42F3D110003343BF
:1030C0003B70BFF35F8F00220D4B1A6088F31088AE
:1030D00000280EDBC0BCB946B046F8BD0120404216
:1030E000EFE7BFF35F8F00230B6088F310880120A8
:1030F00040426346002BEDD00898FFF77FFFC046A3
:103100002C0100D0044A1078431CDBB2172B00D9E5
:10311000102313707047C046A80F002000B5054B60
:1031200083B00100009318221F230348FFF7A6FF76
:1031300003B000BD04DE0010D82E00200021044B97
:10314000044ABFF35F8F02C39342FAD17047C0466F
:10315000000100D0800100D0084B094A1360094AE1
:103160001360094A1360094A1360094A1360094A47
:103170001360094A1360094A136070478080808099
:1031800000E400E004E400E008E400E00CE400E017
:1031900010E400E014E400E018E400E01CE400E0C7
:1031A0001F2318401E3B8340002905D0C021044A3C
:1031B0004900535013607047802201498B50FAE751
:1031C00000E100E001228240034B1B6813405A1EBD
:1031D0009341D8B27047C04600E100E0012383402C
:1031E000014A13607047C04600E200E0054B103012
:1031F0009B688000C358044A00209B1A2F229A42E1
:103200004041704700ED00E0AC0F002070B50D00AC
:10321000EFF3108672B60F4A1368002BFCD0BFF391
:103220005F8F0D4B10309B6884001B590B4A9342F3
:1032300003D09D4201D001F059F9074B9B681D5105
:10324000BFF35F8FBFF35F8F0022024B1A6086F3DC
:10325000108870BD240100D000ED00E0C101001015
:10326000F0B5DE4657464E464546E0B5824683B049
:103270008B461700EFF3108872B6604A1368002B74
:10328000FCD0BFF35F8F00255D4B5D579946002D45
:1032900000DA9AE04A466B005A4C5E19B600019378
:1032A000A31900939B791370574B9A6853461033B8
:1032B0009B00D15899460B1B2F2B32D9534B994267
:1032C00000D098E0019B0236ED18514BAD006353DE
:1032D000504BA619043B9B1B4F4A1B055B0D651900
:1032E00013436B804D4B0121AB80FF23AB715B46D9
:1032F000AB60009BEF710B4319004A46424B9B6841
:103300009950BFF35F8FBFF35F8F00223B4B1A6072
:1033100088F3108803B0F0BCBB46B246A946A0466D
:10332000F0BD01200A008243D379B446BB422DD8B8
:103330003B4BB51C190013001B1B5B415943090D86
:103340008C46334B6519A353324B0099043B5B1BEE
:103350001B05314D5B0D2B4304364B80A619131F03
:103360009B1B1B055B0D1D4363468B715B468B608E
:103370002C4B8D80CF7113600143BEE75800C018FD
:1033800080002018C679BE4225D902000623D356F4
:10339000002BF3DA9A46131D9C4623486346009E91
:1033A0009571043EF61A36051B4B760D1E43019BA4
:1033B00096805A1953469200A418A3715B46194A85
:1033C000A0802260E771A36097E701F08FF80025E5
:1033D0004B465D575EE766469A46131D9C469088AD
:1033E000043640050015A6196044801B00050A4EEE
:1033F000400D3043D2E701F079F863E7240100D0B3
:1034000037360020AC0F002000ED00E0C1010010B5
:1034100000A1FFFFDC0F002000E0FFFF01BDFFFF68
:10342000AAAA00000148804701BD00000123034310
:1034300070B59C46EFF30581EFF3108572B6214A13
:103440001368002BFCD0BFF35F8F1F4B04001F4A93
:10345000E41A64416243120D1D4C8900A66852B201
:10346000765866451CD00621595691421CD012212F
:103470005956914222D01E215956914220D02A21DC
:1034800059560324914210D0124B19781A70817149
:10349000BFF35F8F00220B4B1A6085F3108870BD5D
:1034A000A3680D4C5C50EFE7002461000919890006
:1034B0005B18FF21997109499980E5E70124F4E738
:1034C0000224F2E7240100D0AC0F0020AAAA0000D9
:1034D00000ED00E037360020C101001001BDFFFF04
:1034E00000B5074B83B00100009300220523054877
:1034F000FFF7C4FD002801DB1F23181A03B000BD2D
:1035000020DE001042360020024BC91889000160FD
:103510007047C0464000003470B5114C114DAC42AC
:103520000FD2FF262368002B0CD0FFF7EBFD010024
:103530002000FFF7E9FFA680BFF35F8F0834AC429D
:10354000F0D370BDFFF7DEFD01002000FFF7DCFFC8
:103550002671BFF35F8F0834AC42E3D3F1E7C04676
:10356000D8180020E018002010B50400FFF7CAFDAD
:1035700001002000FFF7C8FFFF232371BFF35F8F17
:1035800010BDC04610B504000120FFF7C7FD034B76
:10359000C01880002060BFF35F8F10BD4000003472
:1035A000034BC91889000160BFF35F8F7047C046A5
:1035B000400000340A4B1968EFF3108072B60A68B5
:1035C000002AFCD0BFF35F8F1B68BFF35F8F002220
:1035D0001A6080F3108840BF002000217047C04669
:1035E000E4350020F0B5DE4657464E464546E0B588
:1035F00085B0EFF3058303221A40B34B91005F5867
:10360000012393409B4602925A468846AF4B1A606C
:10361000AF4B03935B46AF4843630823FE5E002E27
:1036200037DABB881BB2002B00DBA4E0BB79002B90
:1036300000D0E5E00823F95E002920DB4B007A6921
:103640005B18DB00D3189D68DC686B1C00D104E1BB
:10365000A04801004144826A0B69AE1A9B1A9E423F
:1036600015D30123026A029883401A420FD0994869
:1036700000F0AAFB8C4202DCCCD18542CAD940BF03
:1036800005B0F0BCBB46B246A946A046F0BD0D61F0
:10369000EDE77A69730091469B19DB0099444B462C
:1036A0009C68DD6800F090FB8D42BADC00D1F6E04A
:1036B000002D00DADBE04A464B4652691B69924610
:1036C000039A934200D1CCE04A460821785E5288A2
:1036D0000004514610439847009001910099019AC7
:1036E0000B00134300D1C2E013000A00002B00DBE3
:1036F000D9E020002900801A99414B469860D96092
:1037000000229B5E002B00DA8BE75D007C69EA18E3
:10371000D200A21800949468D268A2468A4200DDC2
:103720007FE702D1844200D97BE70824A4463B818D
:10373000BC44009C00972F006546B4463E0006E05E
:103740005E00F218D200A2189768D268BA468A4280
:1037500007DC00D1B4E0F318DB00E518E35E002BD2
:10376000EEDA66464A46009F13802E80BB881BB265
:10377000002B00DA5AE73A69EFF3108172B613684A
:10378000002BFCD0BFF35F8F0123BE885B42BB8060
:1037900036B23B69BFF35F8F00221A6081F3108855
:1037A000002E00DA42E73B0008333A0099467D6973
:1037B00073009B190824115FDB004846EB180029B1
:1037C00013DB9C680093A446DC6806E0A34240D06B
:1037D0000023F95E3800002906DB4F007F18FF0048
:1037E000EF19FB68A342F1DD009B068000201E5EFE
:1037F0001980002EDCDA1700BB79002B00D119E705
:103800000023BB710823F95E4B1C00D137E73D0054
:103810000835AC467C6903E084464B1C00D109E7BF
:103820004B005B18DB00E0180A00E15E43881BB226
:10383000002BF1DA01256D42EE178560C660082580
:103840007B5F9342E9D0634619803B8903803A81CC
:10385000E3E7BB686345BBD9C6E7631C00D0F7E666
:1038600005E7534650461B699847002823D14B462D
:103870001B883A693B81EFF3108372B61168002907
:10388000FCD0BFF35F8F49467A880A803A697E8010
:10389000BFF35F8F0021116083F31088C1E684427B
:1038A00000D805E7BDE60B4800F08EFA009B019CAE
:1038B000C018614121E753460CCB009201930DE7FC
:1038C000824500D847E74CE7303400203C70054083
:1038D000E53500100040054070B52D4C2569002DE0
:1038E00004D00A212B48FFF70FFE70BD2A4E03219A
:1038F000294800F05FFAE660FFF704FC274B03223B
:10390000C018D02322701B061B6801216370244B52
:103910008000A3600F232061022063806369494215
:10392000A18019800231198647311D835852183100
:103930005A5275325C399952183201319952183203
:1039400001319952183201319952083518329D527D
:10395000023118329952183201319952183201311C
:103960009952183201319952183201319952183254
:10397000013199520B4B0C49DC6001303562FFF785
:1039800045FC01210320FFF70BFC084B1D60A8E755
:10399000F40F0020E43500200040054040000034D2
:1039A000FFFF100030340020E5350010386005407E
:1039B00000487047F40F0020F8B51F0008AB1B78D3
:1039C00004001600002B07D100F006FA32003B007D
:1039D000121A8B41002B51DB2269EFF3108C72B667
:1039E0001368002BFCD0BFF35F8F0223E15E2569D3
:1039F00000293ADB4B0060695B18DB00C218C35A30
:103A00006380BFF35F8F00232B608CF31088069BCD
:103A10009660D7601361079B5361538801335B0441
:103A20005B0C181C002B1ED083B250800804184376
:103A30002569EFF3108672B62B68002BFCD0BFF31C
:103A40005F8FA3881380A1802369BFF35F8F00225B
:103A50001A6086F31088237801329A400849E36897
:103A60005B181A60F8BD0120DEE7BFF35F8F00230B
:103A70002B608CF3108801204042F3E70020F1E72F
:103A80003C20000070B582B00092019301000269F1
:103A9000EFF3108472B61368002BFCD0BFF35F8F76
:103AA0000223C85E0D6900283FDB4A694300160007
:103AB0001B18DB00D218F35A4B80BFF35F8F002333
:103AC0002B6084F31088069B1361079B5361009B56
:103AD000019C9360D460538801335B045B0C1D1C14
:103AE000002B20D0ACB20304558023430D69EFF3C3
:103AF000108C72B62C68002CFCD0BFF35F8F8C88C2
:103B0000148088800A69BFF35F8F002010608CF3F7
:103B100010880A7801309040CA680849521810602D
:103B2000180002B070BD0125DCE7BFF35F8F0023F2
:103B30002B6084F31088013BF2E7C0463C20000074
:103B400010B543890A1493421ADD53009B18426949
:103B5000DB00D3180469EFF3108C72B62268002AD8
:103B6000FCD0BFF35F8F5A88090494B2090C8A42D3
:103B700008D00369BFF35F8F00221A608CF31088AE
:103B8000002010BD094A22435A8001230269837133
:103B9000BFF35F8F002111608CF310880278044915
:103BA0009340C268012052181360EAE70080FFFFCB
:103BB0003C20000040787047F0B5C64600B582B0A2
:103BC000040000F009F9FA2206000F00200000238B
:103BD0000021920001F05EFE8019794104000D1E63
:103BE00002DA01242E4D644206267642F717361972
:103BF0006F41AF4214D811D000F0EEF832003B0014
:103C0000121A8B41002B15DC002B46D02000290016
:103C100000F022F902B080BCB846F0BDA642EBD954
:103C20000026002700F0D8F832003B00121A8B4122
:103C3000002BE9DD00F0D0F832003B00121A8B4176
:103C4000002B0ADB00230193164B32000093164829
:103C50003B00FFF717FF0130D8D000233900B046F2
:103C60009C46124A1248536A994204D8966A4645BD
:103C7000CCD29942CAD10668EFF3108772B6336886
:103C8000002BFCD0BFF35F8F0368BFF35F8F6646E6
:103C90001E6087F3108820BFE5E7002AB6D0C9E789
:103CA000FFFFFF7FB5350010F40F002000400540F6
:103CB000E4350020F0B5CE46474680B504000D003F
:103CC00085B0EFF305868946002E10D036490020D6
:103CD0004B6AAB4206D38A6A5B1B591E8B41A242D8
:103CE0004041184305B0C0BCB946B046F0BD2F4FA7
:103CF000FB683A7898461800039200F065F8039A3A
:103D0000131D42469B009B5822001B1A9C462B0009
:103D1000121A8B419E4210DC0DD020BF224A002097
:103D2000536A4B45DED3926A5B1B591E8B41A242FC
:103D300040411843D6E79445EFD900F04DF82200F2
:103D40002B00121A8B41002B1BDB00230193184B15
:103D50002200009338002B00FFF794FE002810DDAE
:103D6000114B5A6A4A451CD39B6AA34217D30100E0
:103D70003800FFF7E5FE0C4A0020536A4B45B1D3EB
:103D8000D1E7094A0020536A4B45ABD30020926A21
:103D90005B1BA24240415A1E93411843A2E74A4589
:103DA000E5D120BFE3E7C04600400540F40F002006
:103DB000B535001010B5024A0248FFF737F910BDBB
:103DC0003CDE0010DC2E00200300416A0A00986AE5
:103DD000596A8A42FAD17047034B596A0A00986AB5
:103DE000596A9142FAD170470040054070B505000C
:103DF0000E00184A536A1900946A536A8B42FAD12A
:103E0000200019002C00350024184D41AB4216D873
:103E100013D0104B2A005B6A9D4203D90D494B6AAF
:103E20009342FCD3934207D10A4A02E0516A994275
:103E300002D1916AA142F9D370BDA042E9D9054BE4
:103E40005B6A1C005A1CEFD0012201246442E51772
:103E50005242E3E700400540064A536A9942FCD8C3
:103E600007D1044B02E05A6A914202D19A6A904209
:103E7000F9D8704700400540F8B5040006200D0051
:103E800000F0D8F9002843D0364B3749E3185A1EC2
:103E9000934180225B429B0D12049B059B18334A81
:103EA0001360334A136018000A689043FBD12D4B0E
:103EB000304AE31859424B4180215B0049000620FB
:103EC000995200F0B7F92900C00000F063FC0130FE
:103ED000C3091ED1402701226262A362266BF30749
:103EE00022D4E36A244B0620E51800232B602663C6
:103EF00000F0A0F93900800000F04CFC7023E26A69
:103F00005A400E3313402B601C4B23630323A364DE
:103F1000F8BD1B4A93421DD900231A4A1A4F626208
:103F2000A362266BF307DCD5184B144AE3181A601A
:103F3000656AA36A0620AD01ED1800F07BF914490B
:103F400000F028FC0100A80200F024FC0021FFF78B
:103F50004DFFC6E740069A01800E17181A000300AD
:103F6000BAE7C0460080FCBF08C0004000E0004047
:103F700000F00040F83500202C1000000103000084
:103F8000FEFF0000FFFF0000C0FF3F0030300000D8
:103F90004E0E00000539013AF8B5D2004C0105007B
:103FA0001443002B06D0013B5A4253419B0023434C
:103FB00002241C432E6BF30708D46E23EA6A624086
:103FC00013400E4AAA1813602E63F8BD0C4B0D4A1D
:103FD000EB181A606B6AAA6A9B0106209F1800F012
:103FE00029F9094900F0D6FBBF020100380000F0B2
:103FF000D1FB0021FFF7FAFEDFE7C0462C100000DE
:1040000030300000010300004E0E0000F8B5066BD2
:1040100004000D01F30708D4E36A5D4010231D403E
:104020000D4BE3181D602663F8BD0C4B0C4AC318FA
:104030001A60436A826A9B0106209F1800F0FAF812
:10404000084900F0A7FBBF020100380000F0A2FB06
:104050000021FFF7CBFEDFE72C100000303000001E
:10406000010300004E0E0000F8B5DE464E46454600
:104070005746E0B505008B4618000A99914600F0B6
:1040800089FB0A9B6C001E026419304BA400E418E3
:10409000636880469E4200D966602F1FFBB29A4635
:1040A000012B2FD9C0238022294FAD009B017959C4
:1040B0001201E3181A6000291BD14B4622685B01EC
:1040C0005340E022134080225201A218136053464D
:1040D000012B2FD9802380229B01E31812011A6043
:1040E000434666607B51F0BCBB46B246A946A0463B
:1040F000F8BD786900F04EFB013043001B18033B0C
:10410000FDD2DAE75B46012BCCD1C02303229B0111
:10411000E3181A60023AA3681A42FCD04A462368A0
:1041200052015A40E023134080225201A218084F46
:104130001360AD0058460323216841400B401360D3
:1041400001228240A3681A42FCD0C3E700800040ED
:10415000E02E0020F0B5D6464F464646440098462D
:104160002418324BA400E41863688A469146C0B50F
:10417000FF2B02D880235B006360061FF6B2012E7E
:104180002FD9C02380222A4F85009B017959120123
:10419000E3181A6000291BD14B4622685B0153408B
:1041A000E022134080225201A2181360012E30D960
:1041B000802380229B01E31812011A6080235B0098
:1041C000636043467B51E0BCBA46B146A846F0BDA9
:1041D000786900F0DFFA013043001B18033BFDD281
:1041E000DAE75346012BCCD1C02303229B01E3180D
:1041F0001A60023AA3681A42FCD04A462368520168
:104200005A40E023134080225201A218084F136045
:10421000850050460323216841400B401360012272
:104220008240A3681A42FCD0C2E7C046008000402A
:10423000E02E0020014B8000C0587047E02E002087
:10424000F0B5C646040000B52348160098460D0098
:1042500000F0A0FA0100300000F09CFA4346069AF4
:104260001B04120313439C4623680600002B22DB29
:104270001A4B1B48E218531E9A4180235242120BDC
:104280009B011203D218174B1A60174B1A601300C8
:1042900001688B43FBD12122144B2560E318A660F3
:1042A0001A602268002AFCDA6246E26008221A607C
:1042B00080BCB846F0BD3F2322681340AB42D7D143
:1042C000A3681B051B0D8342D2D1EE22E368D20204
:1042D00013406345CCD1EBE7001BB7000040FDBFA6
:1042E00008C0004000E0004000F000400430000042
:1042F000024B1A68024B5A607047C04608340020CF
:1043000000800540194B1A4A10B5DA618022194B1A
:10431000D2051A60184C194A146000290AD0E0220C
:10432000174BD2041A60002809D18022144B1206C0
:104330001A6010BDE022D2041A600028F5D04301B3
:104340001B1A9B001818802300015B04984209D2B5
:1043500003000C4A13608022044BD2055860084BBE
:104360001A60E6E7084B1800F3E7C04600800540F6
:104370002131B76A00B00540FCFF01000820014070
:1043800000A0054008340020FFFFFF0010B5802486
:104390001C4BE4051C6000281AD001231A4C18435A
:1043A0001A4BDC611A4C44401C62596298628021AD
:1043B000144BC9051960174817490860E021C90462
:1043C0001960002A07D18022144B12061A6010BD12
:1043D0000E4BD861EBE753019B1A9B009A18802380
:1043E00012015B049A4209D213000D490B60074B7E
:1043F0005A608022094BD2051A60E8E7094B1A007F
:10440000F3E7C04600B00540D3C007B000800540C8
:104410002D3FF84FFCFF01000820014000A005409F
:1044200008340020FFFFFF008023024A9B000B435B
:10443000D362704700800540002310B50100988AC0
:104440001B8B984710BDC046162310B50100188875
:104450005B88984710BDC046F8B54746CE4680B544
:104460000F1E18D01423994604330400002501269A
:1044700098464B461888434621681B88984701C4D4
:10448000431E984101350640AF42F2D13000C0BC16
:10449000B946B046F8BD0126F8E7C046002370B51E
:1044A00004000D00988A05491B8B984703000020E3
:1044B000002C01DB0130A040290098475542000044
:1044C000AA23064A1B0113608D235B00D3600449B5
:1044D000044B19605368002BFCDA7047004002401F
:1044E00000B0FA00006002407047C04610B50148B5
:1044F000FEF784FD60DE001070B5074D074EB54233
:1045000009D20024013E761BB608013608CD0134DD
:104510009847B442FAD170BD98D80010D4D8001092
:10452000054B064A06491A60064A074B1A601000F6
:104530000B689843FBD1704700E00040BFCDFBFE05
:1045400008C00040FE7F3C0000F00040044BDB6CE4
:10455000002B03D18022034BD2021A607047C04661
:10456000000011504C201150044A054B1A60054AB6
:104570001368DB018033FBD17047C046FFFFFF01AA
:1045800000F0004008C000404022034B9A675A6781
:104590001A67DA667047C04600F0014010B5FEF7B2
:1045A000CDFD10BD70B52849284D294E6D1AAC10AF
:1045B0002200302C00D930223000920001F0D2FCD1
:1045C000BC2D3DD823002A3B224A052B1DD9302083
:1045D00075196D07A446001BEB0F002D03DA611C53
:1045E0008C46A1007250C01AE3189B004108F318D2
:1045F000C900C9181A605A6008339942FAD10123D8
:1046000003421DD0984360440400A300F250631C91
:104610002F2C15D09B00F250A31C2E2C10D09B00E9
:10462000F250E31C2D2C0BD09B00F250231D2C2CA0
:1046300006D09B00F250631D2B2C01D09B00F25042
:10464000054B9E6070BDC04600010010C001001007
:1046500000000020C101001000ED00E0002310B5B3
:10466000294C82B0A367FFF72BFF0122274B1A606A
:10467000636C012BFCD10322254B1A60224A936BF9
:10468000012BFCD1013300930121224A224804333B
:10469000FFF7D6FD052301210093204A2048FFF7AC
:1046A000CFFD0022022104201E4BFFF753FD002204
:1046B000012105201C4BFFF74DFD002200210720A2
:1046C0001A4BFFF747FD002200210820174BFFF788
:1046D00041FD8023DB000093002200210920134BC1
:1046E000FFF7C2FC0022104B00210620FFF732FD2D
:1046F0000420FFF79FFD0E4900F04CF80100002058
:10470000FFF792FE02B010BD008000403CB00040B8
:1047100030B00040002F685900800240008C86476E
:1047200000C00240001BB70040597307006CDC0258
:1047300040420F0001480421014B1847101000208F
:1047400059440010124A936F9B0815D29066D166A7
:10475000002905D0FFE7FFE7FFE7516F106F7047B3
:1047600004B580210906C2175140002800D0C84373
:1047700009F052F8002104BDF0B5146E556E576F64
:10478000166FFFF7E3FF1466556657671667F0BDAF
:10479000000000D0114A936F9B0813D21066516637
:1047A000002905D0FFE7FFE7FFE7516F106F704763
:1047B00004B5002801D00020C04309F02DF80021E5
:1047C00004BDC046F0B5146E556E576F166FFFF7F7
:1047D000E5FF1466556657671667F0BD000000D008
:1047E00094464A4A926F9208624601D228E0C04637
:1047F000F0B5464E346E756E776F366F00F020F868
:104800009446424A14665566576716676246F0BD7D
:1048100094463E4A926F9208624601D254E0C046E6
:10482000F0B53A4E346E756E776F366F00F04CF817
:104830009446364A14665566576716676246F0BD59
:10484000002B24DB11D000293EDA00B5C9434042D9
:1048500000D1013100F038F8C943404200D10131A4
:10486000DB43524200D1013300BD002AEBD10028C6
:1048700001D1002905D00020C90FC90701D1C043CB
:10488000410800B508F0B8FF0022002300BD00B5C4
:1048900000290ADBDB43524200D1013300F014F857
:1048A000C943404200D1013100BDC943404200D15B
:1048B0000131DB43524200D1013300F005F8DB4304
:1048C000524200D1013300BD002923D1002B18D161
:1048D000002A0CD0BC460D4F38667A6600210023B2
:1048E000FFE7FFE7FFE77A6F386F674670470028FA
:1048F00001D00748010000B508F07EFF0022002328
:1049000000BD02000B00002000217047000000D015
:10491000FFFFFFFF002B00D0BFE0130C28D1002ABF
:10492000E7D080B4114F39667A66FFE7FFE730B40D
:10493000040C7B6F396F1B0423433B667A66FFE7E9
:10494000FFE7FFE7C04684B27B6F3D6F1B04234344
:104950003B667A66FFE7FFE7C04600232C042D0C78
:104960007A6F386F00196941B0BC7047000000D001
:10497000F0B594460025140E01D112020835140F2B
:1049800001D112010435940F01D192000235D40FE8
:1049900001D152000135D40B0134254F7C66254CE2
:1049A0003C660E0C93B2FFE7FFE7FFE73C6F664300
:1049B000360C7703BE467343DF0B5B04C01AB94164
:1049C000130C7343DB18C91ACE086643360CB64481
:1049D00093B273431F0F1B01C01AB941130C7343E9
:1049E0001F0B1B05C01AB941860D8F023E4366435B
:1049F000360C092D24DB520A7243801A7703460ACB
:104A00006643360C16235B1BDE40DF40BF1964464D
:104A10006643821B7046043506330100D940A84026
:104A2000C01900D30131A24206D20023F0BD00001C
:104A3000000000D0FFFFFFFF121B0130F3D3F1E7AE
:104A400009277F1BFE406446A2B27243801A00D23F
:104A50000139220C7243130C1204821A99410B0083
:104A60007046043513370100F940A840801900D37F
:104A70000131002B02D1A2420AD2F0BD013000D395
:104A80000131121BFAD2013BF8D1A24200D2F0BD93
:104A9000013000D30131121BF7E7F0B51C0C00D038
:104AA00080E00CB400251C0A04D11B02160E33430F
:104AB000120208351C0B04D11B01160F33431201DF
:104AC00004359C0B04D19B00960F334392000235B2
:104AD000DC0B02D192185B4101351C009718644130
:104AE0000134464F7C66464C3C660E0CFFE7FFE700
:104AF000FFE7C0463C6F6643360C7703BE4697B26D
:104B00007743C01B00D20139C01B00D201399FB2CC
:104B10007743C91BC91B170C77437E04FF0B801B0F
:104B2000B941CE086643360C0C2D33DBB644120B6C
:104B30001F053A431B0B97B27743C01B00D20139C4
:104B40009FB27743C91B170C77433E043F0C801B71
:104B5000B941860D8F023E43664329277F1BFE40E5
:104B60000C3D7746AF40BF1930BCA2B2ABB2724326
:104B70007343801A9941220C7243130C1204801A59
:104B8000994102000B000137001BA941F9D2781EA0
:104B90000021F0BD0C277F1BFE4077467F0BAF4006
:104BA000FF19E0E700245D1C07D0144F7D663966CD
:104BB000FFE7FFE7FFE7FFE73C6F95B29EB2654373
:104BC0006643401BB141150C1E0C65436643360419
:104BD0002F0C3E432D04401BB141994204D20200E8
:104BE0000B0020000021F0BD01D19042F7D3801AC4
:104BF000994101349942F2D3F6E70000000000D059
:104C0000FFFFFFFF48404140484018B41B4B5B6822
:104C1000FC46019308BD04DF774F001018B4174B12
:104C20001B68FC46019308BD00DF814F00109446CD
:104C3000134A926F920809D2624618B40F4BDB6890
:104C4000FC46019308BD0CDF395200100C4AF0B548
:104C5000146E556E576F166F6246FFF7EEFF084AE7
:104C60001466556657671667F0BD18B4034B9B680A
:104C7000FC46019308BD08DFDD500010401B0020FA
:104C8000000000D0FFB550404240504059404B40DA
:104C9000594000E0FFB5154F4C00640D03D0BC42F5
:104CA00004D10C0314D80020090D09055C00640D23
:104CB00003D0BC4204D11C030AD800221B0D1B05E3
:104CC00001264B4009D44B4003D58B4200D1824290
:104CD000FFBD9942FCD19042FFBD0B43DB1803435B
:104CE0001343F5D0C9434918FFBD0000FF0700007A
:104CF00000B5FFF7CFFF01D0002000BD012000BDAF
:104D000000B5FFF7C7FF804100BDC04600B5FFF703
:104D1000C1FF01D9002000BD012000BD00B5FFF793
:104D2000B1FF01D9002000BD012000BD00B5FFF793
:104D3000A9FF804100BD012040054A00121804D897
:104D40005A00121801D80020704701207047000057
:104D50000021002805D17047C1174840401AFAD0F9
:104D6000C90713B5064B1B6898470CBC441CA240EE
:104D70001005120B0349091B09051943114310BD06
:104D8000E03500201F04000010B54C00620D8023A8
:104D9000D218DB00D21A5B057E2A10DD9E3A13DAA8
:104DA000CC170903490819435242D1406400013429
:104DB0001532202A05DAD0400843604310BD002098
:104DC00010BD0846604310BDC80FC018013810BDA3
:104DD00018B4044B5B6AFC46019308BD24DFE95319
:104DE00000100000401B002018B4044BDB6DFC4693
:104DF000019308BD5CDFF55400100000401B00204B
:104E0000C94211D300B549004908002200F018F842
:104E1000002904D4002240428A41114600BD80216D
:104E20000906002000BD000018B4044BDB6EFC46F0
:104E3000019308BD6CDFF75300100000401B0020F9
:104E400018B4044B9B6FFC46019308BD78DF1354E4
:104E500000100000401B002018B4044BDB6FFC4620
:104E6000019308BD7CDF815400100000401B00202E
:104E700018B4044BDB6CFC46019308BD4CDF2D5687
:104E800000100000401B002018B4044B1B6DFC46B2
:104E9000019308BD50DFC95600100000401B0020E0
:104EA000132370B51D78012D19D014DD1F48FFF7AD
:104EB000CBFA06001E48FFF7C7FA1E4C80223100CD
:104EC000200001F04FF8022D2DD01B48FFF7B4FA57
:104ED0001A4B186070BD1A4B164CA364F5E7184BBB
:104EE000144C23606360A360E36023616361A3618A
:104EF000E36123626362A362E36223636363A36388
:104F0000E36323646364A364E36423656365A36567
:104F1000E36523666366A366E36623676367A36747
:104F2000E367A364D1E7064BA364CEE753440000D4
:104F300053460000401B00204C330000E0350020A9
:104F4000454F001007B5604601880A0A0230DF2A83
:104F5000FAD1C9B2820804D3028840880004104301
:104F600000E00068014A5050039007BD401B00203C
:104F70000FB403BC0CBCF0B50124E407634000E0AF
:104F8000F0B50C0DCF0F661E3605891B640503D3E3
:104F9000C943404200D30131640D03D0661CF60AB8
:104FA00007D0E41B00207F00791C89078912803C10
:104FB00024031D0DDF0F6E1E36059B1B6D0503D3ED
:104FC000DB43524200D301336D0D03D06E1CF60A51
:104FD00007D0ED1B00227F007B1C9B079B12803DAE
:104FE0002D032F1B661B58D4A446202E46DA2037EB
:104FF0001400BC401D00BD40F24033412A438018DC
:105000005941CB0F05D0C943C043002264425041EF
:10501000514162464D0D28D10D0D07D100281FD0FA
:10502000241940414941013A0D0DF9D0640006D3DD
:10503000013000D30131002C01D140084000013A79
:105040000BD4941CE40A04D112051144DB07194463
:10505000F0BDD907204B194300E0D9070020F0BD6F
:105060000029DDD1002CDBD1F0BD0132C60740089C
:10507000CD0728434908002EE1D0D9E73C2E29DA94
:10508000203E40371400BC4000D00124F2401443BD
:105090001A00BB401C43D317ACE7AC46202F08DAFC
:1050A00020360400B4400D00B540F8403941284393
:1050B000A5E73C2F0CDA203F40360400B44000D076
:1050C0000124F84004430800B1400C43C117EAE74B
:1050D00010001900002494E70000F07FF0B50C0DDB
:1050E000661E3605891BE60A6405640D02D0651C40
:1050F000ED0A04D0002001210905803C2403A446C8
:105100001C0D671E3F05DB1BE70A6405640D02D01A
:10511000651CED0A04D0002201231B05803C2403FA
:105120007740644497B484B296B27443070C7E43CC
:10513000150C6F4380B26843361802D30120000477
:105140003F183004350C00197D41844688B29AB26C
:1051500050430C0C62431F0C7C438EB27E43921969
:1051600002D301263604A4191604170C3618674119
:1051700001BC81B29AB25143040C62431B0C5C43E4
:1051800080B25843121802D30120000424181004DE
:10519000130C401863412D185E410020474106BCA6
:1051A00088B293B258430C0C6343120C544389B237
:1051B00051435B1802D301210904641819041A0C25
:1051C000091862416D1856410020474118BCF90288
:1051D000720D1143F0026A0D1043ED020A0D03D166
:1051E0006D1940414941013B124E9B1B7600B34271
:1051F0000ED26D0007D3013000267141664635435B
:1052000001D1400840001B05C918E4072144F0BD46
:105210000BDA013306D1013004D101314F0D01D039
:105220004908F2E7E1070020F0BD01363105002012
:10523000EBE70000FF030000F0B51C0D671E3F0503
:10524000DB1BE70A6405640D02D0661CF60A04D075
:10525000002201231B05803C2403D0252D060026B7
:10526000F6432E661E096E66CE0FF619B446490047
:105270004F0D02D07E1CF60A03D000200021403FD3
:105280003F033E1BB600B444013F7F05C91B4908DC
:105290002E6F013676089C02950D25437543ED135C
:1052A0007543AD1301356D10F603761B0CB4CC02BB
:1052B000450D2C43A2B2B3B25A43270C7B43350CA5
:1052C0006F43A4B26C431B1902D3012424043F1979
:1052D0001C041D0CA4187D4124196D41009A91B243
:1052E000ACB26143170C7C432B0C5F4392B25A4320
:1052F000A41802D301221204BF182204230C52184E
:105300007B41019C6C431B19520ED9010A43440195
:10531000A01A81B2B2B2514303145A43360C7343FC
:1053200087B27743D617D21900277E4136049B19DE
:105330001704160C7F185E417316ED18F301002652
:1053400080337541A90F06D16400690AE8055B0A3C
:10535000184309D22FE00422944480337541A90AEE
:10536000A8059B0A184326D3404149412404009ACA
:10537000019B0D005543641B4343E41A95B286B26A
:105380007543170C7E43030C5F4392B25A43B61821
:1053900002D301221204BF183204330C52197B418C
:1053A00052429C41002C02D400220130514140085D
:1053B000CA071043490802B06246D7079210084B4B
:1053C000D218084B9A4203D212058918C919F0BDA8
:1053D0000020002A01DC3900F0BD01331905F5E792
:1053E000FD030000FE070000002200B5203200F09F
:1053F00010F8080000BD002200B500F00CF8CA1734
:105400009A4200D100BDD8430121C907414000BDE7
:1054100000220B150AD410B5944600F0A7F8141416
:10542000013400DA0021CB17144C20470020002162
:1054300070476244343A0CD40C2A07DA04009140D5
:10544000904052422032D440214310BDD843D9432A
:1054500010BD203207D40C469440524220321141F4
:10546000D040204310BD0800C917203203D4524257
:105470002032104110BD1800190010BD3354001027
:105480004A00520D144BD21A13DDFF2A1EDAD20540
:10549000CB0FDB071A43C300400F0903490A084337
:1054A00010435B0001D301D0013070474308FBD2A9
:1054B000704702D0C80FC00770470A0312130132A9
:1054C000F8D1420F072AF5D1012200E0FF22C80FD0
:1054D00000028018C00570478003000000210A0008
:1054E000002104E000210A00C11704E0002200238B
:1054F00006E0C0460022CB1758405940C01A9941D7
:1055000030B5184CA21A002903D1010010D0002098
:10551000203A4C1512D104D2013A001849414C0DE1
:10552000FAD3114CA24204D212058918DB07C9181C
:1055300030BDD243520D00200021F5E703D4013ADB
:1055400000184941FBD50B324405C00A4D052843DC
:10555000C90A640003D0002460416141E1E7E0D35F
:105560004408F8E732040000FE0700000A0DCC0FE3
:10557000531E1B05C91A520503D3C943404200D329
:105580000131520D03D0531CDB0A07D0121B00203F
:105590006400611C89078912803A1203014BD21AF8
:1055A00070470000FF030000023225D40C2A1CDAE9
:1055B0001125AD1A0B002B41083207350600EE40CD
:1055C000904091403143F0CC63431A1500235A4177
:1055D000554356435743BF02F41276057619674187
:1055E000ED177F19801BB94170470C220020C917A5
:1055F000490001310905DBE70902030E19430002E6
:105600005342203208D40C0019419440D840204322
:1056100000225041514170470800C917203B2032F9
:10562000F1D500200021002270470000F0B5FFF7FF
:105630009DFF54A4FFF7B8FF002904DA204C214D48
:1056400000196941013A04B4012752A6002201233E
:105650009B0730CEB446001BA9410BD47E422036B6
:105660001D003D411C00B4401600FE403443624121
:105670006B4101E00019694166460137212FE8D1ED
:1056800085B29EB2754307147E43190C4F4384B212
:105690004C43F11736190024614109047F18340482
:1056A000310C64197941A40F8800204389178018B0
:1056B000594104BC52423E32FFF71DFFF0BD0000CD
:1056C0006BDE73F4FD855C2CF0B54F0050D27F1576
:1056D0004ED001374FD0FFF749FF04B44902C20D45
:1056E0001143400201272BA6B446002200237E422C
:1056F00020360D003D410C00B4400600FE4034430E
:1057000044414D41AE0F05D120002900664630CE00
:10571000121BAB410824A4440137212FE7D1890093
:10572000891012184B4180BC17A413CC0137784361
:1057300079437C434F05C912CD17C0196941A702AF
:10574000A415CD17C9196C41DD17801859416C415A
:105750003E22CD17AC4208D000090E07304309099C
:10576000260731432411043AF3E7FFF7C4FEF0BDE6
:1057700002490020F0BD02490020F0BD0000F0FF0A
:105780000000F07FAAB800006BDE1300A3EF0F004B
:1057900021170B00F34B98BFEC23F319D6104DCD16
:1057A000E3FB470E7AB9BC8ADBC18907CC542C02D3
:1057B0001846E103053083E7B029F8011E1FE08792
:1057C0004505FE00249E41ACA9807F0081176245FB
:1057D00015E03F00E610ABA902F81F0088584555B8
:1057E00000FE0F00C4AAA90A80FF07005645550114
:1057F000E0FF0300ABA92A00F8FF010045550500B2
:10580000FEFF0000AAAA0080FF7F0000551500E0FF
:10581000FF3F0000AB0200F8FF1F0000550000FE34
:10582000FF0F00000B0080FFFF0700000100E0FFFA
:10583000FF0300000000F8FFFF0100000000FEFF72
:10584000FF0000000080FFFF7F00000000E0FFFF7E
:105850003F00000000F8FFFF1F00000000FEFFFFF8
:105860000F00000080FFFFFF07000000E0FFFFFFC8
:1058700003000000F8FFFFFF01000000FEFFFFFF34
:105880000000000000000080000000000000004058
:105890000000000051434343C9188C46110C83B2E9
:1058A0004B4310B4040C614392B280B25043624344
:1058B0001C041B0C001910BC59411304120CC01815
:1058C00051416144704700004840414048400E4B00
:1058D0005B6818470C4B1B6818470C4A936F9B0872
:1058E00002D2094BDB681847F0B5146E556E576F3E
:1058F000166FFFF7F6FF054A146655665767166779
:10590000F0BD014B9B681847401C0020000000D0F0
:1059100007B548404140484001E0C04607B5420055
:10592000120E03D0FF2A03D1420218D8C00DC005C1
:105930004A00120E03D0FF2A03D14A020FD8C90D24
:10594000C9050122414005D4414001D5814207BD2E
:10595000884207BD0143491801D0C043001807BD64
:1059600000B5FFF7DBFF01D0002000BD012000BD26
:1059700000B5FFF7D3FF804100BDC04600B5FFF77B
:10598000CDFF01D9002000BD012000BD00B5FFF70B
:10599000BFFF804100BD01231B064200D21804D87E
:1059A0004A00D21801D80020704701207047491AD8
:1059B000002807D108467047C10FC90700D54042EB
:1059C000002817D0F44603B40B4B1B68984706BC5D
:1059D00081409E384042803107D20B0607D04900F3
:1059E000490AC0051043084360470130F8E7490AF7
:1059F0008902F5E770470000E035002041000A0EFB
:105A000080231B067E2A0BDD9E3A0BDAC11740026B
:105A1000400818435242D040490001314843704782
:105A200000207047C00FC01801387047C0420DD326
:105A300000B540004008002100F012F8002801D411
:105A4000404200BD8020000600BD0000034BDB6922
:105A5000FC4618471CDF015F00100000401C0020BE
:105A6000014B5B6A18470000401C0020054A1047A4
:105A7000C2179142FAD0044BDB6DFC4618475CDF3D
:105A8000CF5E0010B9590010401C0020034BDB6FA3
:105A9000FC4618477CDF195F00100000401C002006
:105AA000C11502D4054B9B691847C843FF2801D193
:105AB000C0077047C817C00570470000401C002091
:105AC000132310B51C781348FEF7BEFC012C0BD035
:105AD00004DD01008022104800F044FA0F48FEF770
