:020000041000EA
:1000000000B5324B212058609868022188439860DF
:10001000D860186158612E4B002199600221596106
:100020000121F02299502B49196001219960352056
:1000300000F044F80222904214D00621196600F024
:1000400034F8196E01211966002018661A6600F04E
:100050002CF8196E196E196E052000F02FF8012189
:100060000842F9D1002199601B49196000215960AB
:100070001A491B48016001219960EB211966A021F2
:10008000196600F012F800219960164914480160C1
:100090000121996001BC002800D000471248134993
:1000A000086003C880F30888084703B5996A0420EC
:1000B0000142FBD001200142F8D103BD02B5186610
:1000C0001866FFF7F2FF186E186E02BD00000240BE
:1000D000000000180000070000035F00212200005C
:1000E000F4000018222000A00001001008ED00E03C
:1000F00000000000000000000000000074B24E7A12
:1001000000200420F7010010C3010010C5010010F9
:10011000C1010010C1010010C1010010C101001097
:10012000C1010010C1010010C1010010C701001081
:10013000C1010010C1010010C9010010CB01001065
:10014000CD010010CD010010CD010010CD01001037
:10015000CD010010CD010010CD010010CD01001027
:10016000CD010010CD010010CD010010CD01001017
:10017000CD010010CD010010CD010010CD01001007
:10018000CD010010CD010010CD010010CD010010F7
:10019000CD010010CD010010CD010010CD010010E7
:1001A000CD010010CD010010CD010010CD010010D7
:1001B000CD010010CD010010CD010010CD010010C7
:1001C00000BE00BE00BE00BE00BE00BEEFF3058054
:1001D000103800BEF2EB8871D0150110F015011037
:1001E0003402001090A31AE700201F49086006C8D7
:1001F00081F3088810471D48006800282FD10DA4FE
:100200000ECC002902D000F012F8F9E71849194A7B
:10021000002000E001C19142FCD1174988471749ED
:1002200088471749884700BEFDE701C901C29A42C5
:10023000FBD37047F0150110C000002030160020DD
:10024000602B01100000042000000420602B01102E
:10025000001004200010042000000000704709482E
:1002600007F062FF0047000008ED00E0000000D04A
:1002700030160020102800204166001021100010C8
:10028000696700105756000006005250ABB3605328
:10029000C80A011006005250861C0302D80A011039
:1002A000060052505422A29DEC0A01100500525043
:1002B000DE65F468602B0110F8B5C04606480749B2
:1002C000091A8B10C90FC91810B5491003D0044B77
:1002D000002B00D0984710BD3016002030160020AB
:1002E00000000000054B10B5002B03D00449054861
:1002F00000E000BFFFF7E2FF10BDC04600000000B5
:100300002826002098F70010F0B5C6462F4800B503
:1003100009F054FC2E4BD024180098460CF006F837
:10032000032004F029FB022004F026FB0823240606
:100330006362043B002201210220A36204F00AFB55
:1003400009250827082605200021A66105F040F9A7
:1003500005200021676105F03BF963685B0702D463
:10036000013D002DEFD1D02404252406656205202F
:10037000A561002105F02CF9082305206361002107
:1003800005F026F965610520002105F021F94046B8
:1003900010490CF03BF80321022004F0C3FA0321BA
:1003A000032004F0BFFA00220121022004F0D2FA57
:1003B00000220121032004F0CDFA0A2005F076F98D
:1003C000054809F0FBFB80BCB846F0BD98F700106B
:1003D000400F0020A0860100B8F70010F0B5C64617
:1003E00000B584B01E000AAB90461F7804000D00D3
:1003F00005F0C4FA00230B9A80185941002902DA4B
:1004000001200749404202900391330042462900EF
:10041000200000970CF022F804B080BCB846F0BD74
:10042000FFFFFF7FF0B5CE46474680B585B09946C1
:10043000904606000F0005F0A1FA4A4604000D00A0
:100440000023A4185D410A48002D02DA0124094D59
:10045000644200233A00009331004346029403951E
:100460000CF020F805B0C0BCB946B046F0BDC0469F
:10047000400F0020FFFFFF7FF0B5D6464F464646AF
:100480006E4BC0B598460027180086B06C490BF03B
:10049000BDFF0321022004F045FA0321032004F0EC
:1004A00041FA00220121022004F054FA0022012125
:1004B000032004F04FFA0A2005F0F8F80323022283
:1004C0006049614809F062FC604BC24608249946C5
:1004D0000026B8466B465E7505F050FAFA220023F6
:1004E000D20080185941E5B2002902DA01205849AA
:1004F00040421522029003910123290050460096A4
:100500006A440BF0CFFF002817DB16272B006F443F
:10051000683B3E70012B53D92B00763B012B27D92A
:100520004C4A21004C4809F031FC3978002917D198
:10053000484609F043FB012398460134782CC9D181
:100540004746D046002F0FD0484609F037FB4046BB
:100550000BF0ECFE06B0E0BCBA46B146A846F0BDD2
:100560003E4809F013FCE3E73D4809F027FBEBE7C1
:10057000D0236A46D375FA23DB00019317220123A7
:100580002900504600936A44FFF728FF804601285F
:10059000C6D13220002105F01BF8FA23424639006B
:1005A0002800DB00FFF73EFF0128B9D13B782D4A38
:1005B000583BDBB2092BB4D82B4A9B009A58B0E7C2
:1005C00075236A46D375FA23DB00019317220123B2
:1005D0002900504600936A44FFF700FF8046012837
:1005E0009ED13220002104F0F3FFFA234246390065
:1005F0002800DB00FFF716FF012891D13B78702B14
:100600000AD00FD8122B0BD0184A682B00D188E7DC
:10061000112B03D1164A84E7164A82E7164A80E76F
:10062000164A7EE7732B07D0154AAF2B00D178E727
:10063000712BF3D1134A74E7134A72E7400F00207D
:10064000A086010030F8001038F8001040F90010C2
:10065000FFFFFF7FD4F7001060F8001070F8001063
:1006600080F8001028F80010C00D0110DCF7001011
:10067000FCF70010E4F7001020F8001008F8001054
:1006800014F80010ECF70010F4F70010F0B5454630
:10069000DE4657464E46E0B504000D0091B00029F5
:1006A00038D06B236A46938705F068F900231D4A0A
:1006B0001D4E80185941002902DA01201B49404291
:1006C0000023029003910FAA21000093300002330F
:1006D0000BF0C4FE6420002104F07AFF3B2308AA3B
:1006E000D37505F04BF900230E4A801859410029B3
:1006F00002DA01200D4940420290039108A98C467C
:100700000123172221003000009362440BF0A6FE63
:1007100001280DD0002011B0F0BCBB46B246A9465E
:10072000A046F0BD204E0000400F0020FFFFFF7FDD
:100730003220002104F04CFF05F020F90023DE4AAE
:1007400080185941002902DA0120DC494042002387
:100750000290039100932100300002330EAA0BF0A7
:10076000A1FE0228D6D13220002104F031FF6B46D1
:100770001F8F3D2308AAD37505F000F90023CE4A48
:1007800012184B41002B02DA0122CC4B524208A92D
:100790008C4602920393012317222100300000931C
:1007A00062440BF05BFE0128B4D13220002104F03A
:1007B0000FFF05F0E3F80023BF4A12184B41002B4E
:1007C00002DA0122BD4B5242029203930023210020
:1007D0000093300002330EAA0BF064FE022899D178
:1007E0003220002104F0F4FE6B461B8F08AA9846C5
:1007F0003F23D37505F0C2F80023AF4A12184B41CE
:10080000002B02DA0122AD4B524208A98C4602921B
:1008100003930123172221003000009362440BF060
:100820001DFE012800D075E73220002104F0D0FE23
:1008300005F0A4F80023A04A12184B41002B02DA5D
:1008400001229E4B52420292039300232100009307
:10085000300002330EAA0BF025FE022800D059E723
:100860003220002104F0B4FE08AB1B8B08AA0993C8
:100870004123D375904B08A98C46019399461722C2
:1008800001232100300000936244FFF7A7FD824658
:10089000012800D03EE73220002104F099FE4B46AB
:1008A000022220000EA9FFF7BDFD8346022800D0DA
:1008B00030E73220002104F08BFE08AB1B8B08AA26
:1008C00006934323D3754B4608A98C460193172200
:1008D00053462100300000936244FFF77FFD8246BB
:1008E000012800D016E73220002104F071FE5A469C
:1008F0004B4620000EA9FFF795FD8346022800D045
:1009000008E73220002104F063FE08AB1B8B08AA25
:1009100007934523D3754B4608A98C4601931722AC
:1009200053462100300000936244FFF757FD824692
:10093000012800D0EEE63220002104F049FE5A469C
:100940004B4620000EA9FFF76DFD8346022800D01C
:10095000E0E63220002104F03BFE08AB1B8B08AA26
:1009600008934723D3754B4608A98C460193172259
:1009700053463000210000936244FFF72FFD06002C
:10098000012800D0C6E63220002104F021FE4B46AB
:100990005A4620000EA9FFF745FD022800D0B9E60F
:1009A0006A46414640467BBA1385099B49BA5CBA00
:1009B000DBBA9846069B94845CBADBBA0693079B25
:1009C000518559BADBBA0793089BC0BA9485D18583
:1009D0005CBA0021DBBA05903220089304F0F8FDE0
:1009E00008AA128BFFBA53BAD2BA91466A46128D40
:1009F0006B812A806A46518D928C6980AA806A46F2
:100A0000928D3800AA816A46D18D2C81E98008F048
:100A1000E7FCE221890508F094FC071C2861059891
:100A200008F0DEFCE221890508F08BFC041C6861FB
:100A3000404608F0D5FCE221890508F082FC80469A
:100A4000A861079808F0CCFC1D4908F066FCE86135
:100A5000089808F0C5FC1A4908F05FFC286248466F
:100A600008F0BEFC164908F058FC6862069808F0C9
:100A7000B7FC144908F051FC134908F04BFC391C31
:100A8000A862381C08F05DFC211C071C201C08F023
:100A900058FC011C381C08F03DFC4146041C404633
:100AA00008F04FFC011C201C08F034FC08F00CFD81
:100AB000E86230002FE6C046204E0000FFFFFF7FB7
:100AC000000003435CEFA6430000A841F0B5DE46FA
:100AD00057464E464546E0B54E4B91B01B780393C2
:100AE000002B00D18CE000274B4B002602933B00EB
:100AF0005025B046B146B2469B46019604AC371C21
:100B000012E021006820FFF7C1FD00281AD1210062
:100B10006920FFF7BBFD002814D1013D0520ADB2CF
:100B200004F0C4FD002D36D030220021200008F052
:100B300065FF029B1B78002BE3D1200001F024FE0F
:100B40000028EAD02169301C08F0E4FB6169061C2A
:100B5000381C08F0DFFBA169071C484608F0DAFBE7
:100B6000E1698146404608F0D5FB216A804601983C
:100B700008F0D0FB616A0190504608F0CBFB5B4661
:100B8000013D01339BB28246ADB205209B4604F085
:100B90008DFD002DC8D15B46B3465646272B2FD975
:100BA000180008F01DFC041C011C584608F0B5FB99
:100BB0001A4D211C2860381C08F0AFFB184D211C71
:100BC0002860484608F0A9FBFE21890508F09FFB34
:100BD000144D211C2860404608F09FFB124D211C3B
:100BE0002860019808F099FB104D211C2860301CEA
:100BF00008F093FB01220E4D0E4B28601A7001E0A5
:100C000000230393039811B0F0BCBB46B246A9463B
:100C1000A046F0BD0628002007280020AC250020B3
:100C2000B0250020B4250020B8250020BC250020D8
:100C3000C0250020FE270020F0B5CE46474680B5EF
:100C4000794B87B01800794998460BF0DFFB0321F8
:100C5000042003F067FE0321052003F063FE002259
:100C60000121042003F076FE00220121052003F07B
:100C700071FE0A2004F01AFD052304226C496D4818
:100C800009F084F86C4B08240027994600266B462F
:100C90005E7504F073FEFA220023D20080185941D9
:100CA000E5B2002902DA012064494042152202908F
:100CB000039101232900404600966A440BF0F2FBA1
:100CC000002816DB16272B006F44683B3E70012B73
:100CD0005DD92B00763B012B23D9594A2100594875
:100CE00009F054F83978002913D1484608F066FF16
:100CF00001270134782CCAD1002F0ED0484608F0C5
:100D00005DFF40460BF012FB07B0C0BCB946B046D1
:100D1000F0BD4D4809F03AF8E7E74C4808F04EFFBF
:100D2000ECE7D0236A46D375FA23DB001722019340
:100D300001232900404600936A44FFF74FFB012836
:100D4000CBD13220002104F043FC04F017FEFA223C
:100D50000023D20080185941002902DA01203749C6
:100D6000404200230290039100933A00290040463C
:100D700001330BF097FB0128AFD13B78344A583B45
:100D8000DBB2092BAAD8334A9B009A58A6E77523F1
:100D90006A46D375FA23DB00172201930123290049
:100DA000404600936A44FFF719FB012895D1322091
:100DB000002104F00DFC04F0E1FDFA220023D20032
:100DC00080185941002902DA01201C4940420023C1
:100DD0000290039100933A002900404601330BF042
:100DE00061FB012800D078E73B78702B0AD00FD840
:100DF000122B0BD0184A682B00D16FE7112B03D1AF
:100E0000164A6BE7164A69E7164A67E7164A65E726
:100E1000732B07D0154AAF2B00D15FE7712BF3D1AD
:100E2000134A5BE7134A59E7480F0020A0860100E8
:100E300098F8001038F8001040F90010FFFFFF7F0D
:100E4000D4F7001060F8001070F8001080F800105F
:100E500028F80010C00D0110DCF70010FCF700109E
:100E6000E4F7001020F8001008F8001014F8001043
:100E7000ECF70010F4F7001010B5134808F09EFED0
:100E8000FFF7FAFAFFF7D8FE104911480BF0BEFA47
:100E90000321022003F046FD0321032003F042FD5D
:100EA00000220121022003F055FD00220121032030
:100EB00003F050FD03220221064808F067FF0648B0
:100EC00008F07CFE10BDC046A0F80010A08601000E
:100ED000400F0020C0F80010F0F80010F8B504280A
:100EE00000D190E0052824D0022863D003284BD1FC
:100EF000D02480254026240665614620A66104F0A2
:100F0000D5FBA561282004F0D1FB65614620A661D0
:100F100004F0CCFBA56180252820AD0104F0C6FBC0
:100F20004620656104F0C2FB1420A56104F0BEFBFD
:100F300029E0D0248025402624063C206661656196
:100F400004F0B4FB2820A661A56104F0AFFB3C20AF
:100F50006661656104F0AAFBA661A5618025282071
:100F6000AD0104F0A3FB3C20656104F09FFB1E2053
:100F7000A56104F09BFB3C20656104F097FB1E20FB
:100F8000A56104F093FBF8BDD0248027402680257E
:100F90002406BF01666123206561676104F086FB5A
:100FA0000A20A76104F082FB502004F07FFBA661B9
:100FB000A561E8E7D0244025802624066561462007
:100FC000A66104F073FBA561282004F06FFB656146
:100FD0004620A66104F06AFBA56180252820AD01AA
:100FE00004F064FB1920656104F060FB1420A56126
:100FF00004F05CFB1920656104F058FB1420A56126
:1010000004F054FBBFE7D024402680252406666107
:101010003C20656104F04AFBA661A561B3E7C046C8
:10102000F0B5DE46454657464E46E0B5EDB008F011
:10103000B9FEFA200025C00004F038FB674808F02C
:10104000BDFD674C200008F0B9FD01226549002371
:101050006548009508F09AFE200008F0AFFDD02406
:10106000072003F089FC8023240663620620A36125
:1010700003F082FC40230D206362A36103F07CFC3B
:1010800080239B0163620120A361FFF727FF57487C
:1010900008F094FDFFF7F0F9FFF7CEFD544808F093
:1010A0008DFD544B544918005F930BF0AFF90321A9
:1010B000022003F037FC0321032003F033FC00225D
:1010C0000121022003F046FC00220121032003F04D
:1010D00041FC494B03220221484808F057FEFFF724
:1010E00013F90120FFF7FAFE454808F067FD0220DA
:1010F000FFF7F4FE01F01AF9424B0C931870002828
:1011000001D100F0EEFF404B1C931D7001F0F0FC8C
:101110003E4B0100180008F039FE3D4B98465F9C9D
:1011200020000BF003F9C820002104F051FA3249E5
:1011300020000BF06BF90321022003F0F3FB0321E5
:10114000032003F0EFFB00220121022003F002FC48
:1011500000220121032003F0FDFB2E4808F016FEBB
:101160000320FFF7BBFE01F0EDFE2B4B0E93187032
:10117000002801D100F0D8FF284C200008F01EFD07
:10118000274808F003FE02F085F9002800D16EE33D
:10119000200008F013FD234808F0F8FD02F0DAFB08
:1011A000002800D163E3200008F008FD03F0B2F846
:1011B000FA211D48090108F0E9FD04F0DFFB0029D0
:1011C00001D100F0B7FFFA220023920007F044F8A3
:1011D0000700FA231B0199463EE0C0463CF9001087
:1011E00044F9001070F9001084F9001098F900100B
:1011F000B0F90010400F0020A0860100C8F90010CF
:10120000F8F90010062800200728002014FA001022
:10121000C425002080FA001004280020ACFB001038
:10122000B4FA0010FCFA001014FB0010FA2200239C
:10123000920007F011F8C01B484518D2D024402670
:10124000802524063C206661656104F02FFAA661C2
:101250008C20A56104F02AFA04F090FB0029E5D166
:10126000FA21890006F0BAFFC01B4845E6D30C9B63
:101270001B78002B01D000F064FF0E9B1B78002B25
:1012800001D000F074FFD02380221B069A61403AFF
:101290009A610520FFF722FEED4808F08FFC0C9BB9
:1012A0001B78002B03D00E9B1B78002B04D1E94840
:1012B00008F084FCFFF7E0FDE74808F07FFCE74D0D
:1012C000280002F035FEE64808F078FCE54B1800EF
:1012D0000D9303F093F9E44808F070FCE34808F03C
:1012E0006DFCE34808F06AFCE24B9946E24B179329
:1012F000E24B1A93E24B2193E24B3893E24B669315
:10130000E24B1293E24B3793E24B3993E24B6A93F1
:10131000E24B2B93E24B3193E24B3293E24B33930C
:10132000E24B3493E24B3593E24B3693E24B6B93B3
:10133000E24B1393E24B5B93E24B1E93E24B2493FD
:10134000E24B1593E24B1693E24B2393E24B279328
:10135000E24B5C93E24B0F93E24B1493E24B2893E6
:10136000E24B2993E24B2D93E24B2E93E24B2F93CA
:10137000E24B3093E24B2A93E24B9B46E24B1D93A8
:10138000E24B1093E24B1193E24B2693E24B2293F4
:10139000E24B4093E24B4193E24B4293E24B499341
:1013A000E24B4A93E24B6793E24B5D93E24B25930A
:1013B000E24B5E93E24B5093E24B3A93E24B2C9319
:1013C000E24B5193E24B6093E24B4393E24B5293D7
:1013D000E24B6193E24B5393E24B6893E24B699388
:1013E000E24B6493E24B6593E24B5993E24B5A9381
:1013F000E24B3B93E24B3C93E24B6393E24B6293B1
:10140000E24B3D93E24B3E93E24B3F93E24B4493DE
:10141000E24B4593E24B4693E24B4793E24B4893B2
:10142000E24B4B93E24B4C93E24B4D93E24B4E938A
:10143000E24B4F93E24B5493E24B5593E24B56935E
:10144000E24B5793E24B5893E24B2093E24B9A4680
:10145000E24B1F935B46D346CA46994653465146D4
:101460001A68531C0B60DE4B53430322D341DD4A01
:10147000934208D8280002F089FE02F089FE01009C
:10148000179808F083FC04F079FA002901D100F0E4
:101490002BFCFA220023920006F0DEFE04000C9BD7
:1014A0001B78002B08D1FA221A9BD2001B68E31A82
:1014B000934201D300F0CBFC129A1368E31A092B74
:1014C00000D8B8E00C9B14601B78002B40D01C9B0C
:1014D0001B78002B01D100F03AFC41466820FFF751
:1014E000D5F8002801D000F039FC41466930FFF7FB
:1014F000CDF8002801D000F031FC379A414613683E
:10150000682001331360219A138801331380FFF799
:10151000BDF8002801D000F0E3FC41466920FFF748
:10152000B5F8002801D000F0DBFC0C9B18701C9B68
:101530001870219B1B88022B01D900F0ACFDFA2208
:10154000399B52001B68E31A934201D300F098FDC7
:101550000E9B1B78002B01D000F05CFC0C9B1B78D1
:10156000002B04D0002142460D9803F05DF80D9F3A
:10157000380003F0CDF9061C380003F0CBF90C9BC2
:10158000021C1B78002B00D1DEE34346DB6A311CD2
:10159000280002F0E5FC280002F0F8FD1E9A060083
:1015A00013781B93984246D0249910700B78159AA3
:1015B000D05416989A0084500F2201331340239A76
:1015C0000B7013780F2B01D801331370300002F029
:1015D000DFFD0700686A07F06DFF43461890199118
:1015E000D86A07F067FF43460A900B91986907F0A5
:1015F00061FF434608900991586907F05BFF434635
:1016000006900791186907F055FF04900591286B23
:1016100007F050FF02900391A86A07F04BFF189A59
:10162000199B009001913900279808F0AFFB022E1A
:1016300001D100F036FC0F9B1B68E31AC72B00D9C1
:1016400077E3280002F0BAFD002800D053E3CBE096
:1016500010FC001034FC00107CFC0010182100204D
:10166000A4FC001054210020CCFC0010FCFC001055
:1016700014FD00101C26002034FD00100826002058
:10168000EE2700205CFD00107CFD00100C260020E1
:10169000202600200426002094FD0010FE270020B4
:1016A000AC250020B0250020B4250020B82500205E
:1016B000BC250020C0250020D0FD00100021002006
:1016C000F8FD0010580E00200A2800206C2700208A
:1016D0007C2700200928002024FE00107CFE00103A
:1016E000FC2500208021002098FE0010B0FE001094
:1016F000C4FE0010D8FE0010ECFE001018FF001011
:101700002CFF00101026002000260020F8250020C5
:101710005C0E002060FF0010CC0C011080FF001058
:1017200088FF001094FF0010A0FF0010ACFF001015
:1017300010000110240001103000011040F90010C9
:101740003C00011010F9001014F900105C000110A9
:1017500018F9001020F900108800011028F9001075
:10176000B800011000010110500101109401011096
:10177000DC010110F80101103C0201107802011097
:10178000600E002034F900102CF90010A80201109E
:10179000D0020110E0020110F40201102003011038
:1017A0002C03011050030110600301107403011099
:1017B0008403011094030110B0030110D803011039
:1017C000F403011008040110240401103004011076
:1017D00044040110AC0D0110F42500200128002064
:1017E000D578E9263789410004F0C8F8002900D1EE
:1017F00074E2FA220023920006F02EFD04004B460C
:101800001B68E31A632B13D94B461C600E9B1B7895
:10181000002B00D03EE3FA221D9B92001B68E31AC6
:10182000934205D32423149AD35C002B00D051E3B8
:1018300004F0A4F8002900D123E2FA220023920048
:1018400006F00AFD0400109B119A1B681268E31A47
:10185000934200D322E2002008F0A8FA431C35D0BE
:101860003F38372832D8229B80001B589F46D748E4
:1018700008F0A4F9D64808F0A1F98026D02505245F
:101880002D0632206E61013C03F010FFE4B23220DD
:10189000AE6103F00BFF002CF3D1FA20400003F0FF
:1018A00005FFEBE7D02480262406B60150206661B0
:1018B00003F0FCFE2820A66103F0F8FE50206661CC
:1018C00003F0F4FE2820A66103F0F0FE04F056F8C1
:1018D000002958D0FA220023920006F0BDFC040033
:1018E000280002F053FC0138C0B26422042802D858
:1018F000209B80001A585B461B68E31A93420CD366
:101900005B4601221F991C600B7853400B7000D17D
:1019100015E2D0237F321B065A616420002103F0B8
:1019200057FE9BE5449808F049F9459808F046F9B8
:10193000469808F043F9479808F040F9489808F0AD
:101940003DF94B9808F03AF94C9808F037F94D9862
:1019500008F034F94E9808F031F94F9808F02EF954
:10196000549808F02BF9559808F028F9569808F083
:1019700025F9579808F022F9589808F01FF903F054
:10198000FDFF0029A6D1FA21890006F027FC0400FA
:10199000A6E7280002F05CFCD02402F0C9FC4098C5
:1019A00002F00EFE0326802724066420676103F000
:1019B0007DFE8023013E6420A361F6B203F076FE33
:1019C000002EF2D182E73E9802F0FAFD0C9B1B78C4
:1019D000002B06D01C9B1B78002B00D17DE3FFF76A
:1019E00075F80E9B1B78002B00D045E30D9802F094
:1019F00093FF3F9802F0E4FD68E7499802F0E0FDAC
:101A000002F0D2FC280002F093FA0D9802F084FF55
:101A10005CE7FFF731FA59E701223C990B78534014
:101A20000B7000D0CDE2F4326399FF32119B3D98E8
:101A30001A6008F0ABF949E7280002F047FC02F011
:101A400087FC419802F0BCFD40E7509808F0B6F8DA
:101A50000C9B2C991B78002B00D03A990E9B2C9A4A
:101A60001B78002B00D03A9A519808F08FF91C9BF4
:101A700043991B78002B00D06099379B52981A68C5
:101A800008F084F92B9B2C9C1B78002B00D0619CC8
:101A9000319B186807F00EFD369B060018680F0092
:101AA00007F008FD08900991359B186807F002FDC2
:101AB00006900791349B186807F0FCFC0490059190
:101AC000339B186807F0F6FC02900391329B18686C
:101AD00007F0F0FC3B000090019132002100539888
:101AE00008F054F90C9B1B78002B00D070E20E9B81
:101AF0001B78002B00D09FE22423149CE35C002B76
:101B000000D15AE2206807F0D5FC637D06000893F7
:101B1000E0680F0007F0CEFC06900791237D049348
:101B2000A06807F0C7FC02900391606807F0C2FC50
:101B30003200009001913B00649808F027F92800DA
:101B400002F024FB02F024FB0400686A07F0B2FCF8
:101B50000600286B0F0007F0ADFC02900391A86A05
:101B600007F0A8FC32003B00009001912100599839
:101B700008F00CF9686907F09DFC3623EB5C060061
:101B80000293A8690F0007F095FC3B0000900191BB
:101B900032005A9808F0FAF80D9B2C9C9B7E002B83
:101BA00000D03A9C0D9E306907F084FC0B00318B0D
:101BB000020000913B98210008F0E8F886E6429880
:101BC00002F0FEFC02F0DEFB80E6C046CCFB00101B
:101BD000CCFA0010280002F0D9FA02F0D9FA040079
:101BE000686A07F067FC0600A8690F0007F062FC4E
:101BF0000A900B91686907F05DFC08900991E8690B
:101C000007F058FC342306900791EB5C0493286B93
:101C100007F050FC02900391A86A07F04BFC3B00D0
:101C200000900191320021004A9808F0AFF8239B00
:101C30001B78002B00D1C7E11F1C082B00D90827F7
:101C400000245D9808F0A2F81895249DFFB22B7827
:101C5000013B1B1B00D5103316999A008E58159A1C
:101C60000134D05C02F094FA31000200259808F0AB
:101C70008DF8E3B2BB42EAD35E98189D07F09EFF51
:101C800024E6FA21890006F0A9FA0400109B119AB3
:101C90001B681268E31A934200D2DCE5109B28000F
:101CA0001C6002F073FA02F073FA139B1890F1496A
:101CB000586807F032FB07F0FDFB06000D980F0097
:101CC00002F026FE07F0F6FB0096019702900391C2
:101CD000189A2100269808F059F8BCE5FA218900E5
:101CE00006F07CFA04008AE5FA21890006F076FA0B
:101CF0000400FFF7D4FB289807F060FF299802F052
:101D00005FFC02F02FFB002800D199E0280002F0D0
:101D1000FDFA2D9807F052FF2E9802F051FC280092
:101D200002F034FA02F034FA01002A9808F02EF892
:101D30005AE50F9B14981C6001F0F0FD81E4D0235C
:101D400080221B069A61E8E5FE239B051FE44046BE
:101D500000F01AFD002801D1FFF7CFFB0023219AE4
:101D600013802B9B1B78002B01D1FFF7F1FB319BDC
:101D700019684346186907F0CAFA42461061329A58
:101D8000189011684246506907F0C1FA4246506106
:101D9000339A071C11684246906907F0B8FA424628
:101DA0009061349A061C11684246D06907F0AFFA78
:101DB0004246D061359A11684246106A07F0A7FA88
:101DC00042461062369A11684246506A07F09FFAFE
:101DD000424618995062081C07F0B3FA391C189053
:101DE000381C07F0AEFA011C189807F093FA311C62
:101DF000071C301C07F0A5FA011C381C07F08AFAF2
:101E000007F062FB4346D8620E9B1B78002B01D182
:101E1000FFF7A4FB139801F009FA002800D1C6E0EF
:101E20000E9A0C9B12781B78002A01D1FFF796FBC3
:101E300000221399002B01D1FFF796FBFFF793FBCC
:101E40002F9807F0BBFE309802F0BAFB67E71A9BA9
:101E5000414668201C60FEF719FC00282DD1414640
:101E60006930FEF713FC061E27D100F05FFA002848
:101E700001D1FFF721FB01230C9A669813701C9B7C
:101E80001E70219B1E8007F099FE322000F086FD17
:101E9000FFF712FB42462800149B139902F08EFABA
:101EA000B9E41B9B022B01D1FFF7C5FB02F040FAFE
:101EB0005C9807F083FEFFF7BEFB01230C9A38986D
:101EC00013701C9A13700023219A138007F076FE7A
:101ED000FFF7F2FA100002F011FB1D9B1C60A7E453
:101EE00001231C9A13700023219A13802B9B1B78CB
:101EF000002B4CD0319B19684346186907F007FA4C
:101F000043461861329B061C19684346586907F01E
:101F1000FEF943465861339B071C1968434698698C
:101F200007F0F5F942469061349A189011684246DC
:101F3000D06907F0ECF94246D061359A1168424603
:101F4000106A07F0E4F942461062369A1168424678
:101F5000506A07F0DCF94246311C5062301C07F031
:101F6000F0F9391C061C381C07F0EBF9011C301C79
:101F700007F0D0F91899061C081C07F0E2F9011CBB
:101F8000301C07F0C7F907F09FFA4346D862FA22DF
:101F9000399B52001B68E31A934201D2FFF7D8FA2B
:101FA000399B6B981C6007F009FEFFF7D1FA0E9B76
:101FB00018705B9807F002FE32E7659807F0FEFDA7
:101FC000BDE53222629931E5679807F0F7FD7DE4BF
:101FD0004346186907F06EFA43460600986A0F00F8
:101FE00007F068FA43460A900B91586A07F062FAC4
:101FF000434608900991186A07F05CFA4346069038
:102000000791D86907F056FA4346049005919869FC
:1020100007F050FA434602900391586907F04AFAD4
:102020003B00009001913200689807F0AFFE0E9BD4
:102030001B78002B00D15FE5139C206807F03AFA6B
:102040000600E0680F0007F035FA04900591A068DB
:1020500007F030FA029003910649606807F05DF9D5
:1020600007F028FA3200009001913B00699807F0D0
:102070008DFE41E50000C842142001F099F9B5E455
:10208000399B6A981C60379B1A68219B198807F056
:102090007DFEFFF75DFAFEF737F95F9E30000AF02C
:1020A00045F9C820002103F093FA300043490AF0B3
:1020B000ADF90321022002F035FC0321032002F0D8
:1020C00031FC00220121022002F044FC0022012107
:1020D000032002F03FFCFFF732FA642000F05EFCC0
:1020E0007DE4374B682019009846FEF7CFFA0028A8
:1020F0000FD141466930FEF7C9FA002809D13148AD
:1021000007F05CFD304807F059FD304B1C93FFF79A
:1021100006F801230C9A2E4813702C4A1C92137057
:1021200007F04CFDFEF7FBFF2A4807F047FD2A4C5D
:10213000FFF726F8FA21890006F050F80700FFF7AC
:1021400048F8264807F03AFD0220FEF7C7FE1C9B20
:102150001B78002B28D0224807F030FDFEF7B6FC94
:1021600000281CD01F4807F029FDFFF786F81E48FD
:1021700007F024FD0320FEF7B1FE142001F018F94A
:10218000002801D1FFF77FF801F00CF907F092F970
:1021900002000B00154807F0F9FDFFF774F814482A
:1021A00007F00CFDFFF769F8642000F0F7FB00284A
:1021B000D1D0104807F002FDCDE7C046A08601004F
:1021C000C425002028FA00103CFA0010072800203F
:1021D00058FA001098FA0010ACFB001034FB001005
:1021E00070FB001090FB0010D4FB0010ECFB001003
:1021F000B0FB00104CFB0010F0B557464546DE46DC
:102200004E461723E0B587B06B44984618700523F7
:102210009A46424B57469B4600259246404E414CBB
:1022200004913378994603F0A9FB0019694100290C
:1022300002DA01203C4940420123029003914246C8
:102240004946584600930AF009F9012829D064202C
:10225000002103F0BDF93378994603F08FFB001994
:102260006941002902DA01202F49404200230290EF
:102270000391009342464946584601330AF0EEF86E
:1022800001282FD0C8200021013F03F0A1F9002F21
:10229000C7D1002007B0F0BCBB46B246A946A04655
:1022A000F0BD3220002103F093F93378994603F012
:1022B00065FB00196941002902DA01201A494042F0
:1022C0000023029003910093494653465846049ACE
:1022D0000AF0E8F88245BAD16420002103F078F9C9
:1022E0000120D7E76420002103F072F93378994682
:1022F00003F044FB00196941002902DA01200A4970
:1023000040420023029003910093494653465846A9
:10231000049A0AF0C7F88245B4D1DDE7400F0020E7
:10232000610E0020A8610000FFFFFF7FF0B5DE46D0
:1023300057464E464546E0B58DB004AA944617234D
:1023400063449B4600235A4613706246D34B642075
:10235000138303F0ABF9D24807F030FC0AAB0693C5
:1023600068239946CF4B00279A46CF4BCF4E079311
:102370005346CA4699460A230593752304AA137740
:10238000052003F093F900230525984603F0F6FA9B
:1023900080197941002902DA0120C5494042012310
:1023A000029003910093514648460BAA0AF056F852
:1023B000012834D0C820002103F00AF903F0DEFA26
:1023C00080197941002902DA0120B94940420023ED
:1023D0000290039100935146484601330BAA0AF03C
:1023E0003DF80400012800D1A9E0C8200021013DEA
:1023F00003F0EEF8002DC9D1434622005146AD4806
:1024000007F0C4FC322003F051F9059B013B059312
:10241000002B00D1F8E0069B1B789A46ADE73220EE
:10242000002103F0D5F803F0A9FA801979410029B9
:1024300002DA01209E49404200230290039100935A
:102440005A465146484601330AF02CF88046012886
:10245000B0D15B461A78702A00D165E100D98AE0D4
:10246000122A00D1A3E0682A00D114E1112A00D079
:102470009FE0914B5146079807F088FC5B461A781D
:10248000732A00D988E0672A00D8A9E011008B4B95
:102490006839C9B2CB40DB07B4D54B46D1469A4622
:1024A000702A00D148E100D8A8E0732A00D140E1A9
:1024B000712A00D046E1712381494C4681480526A6
:1024C000047080468048002502704A467F4807F025
:1024D0005DFC0A2003F0EAF86B236A4693858023AB
:1024E0001B0699465746714C43461B789A4603F0A3
:1024F00045FA00196941494502D301206C4940421F
:1025000000230290039100935146380002330BAA36
:1025100009F0A4FF02284ED0C8200021013E03F09C
:1025200057F8002EE0D16A4807F048FB002420004D
:102530000DB0F0BCBB46B246A946A046F0BD642033
:10254000002103F045F803F019FA801979410029B8
:1025500002DA012056494042002302900391009381
:102560005A4651464846013309F09CFF80460128EF
:1025700000D03AE76DE7732A17D0AF2A00D1D1E037
:10258000712A16D14E4B5146079807F0FFFB5B4668
:102590001A78732A00D876E7AF2A00D032E74B4684
:1025A0004C49D1469A46AF2387E74B4B62E74B4BEA
:1025B00060E74B4B5EE70021642003F009F86420DC
:1025C00003F074F802223B200BA9FFF715FE041E4E
:1025D0005DD06B46998D4348C9BA07F0D7FBA6E793
:1025E0001300113B012B00D90CE74B46D1469A460C
:1025F000122A00D0B3E0122338495EE7682A00D1DE
:1026000094E01300364958E704A91A228C46069B29
:10261000624401330693934200D090E05B46324817
:10262000197807F0B3FB314C200007F0C7FA3048A7
:1026300007F0C4FA5B462F48197807F0A7FB2E482D
:1026400007F0BCFA200007F0B9FA5B461B78602B54
:102650007BD0200007F0B2FA284807F0AFFA2848EC
:1026600007F0ACFA274807F0A9FA274807F0A6FABE
:10267000264807F0A3FA03220221254807F086FB2B
:10268000244807F09BFA244807F098FA4EE72348BD
:1026900007F094FA4AE7224BECE6C046686900006E
:1026A000A8040110400F0020FC040110A8610000E4
:1026B000FFFFFF7FD0040110FCF70010010B0000AA
:1026C000ECF70010610E0020FC27002078070110B5
:1026D000A807011014F80010F4F7001008F8001013
:1026E000A0040110CC0701102405011040F90010CE
:1026F00050050110700501108805011050060110E9
:102700005C0601109C060110D4060110FC060110A5
:10271000140701103807011058070110F4070110C1
:10272000DCF700100F4BA5E60F4BA3E668230F491B
:10273000C3E673230E49C0E670230B49BDE61B7840
:102740009A4618E672230B49B7E60B4807F036FAAB
:102750000A4807F033FA0A4807F030FA79E71123FC
:102760000849AAE614F80010E4F70010DCF700109E
:10277000F4F70010A0040110C8050110EC050110C9
:1027800020060110FCF70010F0B5DE4657464E4615
:102790004546E0B5040087B0002800D1F4E002AD62
:1027A0000E2229003B20FFF727FD002800D185E0FD
:1027B000764B28881A8840BA801A00B220806E882A
:1027C0005A8876BAB61A36B26680AF889A887FBAC7
:1027D000BF1AEA883FB251BAD2BAA780A181924605
:1027E0002A89D98852BA521A12B2E28090466A896E
:1027F000198952BA521A12B29146AD8922815B8967
:102800006DBAED1A2DB2658106F0EAFDE221890567
:1028100006F097FD83462061300006F0E1FDE221DD
:10282000890506F08EFD061C6061380006F0D8FDB3
:10283000E221890506F085FD071CA061404606F0EF
:10284000CFFD534906F069FDE061484606F0C8FD3A
:102850004F4906F062FD2062280006F0C1FD4C4998
:1028600006F05BFD6062504606F0BAFD494906F08D
:1028700054FD494906F04EFD5946A062584606F0FF
:1028800060FD311C051C301C06F05BFD011C281C82
:1028900006F040FD391C051C381C06F052FD011CD9
:1028A000281C06F037FD06F00FFEE062012007B09D
:1028B000F0BCBB46B246A946A046F0BD01AD02221F
:1028C00029003B20FFF798FC00285DD00222290058
:1028D0003D202F88FFF790FC002855D002222900C8
:1028E0003F202E88FFF788FC00284DD02B8802223D
:1028F000290041209B46FFF77FFC002844D02B880D
:102900000222290043209A46FFF776FC00283BD09C
:102910002B880222290045209846FFF76DFC0028ED
:1029200032D02B880222290047209946FFF764FC09
:10293000002829D053465ABADBBA9A46134B78BAC4
:10294000198876BA401A00B2208059882D88761AE4
:10295000594636B266804FBA9988A28142467F1A9C
:102960003FB2A780D98852BA521A12B2E28090467A
:102970004A46198952BA521A12B222815B896DBA3B
:10298000ED1A91462DB23EE7002090E73016002068
:10299000000003435CEFA6430000A841F0B5DE460B
:1029A000574645464E46E0B54F4F8BB00690040063
:1029B0000C220021380007F021F80025002C00D15E
:1029C0008DE0002309AC9A46994698469B460193B0
:1029D0000293079749E023880222DBBA21003D20B9
:1029E0000393FFF709FC002846D023880222DBBAB4
:1029F00021003F200493FFF7FFFB00283CD02388F1
:102A00000222DBBA210043200593FFF7F5FB0028E3
:102A100032D02688022221004520F6BAFFF7ECFBCF
:102A2000002829D02788022221004720FFBAFFF77B
:102A3000E3FB002820D00399029A8C46624402925C
:102A4000049A05999446E3448C46019A238862448B
:102A5000DBBA0A209A440192013502F027FE069B58
:102A6000ADB2B044B944AB420ED0022221003B20AB
:102A7000FFF7C2FB0028AED100200BB0F0BCBB4674
:102A8000B246A946A046F0BD190002981E0005F006
:102A90007DFB310085B2584605F078FB000431001B
:102AA0000543019805F072FB104B3100C4184046F5
:102AB00005F06CFBA4B2000431000443484605F065
:102AC00065FBB04606B24146504605F05FFB079FE6
:102AD00000B278813D6001207C603E81CDE7C0245A
:102AE000002000262402F4E73016002000C0FFFF7B
:102AF000104B1B78702B16D007D8122B11D0682BD7
:102B00000DD0112B13D10C487047732B0DD0AF2B68
:102B100003D0712B0BD10948F6E70948F4E70948BF
:102B2000F2E70948F0E70948EEE70948ECE7094809
:102B3000EAE7C046FC270020FCF70010ECF7001085
:102B400014F80010DCF7001008F80010E4F700108B
:102B5000F4F70010A00401105F4BF0B51968DE46D1
:102B60000A00CB17012157464E46454683465B482F
:102B7000494212184B41E0B5100089B01900140009
:102B80001D0006F0A7FB564E804601960822B05E57
:102B90002B0022008A46C1170294039506F09AFB87
:102BA000030D0F031F43019B06030A21585E424693
:102BB0005346C11706F08EFB0B06040A1C430D1288
:102BC0008021A4197D410020019E090200230019E3
:102BD0006941F28806F07EFB4B10CF1799463B43C4
:102BE00000D176E01023F05E42465346C11706F04E
:102BF00071FB059104900E23F05E029A039BC117AE
:102C000006F068FBC40B4B04234342040498059967
:102C100012184B4180245946029203936403641AAC
:102C20006508E117E0070C24325F0024C907294337
:102C3000D500029A039BA4185D410023001BA94103
:102C4000284A06F047FB4A463B0005F0EDFA07919B
:102C50000690069E079FFB04740B1C43019B7D138B
:102C60001622985E22002B00C11706F033FB2200CB
:102C70002B0006F02FFBCB01440E32001C433B001F
:102C8000019E4D161421705EA4185D41C11706F017
:102C900021FB4F03C20CCB143A4312196B411906A6
:102CA000140A1D121222B35E0C43DE171A0F3101F3
:102CB000114318010019694106F0EEFBEE21890568
:102CC00006F03FFB09B0F0BCBB46B246A946A046A1
:102CD000F0BD0020F6E7C046C4270020000CFEFF30
:102CE00034200020350C0000F0B54E46DE46574635
:102CF0004546D023E0B589B002AAD375CD3B9A46AC
:102D0000434B814600269B460025424C059102F02C
:102D100035FE00196941002902DA01203E4940428E
:102D20000290039102A98C46012317224946584676
:102D30000093624409F092FB012831D002F01EFE9C
:102D400000196941002902DA01203349404202900A
:102D5000039102A98C460023172200934946584646
:102D60000133624409F07AFB8046012832D06420A6
:102D7000002102F02DFC01235B429C46E2445346B5
:102D8000002BC4D1330042464946244806F0FEFFDA
:102D9000002009B0F0BCBB46B246A946A046F0BD33
:102DA00002F0ECFD00231B4A12184B41002B02DA03
:102DB0000122194B52420292039300234946009389
:102DC0005846059A013309F06DFB06000128B5D17C
:102DD0000120DEE73220002102F0FAFB002702F09A
:102DE000CDFD0C4E36184F41002F02DA01260A4F56
:102DF0007642002302960397009349465846059A67
:102E0000013309F04FFB06000128B0D10120C0E7D3
:102E1000400F0020204E0000FFFFFF7F2808011018
:102E2000F0B557464E464546DE461723E0B587B017
:102E30006B449846187001233E4D8B4691460324FF
:102E40009A462F003C4E357802F098FD00233B4A0D
:102E500080185941002902DA01203949404253467D
:102E6000029003910093424601232900380009F0A3
:102E7000F5FA012826D0357802F080FD00232F4A8C
:102E800080185941002902DA01202D4940420023CF
:102E9000029003910093424629003800013309F063
:102EA000DDFA012828D064200021013C02F090FBCB
:102EB000002CC8D1002007B0F0BCBB46B246A946E2
:102EC000A046F0BD357802F059FD00231B4A80185A
:102ED0005941002902DA0120194940420023029099
:102EE000039100935A464B462900380009F0DAFA5C
:102EF0008145C0D10120DEE73220002102F068FBCD
:102F0000357802F03BFD00230C4A80185941002916
:102F100002DA01200A494042002302900391009303
:102F20005A464B462900380009F0BCFA8145BAD10F
:102F30000120C0E7400F0020620E0020204E00005C
:102F4000FFFFFF7FF0B5DE4657464E46454600235D
:102F5000E0B58FB007AC210076202370FFF7C4FEE8
:102F6000002804D02378602B1DD0582B54D0002388
:102F7000210077202370FFF7B7FE002805D02378C3
:102F8000602B00D1C7E0582B4FD07722762197488D
:102F900006F0FCFE002528000FB0F0BCBB46B24690
:102FA000A946A046F0BD924B984676234246137040
:102FB00060231A008F4904938F4B904805931A7031
:102FC00006F0E4FE8E4B032523808E4B00279B46A4
:102FD00080231B069A468C4E43461B78994602F086
:102FE000CDFC80197941514502D3012087494042E7
:102FF0000023029003910093220049465846023371
:1030000009F02CFA022812D064200021013D02F0C0
:10301000DFFA002DE0D1BDE77623754A7C491370B5
:103020005823904604931A00C6E71F33F5E70A2099
:1030300002F03CFB02AB13269C460A2566440122A3
:103040003100F320FFF7ECFE0028A3D0012002F0AE
:103050002DFB3378DB0702D5013D002DEFD11A227D
:1030600021008820FFF7DCFE002893D0694E079BE3
:103070000A993360089B0B9A099873600C9BB060A7
:10308000F16032617361637E07222100E1203376B3
:10309000FFF7C6FE051E00D17CE70F22238873834D
:1030A000A37873762379E1781A4009010A43B28341
:1030B00062791B0912011343F3832023A279F2548E
:1030C000049B602B53D0544B4746238080231B0620
:1030D00003269946A8463D7802F050FC00234A4A50
:1030E00080185941494502D30120484940420023F4
:1030F000029003910093220029005846023309F000
:10310000ADF902280DD064200021013E02F060FAE2
:10311000002EE0D13EE7364B9846772342461370A7
:1031200046E73E4B0326238080231B0699463D78C5
:1031300002F024FC0023344A80185941494502D347
:103140000120324940420023029003910093220063
:1031500029005846023309F081F9022830D0642052
:103160000021013E02F034FA002EE0D112E7F923EB
:103170005B00238080231B06474603269946804632
:103180003D7802F0FBFB00231F4A80185941494556
:1031900002D301201D494042002302900391009375
:1031A000220029005846023309F058F902281AD0A3
:1031B00064200021013E02F00BFA002EE0D1E9E686
:1031C000059B45461B78582B0AD00A49602B08D12D
:1031D000134B009302221023124806F0D7FDDAE6C3
:1031E0000B49114BF5E74546B8466CE760080110FE
:1031F000620E00209004011005280020A008011094
:10320000E0B6FFFF400F0020204E0000FFFFFF7FD1
:103210008804011034200020F5100000F45700004D
:1032200054080110B808011038020110F0B5CE465C
:10323000474680B5040083B0002806D008226946BE
:10324000F720FFF7EDFD051E06D10025280003B08D
:10325000C0BCB946B046F0BD6B461E785B783603FD
:103260001B011E436B469B78464F1B091E436B4652
:10327000DA781B7912031B011A436B4659793B8894
:10328000090911431209D21AC9105B00C91A022098
:103290003B5E52434B43DB1299460420395E1213C6
:1032A0004A43921391444A46374B900048441A606F
:1032B000803006F095F8354906F02FF82060300090
:1032C000FFF74AFC324B061C1B786060582B57D026
:1032D0006A46D1881C203A5E49BA89B212052D4B44
:1032E0008903891A1E203A5E4B445A43891A802268
:1032F000D201944680221202614494462022787EB4
:10330000BA5658435A438023C0129B0360449C46DC
:10331000921242431A203B5E92126244534380222F
:10332000920194466344C9139B134B43DA135243EF
:10333000397ED2114A4312119B1ADA43D217134035
:10334000C8225205934219DC181306F049F8EA2105
:10335000890505F0F6FF104BA0601968301C05F0D8
:10336000DCFF0E4906F0D6F9011CFE20800505F0B1
:10337000CEFF0B4905F0E5FFE06067E71300E3E7E8
:103380000020E8E734200020C42700200000C846C1
:103390000528002000D4FEFF640E002001DE423E1E
:1033A000002A2D47014B18687047C046640E002064
:1033B000F0B54546DE4657464E46E0B5804683B0FA
:1033C00000285AD02F4B002500266C4699462E4FD8
:1033D00008222100F720FFF723FD002806D103B0C3
:1033E000F0BCBB46B246A946A046F0BD6378207843
:1033F0001B0100031843A37822791B091843E378C3
:1034000012011B0313436279398812091A431B09FD
:103410005B1A5B434900D2108446521A0220395E7F
:103420001B134A430420395ED2124B439B13D2181C
:103430004B4660461A60FFF78FFB8246134B0135FF
:1034400019689B4605F069FF114906F063F951467A
:10345000301C05F05FFFADB2061C322002F026F9E9
:10346000A845B5D1404605F0BBFF011C301C05F056
:1034700054FF5B4618600120B1E7044B00269B46D1
:10348000F0E7C046C427002034200020640E00204E
:1034900001DE423E962110B5134C8901200002F056
:1034A00073FD0221042001F03DFA0221052001F004
:1034B00039FAC022236B120213400C4A2000136019
:1034C00008210023012202F027FE2000012102F042
:1034D00061FE28220021064806F090FA0022054BE2
:1034E00001201A8010BDC046008003403090034088
:1034F00068200020F0270020F0B54646D6464F460B
:10350000C64DC0B5C64C2E8800271022C5498B6910
:103510001A421DD110008B6918401A42FAD10B686B
:10352000DBB2242B0ED0FE2E1AD90A2BEFD1002F9E
:1035300000D02E80BA4F3B78242B18D000230026D1
:103540002B80E1E723808B69012701261A42E1D015
:10355000002F00D02E80E0BCBA46B146A846F0BD90
:10356000771CBFB2A3553E00E0550127DDE72A21B5
:1035700038000AF0DDFB0028E0D07B1C984200D820
:10358000C0E10222591C5242521A411A092900D89C
:10359000BAE1BB787E785E40FB785E4013181A0073
:1035A000910889007A1899469046B4463B0000225B
:1035B0005E68043372409845FAD16646130456405B
:1035C0001B0E5E4013021B0E5E40130E4A465E4009
:1035D000954BF6B2CB188A4231D01A7856405A1C15
:1035E00090422CD95A7856409A1CF6B2904226D96D
:1035F0009A785640DA1C904221D9DA7856401A1D42
:1036000090421CD91A7956405A1D904217D95A79BE
:1036100056409A1D904212D99A795640DA1D90422E
:103620000DD9DA7956401A000832904207D91A7A31
:1036300056401A000932904201D95B7A5E4010224E
:10364000002101300AF068FBC0B2B04200D075E73B
:10365000764B1A78472A6BD01A78522A00D06DE739
:103660005A784D2A00D069E79B78432B00D065E754
:10367000002398466E4B380019009A460AF01CFC4D
:10368000061E00D15AE76B4F19E0022B41D0072BE1
:103690000BD1300008F02AFFC022674B120605F05C
:1036A00008F805F0FFF8634EF06001239C46514690
:1036B0000020E0440AF000FC061E00D13EE743462D
:1036C000082B2ED0E1DD092BEFD130000AF05AFC97
:1036D0000528EAD9F421C9008C463378303B9A009A
:1036E0009B1872785B00303A9B187B76B378303B3E
:1036F0009A009B18F2785B00303A9B18BB763379BE
:10370000303B9A009B1872795B0062449B18BB8324
:10371000CBE73378474A413B59424B41242153542C
:10372000C3E7300008F0E2FE05F0BCF83861BCE702
:103730005A78472A90D19A78412A8DD10023984609
:103740003B4B380019009A460AF0B6FB002800D11E
:10375000D0E03A4F01239C4651460020E0440AF055
:10376000ABFB061E00D1C5E04346092BF2D89B00F7
:10377000FB589F46300008F0B9FE05F093F82D4E37
:10378000B060E7E7300008F0B1FE05F08BF8294E95
:103790003062DFE7300008F0AFFE264B1875D9E73E
:1037A000300008F0A9FE234BC0B25875421E90416C
:1037B00024229854CEE73378572BCBD180210906A9
:1037C0008C461C4A536863445360C3E730000AF0D8
:1037D000D9FB032800D891E0300008F087FE05F0FF
:1037E00061F81749814605F098FD05F01BFE0600BB
:1037F0006420704305F0F4FD011C484605F087FD88
:10380000104905F08AFD8146300005F0E9FD011CF4
:10381000484605F07FFD074B58609BE7F0270020E6
:1038200060260020008003406426002063260020DC
:10383000E808011068200020CAA1FD3FE80D011032
:103840000000C842000070423378532B00D081E75B
:10385000802109068C462D4A13686344136079E77A
:1038600030000AF08FFB03284AD9300008F03EFEF2
:1038700005F018F82649814605F04FFD05F0D2FD08
:1038800006006420704305F0ABFD011C484605F0BE
:103890003EFD204905F041FD8146300005F0A0FDC8
:1038A000011C484605F036FD184B186052E7300001
:1038B0000AF068FB052800D84CE73378134A303B00
:1038C00099005B1871785B0030395B189375B37899
:1038D000303B99005B18F1785B0030395B18D37589
:1038E0003379303B99005B1871795B0030395B1894
:1038F00013762FE70122084B1A701FE600208AE793
:103900000020D1E700269AE6002666E6682000201F
:103910000000C84200007042FB27002070B5040080
:10392000FFF7EAFD002C0FD0084B1878002800D1D3
:1039300070BD2200064B62CB62C232CB32C232CBA8
:1039400032C21B681360F3E70020F1E7FB27002079
:1039500068200020F0B5C646042100B50E2000F016
:10396000E1FF002407232B4D2B4E052033602C60F4
:1039700002F0A4FD294904F031FC05F02CFD071CE0
:1039800005F082FDC3B21800984605F029FD011C20
:10399000381C05F0BCFC8321C90505F0D2FC05F0FC
:1039A00073FD434636681B01C0B21843B3001C4A7E
:1039B0009B199B009E181B4A70601B4932612A6844
:1039C0008C46511E8A41802149010F006344174DE6
:1039D00018685242554028401F4338603068884676
:1039E00084460120614688434146314308601049BE
:1039F0000C7010490978002907D00F491B680A404C
:103A0000F532FF3253401D403D60012080BCB84676
:103A1000F0BDC046582000206827002040420F001B
:103A2000000005401F4E00000C000540FFFF000095
:103A3000FA270020FD2700200CFEF30110B5031C1F
:103A4000B42800D9B4231549DAB20B70144B1B7893
:103A5000002B1ED0134B50011B68801A9C00E418E9
:103A6000114B80009C468018B421A40000016444DE
:103A700004F0B4FB0D4BF5301B68FF3080B2002B17
:103A800008D10B4A236843401A4080235B0123433B
:103A90001A6010BD074A0004F4E7C046FA27002068
:103AA000FD270020682700200C000540582000203A
:103AB000FFFF00000000FFFF0122144B10B51A7039
:103AC000134BB4211B689C00E418124BA4009C46C5
:103AD000114B64441B785801C01A8000C0180001C3
:103AE00004F07CFB0D4BF5301B68FF3080B2002BDF
:103AF00009D00B4A0004236843401A4080235B012D
:103B000023431A6010BD074AF5E7C046FD27002091
:103B1000682700200C000540FA27002058200020CC
:103B20000000FFFFFFFF0000F0B5D6464F464646B7
:103B3000C0B5010086B0002860D01422684605F0A8
:103B400063FFD5236A465B001380434A0025138830
:103B5000424C591C11806A465380009B019A694669
:103B60005A40029B497C5A40039BE9465A406B46A7
:103B70001B7C4B406946897C4B4011045340090E25
:103B80004B401102090E4B40120E53406A46D3744B
:103B900001F0F4FE24184D41002D58DB00232027AE
:103BA0009A462F4EB3691F422ED001F0E7FE220045
:103BB0002B00121A8B41002BF4DC01D1002AF1D129
:103BC000D04601F0DBFE0025244C24184D41002D89
:103BD00039DB2026224FBB691E4224D001F0CEFEE5
:103BE00022002B00121A8B41002BF4DC01D1002A99
:103BF000F1D11C4914221C4806F0C8F806B0E0BCFC
:103C0000BA46B146A846F0BD0123534498465246F1
:103C10004B469A5CB3691F42FCD143463260142B79
:103C2000CFD0C246BEE720210D4A93691942FCD18C
:103C30000A2313604346142BDBD10C4A0C4913882A
:103C400001331380D6E701240A4D6442C1E7012401
:103C5000084D6442A2E7C046F4270020E093040028
:103C600000400340F0080110F8080110F22700207E
:103C700028F90010FFFFFF7FF0B5D6464F464646B5
:103C8000C0B5010086B0002858D01522684605F05E
:103C9000BBFE6A46404B00251380404A404C1388C7
:103CA000E946591C11806A465380009A019B534093
:103CB000029A5340039A5340049A53401A0419023B
:103CC000120E5A40090E4A401B0E53406A461375A5
:103CD00001F054FE24184D41002D58DB002320270D
:103CE0009A46304EB3691F422ED001F047FE2200A3
:103CF0002B00121A8B41002BF4DC01D1002AF1D1E8
:103D0000D04601F03BFE0025254C24184D41002DE6
:103D100039DB2026234FBB691E4224D001F02EFE42
:103D200022002B00121A8B41002BF4DC01D1002A57
:103D3000F1D11D4915221D4806F028F806B0E0BC57
:103D4000BA46B146A846F0BD0123534498465246B0
:103D50004B469A5CB3691F42FCD143463260152B37
:103D6000CFD0C246BEE720210E4A93691942FCD14A
:103D70000A2313604346152BDBD10D4A0D491388E6
:103D800001331380D6E701240B4D6442C1E70124BF
:103D9000094D6442A2E7C046AA030000F4270020B0
:103DA000E093040000400340F00801101C090110DA
:103DB000F227002028F90010FFFFFF7FF0B5D6465C
:103DC0004F464646C0B5050088B0002873D001AB09
:103DD0001B20994602220021684405F00FFE4A4646
:103DE0004A4B13804A4A1388591C11804A46538013
:103DF00001F0C4FD002964D0FA220023920004F0EF
:103E00002BFA04004B4629000F2203A85C600AF03D
:103E100025F8019B039A63405340049A00255340C0
:103E2000059A3C4C5340069A53401A041902120E4C
:103E30005A40090E4A401B0E53404A46137601F081
:103E40009DFD24184D41002D02DA0124324D6442BB
:103E5000002320279A46314EB3691F4247D001F014
:103E60008DFD22002B00121A8B41002BF4DC01D1B6
:103E7000002AF1D1D04601F081FD0025254C2418FF
:103E80004D41002D02DA0124234D64422026234FA8
:103E9000BB691E421BD001F071FD22002B00121ADB
:103EA0008B41002BF4DC01D1002AF1D11C491922ED
:103EB0001C4805F06BFF08B0E0BCBA46B146A84606
:103EC000F0BDFA21890004F089F904009AE7202165
:103ED000124A93691942FCD10A2313604346192BF5
:103EE000E4D1114A1149138801331380DFE701231C
:103EF0005344984652464B469A5CB3691F42FCD1E4
:103F000043463260192BB6D0C246A5E7AA0200008C
:103F1000F4270020E0930400FFFFFF7F00400340F0
:103F2000F00801103C090110F227002028F90010C8
:103F300010B53C220021040005F060FD01F01EFDDB
:103F4000002907D0FA220023920004F085F960606E
:103F5000E06010BDFA21890004F040F9F7E7C0469F
:103F6000F8B54746CE4680B504000D1C171C01F07D
:103F700005FD00295AD0FA220023920004F06CF9C2
:103F800080463523E25C2678002A32D10132656111
:103F9000E2544346E360012E33D9A36A6562E362CB
:103FA000FE239B052363236AA762291C181C9946DC
:103FB00005F0FEF9002816D02562042E0FD8684BB4
:103FC000B6009B599F460123238001F0D7FC0029AE
:103FD0005ED0FA220023920004F03EF96060C0BC7B
:103FE000B946B046F8BD042EF9D85E4BB6009B59D1
:103FF0009F46012ED1D84246E368D31A5A4A9342CB
:10400000CBD878005949400805F0D2F90028C4D02F
:104010006369281C9946191C05F079F9544905F083
:1040200090F9494605F076F96061B6E7FA21890012
:1040300004F0D4F88046A4E76369281C9846362328
:104040004146E65C05F063F9FE21890505F0BEF9FD
:10405000002805D04749381C05F0B8F9002863D17D
:10406000002EBCD0013EF6B23623E654042EB6D95B
:104070004346382223610023A5612562A354013AF7
:10408000A3540333FF33238001F078FC0029A0D12F
:10409000FA21890004F0A2F86060A0E73649281CE4
:1040A00005F086F900289AD078003449400805F0D8
:1040B0007FF9002893D042466368D31A304A93426E
:1040C00000D88CE72F4B238001F058FC0029DFD06B
:1040D0007FE74846291C05F079F9002806D0BF2162
:1040E000381C090605F064F9002822D13823E35C66
:1040F000062B00D873E74346A3602378E56163701D
:104100000323237001F03AFC0029C1D061E7342376
:10411000E35C002B00D162E7C1239B00238001F008
:104120002DFC0029B4D054E7FF2EA1D00136F6B201
:104130009AE74346A360144BE561238001F01EFC1F
:10414000002906D0FA220023920004F085F860606E
:10415000CCE7FA21890004F041F86060C6E7C04668
:10416000100E0110240E0110871300008FC2F53DC0
:104170000AD7233CCDCC4C3E0000A0409A99993EF2
:10418000B80B00000504000003020000007870472F
:10419000062801D902487047024B8000C058FAE750
:1041A0005C090110380E0110037802220020023B46
:1041B000DBB29A424041C0B27047C046342370B56A
:1041C000C35C0400002B01D0002070BD01F0D6FBC1
:1041D00000291DD0FA220023920004F03DF8237834
:1041E000032B1CD0022BEFD11549206A05F0EEF805
:1041F0000028E9D01349606A05F0DAF80028E3D016
:10420000C021A06A090605F0D3F8431E9841DCE7F7
:10421000FA21890003F0E2FF2378032BE2D1A5689D
:10422000451B952DD0D90849A06A05F0C1F80200B8
:10423000531E9A41054BAB429B4158421043C4E781
:104240000000A0410000AF439A9999BE0F270000DB
:10425000037810B50400012B00D010BD3522815C1D
:1042600000291ED0626A34212261A26122620022EA
:10427000625402316254023162546370022323702B
:1042800001F07CFB002905D1FA21890003F0A6FF8B
:104290006060E2E7FA220023920003F0DDFF606035
:1042A000DBE7416A4161835401F068FB002907D0D4
:1042B000FA220023920003F0CFFF2378E060D1E7D9
:1042C000FA21890003F08AFFF7E7C046037810B5AA
:1042D0000400022B00D010BD00233622835402328A
:1042E0008354094B038001F049FB002905D1FA21D1
:1042F000890003F073FF6060EDE7FA22002392006B
:1043000003F0AAFF6060E6E7010200003423012207
:10431000C254704710B5FFF71DFB0020FFF78EFB5E
:10432000FFF7CAFB0022014B1A7010BD08280020BD
:1043300010B5064C2378002B00D010BD0020FFF7ED
:104340007DFBFFF7B9FB01232370F6E70828002067
:10435000034B1A78012A01D100221A707047C04617
:104360000828002010B5064C00202378012B06D821
:104370000223237001F002FB03230120237010BDF0
:104380000828002010B5FFF797FB5A20FFF756FBCF
:10439000FA20800001F08AF90020FFF74FFBFA2095
:1043A000400001F083F910BD10B50020FFF746FB77
:1043B0000022014B1A7010BD08280020F0B58FB004
:1043C00009AD04000F001422002128001E0005F092
:1043D00015FB01F0D3FA002900D182E0FA22002374
:1043E000920003F039FF68602000FFF7CFFE3F49DD
:1043F0002872606A04F0A5FF05F014F82D2283B23C
:104400006A441B0A107053703949A06A04F099FF7E
:1044100005F008F82F2283B26A441B0A107053700B
:104420003449206B04F08DFF04F0FCFF312283B28D
:104430006A441B0A10705370002F0DD02B49386846
:1044400004F07FFF04F0EEFF3322FF2183B26A44C1
:1044500008401B0A10705370002E01D0337D6B741E
:1044600000232000AB74FFF79FFE002803D0012239
:10447000AB7C1343AB743423E35C002B03D00222E8
:10448000AB7C1343AB74002E07D02423F35C002BCA
:1044900003D00422AB7C1343AB742800FFF744FB2A
:1044A00020006F68FFF772FEFFF772FE3423E35CB3
:1044B00006000693206B04F0FDFF04900591A06AAE
:1044C00004F0F8FF02900391606A04F0F3FF0A4DD4
:1044D0000090019132003900280005F057FC0FB020
:1044E000F0BDFA21890003F079FE7CE7000020414D
:1044F0000000C84200007A449C090110F0B5040095
:104500008DB0002803D02423C35C002B01D10DB053
:10451000F0BD06AD15220021280005F06FFA01F06C
:104520002DFA002941D0FA220023920003F094FED4
:104530006860206804F0BEFF00221E4B04F0B9F84A
:1045400004F048F9A860606804F0B4FF0022194B39
:1045500004F0AFF804F03EF9E860A06804F062FFF0
:104560002882237D1449AB74206A04F0EAFE04F02B
:104570008BFFE8742800FFF77FFB206804F09AFFA8
:10458000237D06000493A0680F0004F093FF0290BF
:104590000391606804F08EFF084D00900191320095
:1045A0003B00280005F0F2FBB1E7FA21890003F097
:1045B00015FEBDE780842E4100002041BC0901109A
:1045C00010B5041E10D0FFF7F9FB01F0D7F9002950
:1045D0000BD0FA220023920003F03EFE0100064BAE
:1045E0002200180005F0D2FB10BDFA21890003F06B
:1045F000F5FD0100F3E7C046D409011010B52C22E7
:104600000021040005F0FAF901F0B8F9002906D0FC
:10461000FA220023920003F01FFEA06210BDFA21CF
:10462000890003F0DBFDF8E7F0B54646D6464F4675
:10463000C0B505008846160001F0A0F9002900D198
:1046400004E1FA220023920003F006FE0400A86AA7
:10465000201A04F0C0FE9D4904F05FFE0021AC6208
:10466000071C04F0ABFE002806D1FE21381C89058A
:1046700004F0ACFE002800D0954F4346002B61D0DB
:104680002B6899464346DB689A466B689846AB7E32
:10469000002B00D1E0E02C69002E08D043465800E2
:1046A0008C49400804F084FE002800D0F3E0504616
:1046B000211C04F02CFE82464946504604F027FE99
:1046C000041C40008449400804F080FE002805D006
:1046D0004946484604F01BFECA46041C53467F491F
:1046E000AB60201C04F02DFE494604F013FE494641
:1046F000286004F00CFE391C04F00FFE7849041CFD
:1047000004F064FE002808D17649201C04F050FE15
:10471000002800D1BAE0734800E071484146E860E3
:1047200004F0F5FD704904F00CFE414604F0F2FD82
:10473000041C40006D49400804F03AFE002800D0F7
:10474000A1E06C60002E70D073699846B369404652
:10475000191C994604F0C8FE80231B069C46346948
:10476000414682464046644404F0EBFD494680469B
:10477000484604F0E6FD011C404604F0CBFD04F081
:10478000A3FE011C201C04F0AFFE316A8146381CD8
:1047900004F0D7FD296A04F0BDFD716A8046381C1B
:1047A00004F0CFFD696A04F0B5FDF169041C381C02
:1047B00004F0C7FDE96904F0ADFD4D4904F0C1FD09
:1047C0004C49061C504604F0BCFD4B4904F0A5FDC5
:1047D0004A4904F0B6FD011C301C04F09BFD45491C
:1047E000E861484604F0ADFD434904F096FD4349B5
:1047F00004F0A7FD3E49061C404604F0A2FD011C42
:10480000301C04F087FD3B492862201C04F0DEFDCB
:10481000002814D03A49201C04F079FD3549041CC5
:1048200004F0D4FD0028F5D16C62E0BCBA46B14674
:10483000A846F0BD201C324904F06CFD041C31492F
:10484000201C04F0B5FD0028F4D1EDE7FA21890021
:1048500003F0C4FC0400FAE66969504604F05AFD0E
:10486000041C6861288B013080B228831D280FD971
:1048700004F0B1FD011C201C04F04FFD0123041CB9
:104880002861AB7608E700236B605BE7201C45E7F7
:1048900000239A4610E7FE21F06A890504F037FDEF
:1048A00040001949400804F083FD002800D1FEE6CD
:1048B000211C504604F02BFD144904F042FD011C5C
:1048C000201C04F027FD041C2861F0E600007A4457
:1048D0000AD7233C8FC2F53D0000C040CDCCCC3D73
:1048E00000000C4200000CC2CDCC4C3ECDCC4C3D67
:1048F00048E17A3F00003443D00F494000D7A33C41
:104900000000B443000034C30AD7A33DA69B443B38
:1049100000687047406870470023036043600023CD
:1049200083627047094A10B594464024830063446B
:104930001A68C00062408034144080225201134340
:104940001C60034B9C466044416010BD04C00140A4
:1049500000400140074B80009C4660440368C9004A
:1049600092000A435A400C231A4080235B01034300
:104970001A60704704C001400123D0228340120610
:1049800093629361094A40219446830063441A6804
:10499000C0004A4080311140802252011343196007
:1049A000034B9C46052360444360704704C00140AC
:1049B00000400140024B18688007C00F7047C04696
:1049C00000C0064070B5EFF3108C72B60D4D2B6829
:1049D000002BFCD0BFF35F8F0724CB08C618C05C48
:1049E00001230C40A3401C000440034207D118439C
:1049F0003070BFF35F8F2C608CF3108870BD100097
:104A000001F0D2FE2C0100D0F8B54746CE468846CC
:104A100080B5EFF3108C72B61C4D2C68002CFCD0C6
:104A2000BFF35F8F9A4222D807210126894602E010
:104A30000132934218D34D4637001540AF40D40899
:104A40000119045D2742F3D110003C430C70BFF301
:104A50005F8F00220D4B1A608CF3108800280EDB4C
:104A6000C0BCB946B046F8BD01204042EFE7BFF3F5
:104A70005F8F00232B608CF3108801204042434657
:104A8000002BEDD0089801F08FFEC0462C0100D01D
:104A90000021044B044ABFF35F8F02C39342FAD153
:104AA0007047C046000100D0800100D0044A107851
:104AB000431CDBB2172B00D9102313707047C0467C
:104AC000680E002010B5064B064C82B00100009322
:104AD00018221F232000FFF797FF02B010BDC04629
:104AE000E00901106420002001238340002904D044
:104AF000034A1360034A13607047034A1360FBE7DD
:104B000080E200E000E100E080E100E0012383407A
:104B1000014A13607047C04600E200E0084B1030C5
:104B20009B688000C358002B07D0064A00209B1AC0
:104B30002F229A424041C0B270470020FCE7C04695
:104B400000ED00E06C0E0020024B10309B688000EE
:104B5000C058704700ED00E070B50D00EFF310860F
:104B600072B60F4A1368002BFCD0BFF35F8F0D4B5A
:104B700010309B6884001B590B4A934203D09D421E
:104B800001D001F029FE074B9B681D51BFF35F8FD9
:104B9000BFF35F8F0022024B1A6086F3108870BD4E
:104BA000240100D000ED00E0CD010010F0B5574623
:104BB0004E46DE464546E0B585B00600009117003A
:104BC000EFF3108B72B66A4A1368002BFCD0BFF368
:104BD0005F8F0025674B5D579A46002D00DAA9E0EC
:104BE0006B00654C01935B199B009846A146C1443C
:104BF0004B4652469B7910361370604BB6009B684B
:104C000099590B1B2F2B33D95D4B994200D0ACE047
:104C1000019B42469C465B4B6544AD0063535A4B37
:104C20000232A218043B9B1A1B05584A5B0D6519FA
:104C300013436B80564B0121AB80FF23AB71009B6C
:104C4000EF71AB604B460B4319004C4B9B6899517D
:104C5000BFF35F8FBFF35F8F0022454B1A608BF36A
:104C6000108805B0F0BCBB46B246A946A046F0BDD0
:104C700001200A008243D3798C46BB4231D8454695
:104C8000130044491B1B5B415943090D3D4B6353C2
:104C90003D4B02356519043B5B1B1B053B4D5B0D12
:104CA0002B43AA464D466B800425AC465546E0444E
:104CB000131F44441B1B1B055B0D1D434B46997181
:104CC00000999D8099604946DF71334B0143136021
:104CD000BBE75800C01880002018C179B9422FD90D
:104CE00002000623D356002BF3DA02932B4B6146C6
:104CF0000393131D9A4604235B429C46E1445046AD
:104D00004B461B1A1B055B0D9C46204B9571984624
:104D10006346404603439380019B5A199200039BCC
:104D2000A418A380029B1C4AA371009B2260E77118
:104D3000A3608AE701F050FD002553465D574FE719
:104D4000908802934005131D9A46031561469C46C0
:104D50004046D444634604302018181AE023000566
:104D6000400D1B0218430390C5E701F035FD4FE7E6
:104D7000240100D0FF2700206C0E002000ED00E091
:104D8000CD01001000A1FFFF9C0E002000E0FFFFFE
:104D900001BDFFFFAAAA00000148804701BD000035
:104DA000F8B5DE4657464E4645460C00E0B5EFF3F3
:104DB000108872B65B4A1368002BFCD0BFF35F8F7C
:104DC000594B5A499A68030010339F00D5599C46A5
:104DD0008D4238D0A54248D0554EAA1B2F2A32D832
:104DE00001221300834099465248006803409A46C6
:104DF0004B4651480360BFF35F8FEFF305839B463B
:104E0000002B34D09C4501D001F0E6FC01232A00A0
:104E10009A439068844208D172E04B005B189B0073
:104E2000F3189868A04232D01A0006215156002982
:104E3000F3DA844250D05346002B24D04A463F4BED
:104E40001A603C4B1A60384B9B68DD51BFF35F8F93
:104E5000BFF35F8F0022334B1A6088F31088F0BCD9
:104E6000BB46B246A946A046F8BD0D00EBE72B00B5
:104E7000934398681A008442D7D106201856002818
:104E800009DA0D0030E04A462B4B1A60DBE70620BA
:104E90001856002821DB42001118890074188B462F
:104EA000A1689960E179D97106216156997100294B
:104EB00024DBA488F11A640524155C44091909054A
:104EC0001F4C490D2143998013181E4A9B001178ED
:104ED000F31899711070AEE713005946002914D1E8
:104EE000FF3191711849918016490A789A71174AD1
:104EF0009B1B5B415A43120D0A709CE71249E2E783
:104F00000620105613000028C5DA114A1149D21A9A
:104F1000083A5002400D014399800F4952080A4354
:104F2000DA8088E7240100D000ED00E0CD01001018
:104F30006C0E002000E100E080E100E080E200E093
:104F400000E0FFFFFF27002001BDFFFFAAAA00002D
:104F5000A60E002000F0FFFF00F8FFFF70B5EFF392
:104F6000058101240443EFF3108C72B6214A1368C3
:104F7000002BFCD0BFF35F8F1F4B05001F4AED1ABB
:104F80006D416A43120D1E4D8900AE6852B27658CB
:104F9000A6421CD00621595691421CD012215956C6
:104FA000914222D01E215956914220D02A21595691
:104FB0000324914210D0134B19781A708171BFF3FA
:104FC0005F8F00220B4B1A608CF3108870BDAB68AA
:104FD0000D4C5C50EFE700246100091989005B1853
:104FE000FF21997109499980E5E70124F4E702243A
:104FF000F2E7C046240100D06C0E0020AAAA0000EF
:1050000000ED00E0FF270020CD01001001BDFFFFF3
:10501000054B064A1360064A136053609360D360E1
:1050200013615361936170478080808000E400E0E9
:1050300004E400E010B5084B084C82B00100009376
:10504000002205232000FFF7DFFC002801DB1F23DF
:10505000181A02B010BDC046FC0901100C2800202F
:10506000024B9C4661448900016070474000003457
:1050700010B50400FFF71AFD01002000FFF7F0FF54
:10508000FF232371BFF35F8F10BDC04610B504002E
:10509000FFF70CFD01002000FFF7E2FFFF23A380D4
:1050A000BFF35F8F10BDC04610B504000120FFF7AD
:1050B00009FD034BC3189B002360BFF35F8F10BD36
:1050C00040000034034B9C46614489000160BFF3FB
:1050D0005F8F70474000003483680B4810B58446EA
:1050E000614462441201090159189B185C684A68BE
:1050F0000120944201D802D00020C0B210BD1A682D
:105100000B689A42F9D8F7E7FFFFFF0F0A4B1968BF
:10511000EFF3108072B60A68002AFCD0BFF35F8FED
:105120001B68BFF35F8F00221A6080F3108840BFB6
:10513000002000217047C04664270020F8B557467C
:105140004E464546DE46E0B598460CAB1C780DABA6
:105150001B78070091469A460668002C57D1B47B0D
:10516000002C3AD0650031682D19033D49194B7860
:10517000B373002B00D1F37300238B704B700B7053
:105180002D4BE218BB6812019B184A461A60424632
:105190005A600A9A9A600B9ADA6000238B704B70FF
:1051A0000B70737B9B46002B24D0220073685946FA
:1051B000B06898475B465B0032685B44033B551917
:1051C000D21800280FD05B46AB701378002B24D187
:1051D0005B46147073735C450DD0F0BCBB46B246A1
:1051E000A946A046F8BD94702B78002B00D05370D0
:1051F0005B462B7074734A464346387D00F052FC80
:10520000051E11D10E9B002BE7D01D70E5E7650050
:1052100031682D19033D4919B2E76B705B46147074
:1052200073735C45D9D1E6E75346002BEAD12100E0
:10523000386800F06DFEE5E7FFFFFF0F664B820068
:10524000F0B5D4580023DE4657464E4645469B46A9
:10525000E0B58DB0099000F091FB626806000F0088
:10526000EFF3108872B61368002BFCD0BFF35F8F8A
:1052700023689C465B7B9946002B0DD16368BFF386
:105280005F8F4A461A6088F310880DB0F0BCBB46A9
:10529000B246A946A046F0BD504BA5684B441B0141
:1052A000ED182868696802000B00921BBB41002BB7
:1052B0000EDD02000B00099800F0F4FB6368BFF3F9
:1052C0005F8F5A461A6088F310880028C3D1DCE744
:1052D000002B01D1002AECD10021604600F084FDB2
:1052E000AB680200286869689A46EB680A900B91DF
:1052F00008934B465D1EE368585D636800020243F5
:105300002261BFF35F8F5A461A6088F310885346B4
:10531000002BBAD04B4608991843D04762680690D4
:105320000791EFF3108872B61368002BFCD0BFF31F
:105330005F8F079B002B27DB069A079B1100194301
:1053400002D02369002B3BD12368D97B002906D0EA
:105350001A684800411852184946033A51709A7B1E
:10536000002A01D14A469A734A46DA73E268535DCD
:10537000013353555B4623616368BFF35F8F5A4621
:105380001A6088F3108866E72369002BDCD00A9A3C
:105390000B9B06980799121A8B41002B02DA012207
:1053A0000F4B524200210491013103914946029171
:1053B00008992000019151460091FFF7BFFED9E7FF
:1053C00000F0DCFA069A079B12184B41002BE9DA31
:1053D0000122034B5242E5E748260020FFFFFF0F62
:1053E000FFFFFF7F10B5144C6368002B04D00A2127
:1053F0001248FFF735FE10BD2300114A1021206826
:1054000000F0FEFB032000F0ADFA032000F0B2FB39
:1054100003200C4900F000FBFFF748FB0A4B9C46B9
:1054200003232375D0231B061B6860446375074B59
:1054300080006060DC60DAE7B40E002064270020A2
:10544000D95000103D520010400000344826002082
:1054500000487047B40E0020F0B54E465746DE4671
:105460004546E0B587B0019312AB1B780600059363
:1054700000239A46994600927268EFF3108B72B639
:105480001368002BFCD0BFF35F8F3568AC7B002C1A
:1054900000D170E067002B683F19033FDB195A7891
:1054A000AA73002A00D1EA73464AA118B26809011A
:1054B00052180098019910605160109991601199EB
:1054C000D1604A469A705A701A706B7B9846002BCE
:1054D00061D022006B684146A868984743465B004C
:1054E0002A684344033BD719D21800284CD04346BE
:1054F000BB701378002B00D07B70434614706B7325
:10550000444549D0F3681B19013B18787368BFF311
:105510005F8F4A461A608BF310885346002B08D1E0
:105520000002204307B0F0BCBB46B246A946A046E5
:10553000F0BD059B002B43D0109B0020119998478C
:1055400003000B433CD002900391002931DA009B09
:10555000019C0299039A5B1A944180220093019462
:105560001206944204D30123174C5B42009301942A
:10557000059B9A4680E77368BFF35F8F1C608BF3CF
:10558000108801204042CDE794703B78002B00D07A
:10559000537043463B706C73307D009A019B00F062
:1055A00081FA82460028ADD02100306800F0B0FCBE
:1055B000A8E700F0E3F9029B039C1B184C41CCE7E1
:1055C0000020AFE7FFFFFF0FFFFFFF7F407D704729
:1055D000F0B5C64600B584B004000D0000F0CEF969
:1055E00024184D41002D02DA01242B4D6442062679
:1055F0007642F71736196F41AF4214D811D000F038
:10560000BDF932003B00121A8B41002B15DC002B38
:105610003ED02000290000F0EFF904B080BCB8466D
:10562000F0BDA642EBD90026002700F0A7F9320012
:105630003B00121A8B41002BE9DD002302930193FA
:10564000164B3200009316483B00FFF705FF013070
:10565000DFD0002339009846124A1348536A994212
:1056600004D8976ABE42D4D99942D2D10768EFF3E1
:10567000108C72B63B68002BFCD0BFF35F8F0368C1
:10568000BFF35F8F47461F608CF3108820BFE5E7AC
:10569000002ABED0D1E7C046FFFFFF7F0D510010AA
:1056A000B40E00200040054064270020F0B5C64637
:1056B00000B584B0040000F061F9FA2206000F0082
:1056C000200000230021920003F004FE801979419C
:1056D00004000D1E02DA01242A4D64420626764299
:1056E000F71736196F41AF4214D811D000F046F9C0
:1056F00032003B00121A8B41002B15DC002B3ED0F0
:105700002000290000F078F904B080BCB846F0BD54
:10571000A642EBD90026002700F030F932003B000A
:10572000121A8B41002BE9DD002302930193164BE3
:105730003200009315483B00FFF78EFE0130DFD0AA
:10574000002339009846124A1248536A994204D8F5
:10575000976ABE42D4D99942D2D10768EFF3108C30
:1057600072B63B68002BFCD0BFF35F8F0368BFF3BA
:105770005F8F47461F608CF3108820BFE5E7002A43
:10578000BED0D1E7FFFFFF7F0D510010B40E002007
:105790000040054064270020F0B5EFF30583C646BE
:1057A00000B505000C0084B0002B0FD02F4A00205C
:1057B000536AA34206D3926A1B1B591E8B41AA420D
:1057C0004041184304B080BCB846F0BD284E029357
:1057D0000193284B0200009330000B00FFF73CFEC2
:1057E00000280CDC214A0020536AA342EAD3926AC3
:1057F0001B1BAA4240415A1E93411843E2E720BFB7
:105800007268EFF3108772B61368002BFCD0BFF3F9
:105810005F8FC3B29846FF22336802409C465B7B91
:1058200043450DD0634651001B6889185B18033B44
:105830009B78002B04D13269904209D1336107E093
:10584000F168030A8A18013A1278DBB29A4207D04B
:105850007368BFF35F8F00221A6087F31088A5E793
:105860004146604600F054FBF2E7C0460040054068
:10587000B40E00200D510010074943684A6A10B564
:1058800004680020934206D8896A9B1A5A1E9341E5
:10589000A1424041184310BD0040054002604360F2
:1058A0000048704779580010F0B5EFF30582D646EE
:1058B0004F4646461000C0B51038EFF3108872B658
:1058C000214C2368002BFCD0BFF35F8F012319000C
:1058D00081401E4D1F006963AA461D4D29601D4D64
:1058E0002E78AC463500C5402F402B4215D053468C
:1058F0005F6A194B8500EB589F4218D36246174BDD
:105900008E43EB581670BFF35F8F0022226088F33E
:105910001088002B06D0984704E0BFF35F8F276004
:1059200088F31088E0BCBA46B146A846F0BD0C4BDF
:1059300092009C46624413681360BFF35F8F00239C
:10594000236088F31088EDE7280100D0004005406F
:105950003C7005400B280020C8270020241F002091
:10596000D03F054010B5034B01001800024AFFF775
:1059700029F810BDF9270020180A0110034B596AB5
:105980000A00986A596A8A42FAD170470040054075
:1059900070B504000D00174A536A1900966A536ADD
:1059A0008B42FAD13000190024184D41AB4216D871
:1059B00013D0104B2A005B6A9D4203D90D494B6AF4
:1059C0009342FCD3934207D10A4A02E0516A9942BA
:1059D00002D1916AA142F9D370BDA642E9D9054B23
:1059E0005B6A1C005A1CEFD0012201246442E517B7
:1059F0005242E3E700400540064A536A9942FCD808
:105A000007D1044B02E05A6A914202D19A6A82425B
:105A1000F9D370470040054070B504000D00EFF366
:105A2000108672B61A4A1368002BFCD0BFF35F8F42
:105A3000002D1BD02000FFF787F8164981420AD0BD
:105A40002000FFF789F801212000FFF74DF801231E
:105A5000A340114A1360114BA400E550BFF35F8FC0
:105A600000220B4B1A6086F3108870BD0121A14003
:105A70000A4BA200D5500A4B20001A788A430549E8
:105A80001A70FFF78DF900212000FFF72DF8E5E7E8
:105A9000280100D0A958001038600540241F0020BC
:105AA0000B280020F0B54F46D6464646C0B5070045
:105AB0002B4C616A0D00A66A616AA942FAD18B4239
:105AC00008D805D00120E0BCBA46B146A846F0BDD2
:105AD000B242F7D9EFF3108A72B622480168002962
