:020000041000EA
:1000000000B5324B212058609868022188439860DF
:10001000D860186158612E4B002199600221596106
:100020000121F02299502B49196001219960352056
:1000300000F044F80222904214D00621196600F024
:1000400034F8196E01211966002018661A6600F04E
:100050002CF8196E196E196E052000F02FF8012189
:100060000842F9D1002199601B49196000215960AB
:100070001A491B48016001219960EB211966A021F2
:10008000196600F012F800219960164914480160C1
:100090000121996001BC002800D000471248134993
:1000A000086003C880F30888084703B5996A0420EC
:1000B0000142FBD001200142F8D103BD02B5186610
:1000C0001866FFF7F2FF186E186E02BD00000240BE
:1000D000000000180000070000035F00212200005C
:1000E000F4000018222000A00001001008ED00E03C
:1000F00000000000000000000000000074B24E7A12
:1001000000200420F7010010C3010010C5010010F9
:10011000C1010010C1010010C1010010C101001097
:10012000C1010010C1010010C1010010C701001081
:10013000C1010010C1010010C9010010CB01001065
:10014000CD010010CD010010CD010010CD01001037
:10015000CD010010CD010010CD010010CD01001027
:10016000CD010010CD010010CD010010CD01001017
:10017000CD010010CD010010CD010010CD01001007
:10018000CD010010CD010010CD010010CD010010F7
:10019000CD010010CD010010CD010010CD010010E7
:1001A000CD010010CD010010CD010010CD010010D7
:1001B000CD010010CD010010CD010010CD010010C7
:1001C00000BE00BE00BE00BE00BE00BEEFF3058054
:1001D000103800BEF2EB8871C8B60010E4B600100B
:1001E0003402001090A31AE700201F49086006C8D7
:1001F00081F3088810471D48006800282FD10DA4FE
:100200000ECC002902D000F012F8F9E71849194A7B
:10021000002000E001C19142FCD1174988471749ED
:1002200088471749884700BEFDE701C901C29A42C5
:10023000FBD37047E4B60010C00000201409002072
:1002400038BF0010000004200000042038BF001058
:10025000001004200010042000000000704709482E
:1002600005F0A6FA0047000008ED00E0000000D00D
:1002700018090020D4100020C93C00100903001008
:10028000F13D00105756000006005250ABB36053CA
:1002900008AE001006005250861C030218AE001073
:1002A000060052505422A29D2CAE00100500525060
:1002B000DE65F46838BF0010F8B5C0460648074947
:1002C000091A8B10C90FC91810B5491003D0044B77
:1002D000002B00D0984710BD1409002014090020FD
:1002E00000000000054B10B5002B03D00449054861
:1002F00000E000BFFFF7E2FF10BDC04600000000B5
:10030000380F002050A90010F0B5DE4657464E4683
:100310004546E0B5A7B007F071F8FA20800002F07A
:100320006FFD994806F08EFF984C200006F08AFF7A
:100330000023012296490093964807F053F82000C5
:1003400006F080FF102002F063F8D02380221B0605
:1003500052025A6290495A61904807F0FFF803210F
:10036000042002F02BF80321052002F027F80022D8
:100370000121042002F03AF800220121052002F0B8
:1003800035F8874807F02EF800F0B8FA002800D1B9
:10039000DDE0844C200006F055FF834807F022F88A
:1003A00000F058FD002800D1D1E0200006F04AFFFF
:1003B0007E4807F017F800F091FF002800D1C6E052
:1003C000200006F03FFF7A4807F00CF801F0E6F94C
:1003D000002800D1BBE0200006F034FF01F04AFD08
:1003E000744806F02FFF744806F0FCFF642000F00C
:1003F000D3FB002800D179E2200006F023FF6F4CE8
:100400006F4806F0EFFF142000F0DCFE002800D15A
:1004100068E200F0D1FE06F091FB02000B00694893
:1004200006F0E0FFD02380221B0652029A61664844
:1004300006F008FF654C200001F0AAFB644B180091
:100440000F9301F09FFE634801F07AFE624806F0C8
:10045000F9FE624B9B46624B0993624B0B93624BD6
:100460009A46624B0A93624B1193624B1293624B12
:100470001393624B9946624B1093624B0E93624BFF
:100480001E93624B1F93624B2093624B1993624BF6
:100490001A93624B1B93624B1C93624B1D93624BEE
:1004A0001493624B1593624B1693624B1793624BF6
:1004B0001893624B2193624B2293624B2393624BBE
:1004C0002493624B2593624B0D93624B9846624B8B
:1004D0000C9302F0E5FD002900D10CE1FA22002383
:1004E000920005F0FDF95B4605001B68EB1A092B2D
:1004F00000D90BE153461B68EB1AC72B00D92AE140
:10050000200001F033FC002800D02FE102F0C8FDEC
:10051000002900D13DE1FA220023920005F0E0F924
:100520004B4605001B68EB1A632B00D93CE101F038
:1005300025FE002006F064FF431C00D1A9E03F38EF
:10054000352800D9A5E00E9B80001B589F461B480C
:1005500006F078FE8026414806F074FE7602D0252B
:1005600005242D0632206E61013C02F049FCE4B204
:100570003220AE6102F044FC002CF3D1FA2040009E
:1005800002F03EFCEBE7C04678A9001050A900102D
:100590007CA9001090A90010801A060030020020EB
:1005A000A4A90010F8A90010FCA9001014AA0010BA
:1005B0002CAA001044AA00105CAA0010C0A90010C8
:1005C00068AA001080AA00108CAA00107C0E0020DF
:1005D000A40E0020B0AA0010C0AA00102C0F00200A
:1005E000F00E0020640E0020240F0020C40E002016
:1005F000D8AA0010ECAA001000AB0010300F0020A9
:10060000280F002064AF001014AB00101CAB0010CA
:1006100028AB001034AB001040AB001088AB0010CA
:1006200094AB0010A8AB0010D4AB0010E0AB0010EE
:1006300004AC001014AC001028AC001038AC001052
:1006400048AC001064AC001070AC001084AC00101A
:100650003CB00010200F0020CF100020C8A90010CF
:10066000200001F0C7FBD02701F012FC80261E9865
:1006700001F066FD03253F06760264207E61013DA0
:1006800002F0BEFBEDB26420BE6102F0B9FB002DAA
:10069000F3D102F005FD002900D1C7E0FA220023C2
:1006A000920005F01DF90500200001F047FB01381C
:1006B000C0B26422042802D80D9B80001A58434619
:1006C0001B68EB1A93420DD3434601220C991D601F
:1006D0000B7853400B7000D1FAE0D02380221B0628
:1006E00052025A616420002102F01CFB02F0D8FC87
:1006F000002900D0F2E6FA21890005F0B3F85B4644
:1007000005001B68EB1A092B00D8F3E65B46099E2F
:100710001D60300000F08AF90B9F380000F08AFC61
:1007200039000F9F32003800099601F041FD380072
:1007300001F02AFE061C380001F028FE099B021C6D
:10074000DB6A2000311C01F039FA53461B68EB1AB2
:10075000C72B00D8D4E653460A981D6001F002F872
:10076000200001F003FB002800D1CFE6119801F032
:10077000E7FC01F0A7FB002800D1AFE0200001F06A
:1007800075FB129801F0DCFC02F08AFC002900D015
:10079000C1E6FA21890005F065F84B4605001B68A3
:1007A000EB1A632B00D8C2E64B460A9E099A1D60DD
:1007B000200033000B9901F0C1FB109A1368FA2254
:1007C000EB1A9200934200D2B1E62422B35C002BD4
:1007D00000D1ACE60A9801F051FC109B1D60A6E622
:1007E0001D9806F02FFD149806F02CFD159806F0C4
:1007F00029FD169806F026FD179806F023FD189897
:1008000006F020FD219806F01DFD229806F01AFD45
:10081000239806F017FD249806F014FD259806F09D
:1008200011FD02F03DFC002900D037E7FA218900D4
:1008300005F018F8050037E7200001F0FBFA01F099
:1008400037FB1F9801F07CFC23E71B9801F078FC34
:10085000642000F0A1F9142000F0B4FC1C9801F011
:100860006FFC16E7209801F06BFC01F04BFB10E7E2
:10087000200001F063FA01F063FA0500A06906F0B8
:100880005DF9060020690F0006F058F92423069050
:100890000791E35C0493206A06F050F902900391FB
:1008A000E06906F04BF93200009001913B0029000D
:1008B0001A9806F097FDECE6199801F041FC01F05A
:1008C00033FB200001F064F90F9801F061FDE0E6D0
:1008D000D02380221B0652029A6103E7139801F08D
:1008E0002FFC13E6200006F0ADFC9BE5024C200037
:1008F00006F0A8FC84E5C046C0A9001070B584B01D
:1009000075236A46454C1373743B6821200000939D
:1009100003AA06F04BFE012802D0002004B070BDEF
:100920000B2500266D4401232A0068212000009633
:1009300006F0B2FE0128F0D12B78682BEDD16A4683
:10094000374B6821938120000223009603AA06F00A
:100950002DFE0228E1D1623002F052FA6C236A4681
:10096000FF3393816A3B682120000096FF3B03AA76
:1009700006F01CFE0228D0D1083002F041FA6A4687
:10098000284B6821938120000223009603AA06F0D9
:100990000DFE0228C1D16A46234B682193812000B5
:1009A0000223009603AA06F001FE0228B5D11B23FC
:1009B0006A466821938120000096193B03AA06F03D
:1009C000F5FD0228A9D11C236A46682193812000E5
:1009D0001A3B009603AA06F0E9FD030002289CD109
:1009E0002322694620008A816821009603AA06F026
:1009F000DDFD022800D090E79C236A465B009381CE
:100A00000023682100932000023303AA06F0CEFDE4
:100A1000023843425841C0B280E7C046300200204D
:100A20006B80FFFF190900001A030000F0B5DE46D5
:100A300057464E464546E0B5040089B000280DD023
:100A40003B236A46D3730F224E4E3A3B6821300057
:100A500000936A4406F0AAFD012807D0002009B0DF
:100A6000F0BCBB46B246A946A046F0BD002304AD8B
:100A700000932A00682130000E3306F00DFE0E2888
:100A8000ECD1414B28881A8840BA801A00B22080E5
:100A90006A88598852BA521A12B262809146AA885C
:100AA000998852BA521A12B2A2809046EA882F89C7
:100AB00051BAA181D2BA9246DA887FBABF1A3FB240
:100AC0006E89E7801A8976BAB61A36B2AD89268160
:100AD0005B896DBAED1A2DB2658105F0C5FFE22183
:100AE000890505F072FF83462061484605F0BCFF8A
:100AF000E221890505F069FF81466061404605F005
:100B0000B3FFE221890505F060FF8046A06138004F
:100B100005F0AAFF1D4905F044FFE061300005F033
:100B2000A3FF1A4905F03DFF2062280005F09CFF55
:100B3000164905F036FF6062504605F095FF1449EE
:100B400005F02FFF134905F029FF5946A0625846CA
:100B500005F03BFF4946051C484605F036FF011CE1
:100B6000281C05F01BFF4146051C404605F02DFFE3
:100B7000011C281C05F012FF05F0EAFFE0620120CD
:100B80006DE7C04630020020180900200000034332
:100B90000000AA43B81E1242F0B5DE46454657464D
:100BA0004E46E0B5444B8DB0049004000C22002169
:100BB00018000593002506F065FA002C00D175E0B9
:100BC000002300260027984699469A469B463B4BB1
:100BD00008AC03933B2204AB04A9DA738C460123CF
:100BE0002C3A682103980093624406F0DFFC012848
:100BF00007D000200DB0F0BCBB46B246A946A046C7
:100C0000F0BD002322000093682103980E3306F004
:100C100043FD0E28EDD123880438DBBA9B4463885A
:100C20000135DBBAF618A388ADB2DBBAFF18238909
:100C3000DBBA98446389DBBA9944A389DBBA9A4446
:100C400002F0DEF8049BAB42C4D11C0052464B4676
:100C500021005846B246B94616001F0004F0DAFDDE
:100C6000210085B2504604F0D5FD00042100054363
:100C7000484604F0CFFDA246114B5146C4184046E9
:100C800004F0C8FDA4B2000451460443380004F047
:100C9000C1FD514607B2300004F0BCFD00B2059B17
:100CA00058811D6001205C601F81A3E7C0240020E3
:100CB00000272402F3E7C046180900203002002074
:100CC00000C0FFFF5F4BF0B51968DE460A00CB1786
:100CD000012157464E46454683465B484942121815
:100CE0004B41E0B5100089B0190014001D0005F05B
:100CF00035FE564E804601960822B05E2B0022003B
:100D00008A46C1170294039505F028FE030D0F03D0
:100D10001F43019B06030A21585E42465346C117F2
:100D200005F01CFE0B06040A1C430D128021A419B9
:100D30007D410020019E0902002300196941F288CB
:100D400005F00CFE4B10CF1799463B4300D176E0DF
:100D50001023F05E42465346C11705F0FFFD059192
:100D600004900E23F05E029A039BC11705F0F6FD76
:100D7000C40B4B04234342040498059912184B41B9
:100D800080245946029203936403641A6508E117AC
:100D9000E0070C24325F0024C9072943D500029ADA
:100DA000039BA4185D410023001BA941284A05F0BC
:100DB000D5FD4A463B0004F07BFD07910690069E58
:100DC000079FFB04740B1C43019B7D131622985E46
:100DD00022002B00C11705F0C1FD22002B0005F0F9
:100DE000BDFDCB01440E32001C433B00019E4D165D
:100DF0001421705EA4185D41C11705F0AFFD4F03CB
:100E0000C20CCB143A4312196B411906140A1D1275
:100E10001222B35E0C43DE171A0F31011143180181
:100E20000019694105F07CFEEE21890505F0CDFD34
:100E300009B0F0BCBB46B246A946A046F0BD0020B2
:100E4000F6E7C046AC100020000CFEFFD00D0020DD
:100E5000350C0000F0B5CE46474680B58BB0D023A8
:100E60006A466F4C1373CF3B76212000009303AA90
:100E700006F09CFB012805D000200BB0C0BCB94691
:100E8000B046F0BD092500266D4401232A007621D5
:100E90002000009606F000FC0128EDD12B78602B95
:100EA000EAD16A465F4B76219381200002230096A7
:100EB00003AA06F07BFB0228DED1083001F0A0FF78
:100EC000F3230A36984601256E4413E000233200CE
:100ED000009376212000013306F0DEFB0700012895
:100EE000CAD1012001F08CFF2A0033781A409146C4
:100EF0001D420CD06B46424676211A732000012316
:100F0000009503AA06F052FB0128B5D1DEE788233D
:100F10006A46D3720B22762120000097873B6A44F1
:100F200006F044FB06000128A6D14B46762100932B
:100F300020001A2303AA06F0AFFB1A289CD13A4DD1
:100F4000039B079A2B60049B2A616B60089B2522F8
:100F50006B616B4606990598E960A8609B181B7841
:100F60006A462B76E123D3720B227621200000966D
:100F7000E03B6A4406F01AFB012800D07CE74B46B0
:100F8000762100932000072303AA06F085FB07289B
:100F900000D071E76B469B896A466B836B469B7BEF
:100FA00020006B766B46D17B0F221B7C09011A4017
:100FB0000A43AA836A46527C1B0912011343EB833E
:100FC0006B469A7C2023EA546A46D333FF339381DD
:100FD0004B467621009303AA022306F0E7FA022883
:100FE00000D049E76A46114B762193814B46200099
:100FF000009303AA022306F0D9FA022800D03BE7A7
:101000006A460B4B762193814B462000009303AA3E
:10101000022306F0CBFA023843425841C0B22CE713
:1010200030020020E0B6FFFFD00D0020F5100000D8
:10103000F4430000F0B5C64600B5040086B00028B1
:101040000DD0F7236A46D3730F22534DF63B76211A
:10105000280000936A4406F0A9FA012804D0002071
:1010600006B080BCB846F0BD002304AE0093320049
:1010700076212800083306F00FFB0828EFD173789B
:1010800035781B012D031D43B37832791B091D43AD
:10109000F788F37871791201404E7FBA1B0313432E
:1010A000BAB290460909328819431B099B1A5B435F
:1010B0005200C910891A0220325E1B134A430420D1
:1010C000315ED2124B439B13D718B800344BC01972
:1010D0001F60803005F0C8FC324905F062FC2060DA
:1010E0002800FFF7EFFD304B6060FA184346051CFF
:1010F00099031C20335E1B05C91A1E20335E802015
:101100005343C91A8023DB019C4600026144844694
:101110002020737E305653434243DB1263449212C5
:101120005A4380239B039C4692121A20335E6244EA
:1011300053438022920194466344C9139B134B434B
:10114000DA135243317ED2114A4312119B1ADA4309
:10115000D2171340C822520593421ADC181305F027
:1011600083FCEA21890505F030FC104BA06019686A
:10117000281C05F016FC0E4905F010FE011CFE208F
:10118000800505F008FC0B4905F01FFCE06001201C
:1011900066E71300E2E7C04630020020D00D0020D1
:1011A000AC1000200000C84600D4FEFF98010020CB
:1011B00001DE423E002A2D47014B18687047C046A9
:1011C00098010020F0B5DE4657464E464546E0B54C
:1011D00089B00390002800D171E03B4B0024984671
:1011E000012300259946394EF72302AA02A9D37399
:1011F0008C464B460F2200937621012340466244E1
:1012000006F0D4F9012807D0002009B0F0BCBB4695
:10121000B246A946A046F0BD002306AF00933A00AF
:1012200076214046083306F037FA0828ECD17B785F
:1012300038781B0100031843BB783A791B0918431F
:10124000FB7812011B0313437A79214F3188BC4686
:1012500012091A431B095B1A5B434900D210521A48
:101260000227F15F1B134A430427F15FD2124B435D
:101270009B13D21863461A60FFF724FD8246154B74
:10128000013419689B4605F08CFB134905F086FD77
:101290005146281C05F082FB051C322001F0B0FDF0
:1012A000039BA4B2A3429FD1180005F0DDFB011CF3
:1012B000281C05F076FB5B4618600120A5E7054B6E
:1012C00000259B460398F0E730020020D00D002057
:1012D000AC1000209801002001DE423E962110B59E
:1012E000134C8901200002F0E1F90221082001F0ED
:1012F00065F80221092001F061F8C022236B120277
:1013000013400C4A2000136008210023012202F040
:1013100095FA2000012102F0CFFA28220021064888
:1013200005F0B0FE0022054B01201A8010BDC0461A
:101330000080034030900340F80D0020C4100020CE
:10134000F0B54646D6464F46C64DC0B5C64C2E886B
:1013500000271022C5498B691A421DD110008B69E4
:1013600018401A42FAD10B68DBB2242B0ED0FE2EA5
:101370001AD90A2BEFD1002F00D02E80BA4F3B781C
:10138000242B18D0002300262B80E1E723808B69D3
:10139000012701261A42E1D0002F00D02E80E0BCA8
:1013A000BA46B146A846F0BD771CBFB2A3553E0071
:1013B000E0550127DDE72A21380007F0D7FD002896
:1013C000E0D07B1C984200D8C0E10222591C524256
:1013D000521A411A092900D8BAE1BB787E785E40DA
:1013E000FB785E4013181A00910889007A18994614
:1013F0009046B4463B0000225E6804337240984534
:10140000FAD16646130456401B0E5E4013021B0EB3
:101410005E40130E4A465E40954BF6B2CB188A42A8
:1014200031D01A7856405A1C90422CD95A785640DE
:101430009A1CF6B2904226D99A785640DA1C90420D
:1014400021D9DA7856401A1D90421CD91A79564093
:101450005A1D904217D95A7956409A1D904212D976
:101460009A795640DA1D90420DD9DA7956401A0021
:101470000832904207D91A7A56401A00093290422F
:1014800001D95B7A5E4010220021013007F062FD35
:10149000C0B2B04200D075E7764B1A78472A6BD0BD
:1014A0001A78522A00D06DE75A784D2A00D069E7A1
:1014B0009B78432B00D065E7002398466E4B38009D
:1014C00019009A4607F016FE061E00D15AE76B4F28
:1014D00019E0022B41D0072B0BD1300006F024F984
:1014E000C022674B120604F028FC04F01FFD634E77
:1014F000F06001239C4651460020E04407F0FAFDCD
:10150000061E00D13EE74346082B2ED0E1DD092B15
:10151000EFD1300007F054FE0528EAD9F421C900C4
:101520008C463378303B9A009B1872785B00303AD7
:101530009B187B76B378303B9A009B18F2785B005F
:10154000303A9B18BB763379303B9A009B187279FE
:101550005B0062449B18BB83CBE73378474A413B2F
:1015600059424B4124215354C3E7300006F0DCF8C4
:1015700004F0DCFC3861BCE75A78472A90D19A78AD
:10158000412A8DD1002398463B4B380019009A46DA
:1015900007F0B0FD002800D1D0E03A4F01239C466F
:1015A00051460020E04407F0A5FD061E00D1C5E02D
:1015B0004346092BF2D89B00FB589F46300006F0AB
:1015C000B3F804F0B3FC2D4EB060E7E7300006F04E
:1015D000ABF804F0ABFC294E3062DFE7300006F0D8
:1015E000A9F8264B1875D9E7300006F0A3F8234B6D
:1015F000C0B25875421E904124229854CEE73378E9
:10160000572BCBD1802109068C461C4A5368634472
:101610005360C3E7300007F0D3FD032800D891E002
:10162000300006F081F804F081FC1749814605F08E
:10163000B8F905F03BFA06006420704305F014FA8F
:10164000011C484605F0A7F9104905F0AAF98146A2
:10165000300005F009FA011C484605F09FF9074BD8
:1016600058609BE7C4100020600F002000800340FA
:10167000640F0020630F0020CCAC0010F80D002098
:10168000CAA1FD3F50B000100000C84200007042E7
:101690003378532B00D081E7802109068C462D4AF0
:1016A00013686344136079E7300007F089FD03286D
:1016B0004AD9300006F038F804F038FC2649814653
:1016C00005F06FF905F0F2F906006420704305F0AB
:1016D000CBF9011C484605F05EF9204905F061F997
:1016E0008146300005F0C0F9011C484605F056F966
:1016F000184B186052E7300007F062FD052800D84B
:101700004CE73378134A303B99005B1871785B00E3
:1017100030395B189375B378303B99005B18F178DA
:101720005B0030395B18D3753379303B99005B1817
:1017300071795B0030395B1813762FE70122084B73
:101740001A701FE600208AE70020D1E700269AE6FB
:10175000002666E6F80D00200000C8420000704236
:10176000CC10002070B50400FFF7EAFD002C0FD06C
:10177000084B1878002800D170BD2200064B62CBC0
:1017800062C232CB32C232CB32C21B681360F3E783
:101790000020F1E7CC100020F80D0020F0B5C6467F
:1017A000042100B50F2000F009FE01240723294D74
:1017B000294E052033602C6002F012FA274904F00C
:1017C00051F805F04CF9071C05F0A2F9C3B2180056
:1017D000984605F049F9011C381C05F0DCF8832116
:1017E000C90505F0F2F805F093F9434636681B0188
:1017F000C0B21843B3001A4A9B199B009E18194A9D
:101800007060194932612A688C46511E8A418021D4
:1018100049010F006344154D186852425540284055
:101820001F43386030683143844300200C60104906
:10183000087010490978002907D00F491B680A4031
:10184000F532FF3253401D403D60012080BCB84658
:10185000F0BDC046F40D0020A810002040420F004B
:10186000000005401F4E00000C000540FFFF000077
:10187000CB100020CD1000200CFEF30110B5031C8E
:10188000B42800D9B4231549DAB20B70144B1B7875
:10189000002B1ED0134B50011B68801A9C00E418CB
:1018A000114B80009C468018B421A40000016444C0
:1018B00003F0D8FF0D4BF5301B68FF3080B2002BD2
:1018C00008D10B4A236843401A4080235B0123431D
:1018D0001A6010BD074A0004F4E7C046CB10002090
:1018E000CD100020A81000200C000540F40D0020B1
:1018F000FFFF00000000FFFF014B18787047C04653
:10190000CB1000200122144B10B51A70134BB421D8
:101910001B689C00E418124BA4009C46114B6444C5
:101920001B785801C01A8000C018000103F09AFF0C
:101930000D4BF5301B68FF3080B2002B09D00B4AED
:101940000004236843401A4080235B0123431A604C
:1019500010BD074AF5E7C046CD100020A8100020B2
:101960000C000540CB100020F40D00200000FFFF0C
:10197000FFFF000010B5010086B0002832D014220D
:10198000684605F085FBD5236C46174A5B0023802B
:1019900013886846591C63801180019B009A217C42
:1019A0005A40029B5A40039B5A40637C4B40A17CA7
:1019B0004B4011045340090E4B401102090E4B409D
:1019C0002021120E5340094AE37405AC9369194271
:1019D000FCD1037801301360A042F7D1044A138888
:1019E0000133138006B010BDC81000200040034032
:1019F000C610002010B5010086B000282ED06C461D
:101A00001522684605F044FB154A164B68462380AC
:101A10001388591C63801180019B009A5340029ADD
:101A20005340039A5340049A53401A041902120E69
:101A30005A40090E4A401B0E53402375152420219D
:101A4000094A6C4493691942FCD103780130136050
:101A5000A042F7D1054A13880133138006B010BDA8
:101A6000C8100020AA03000000400340C610002058
:101A700070B5060088B0002841D01B20022200214A
:101A8000684405F0FFFA224B224A01AC23801388F8
:101A9000591C1180638001F003FB002931D0FA2228
:101AA0000023920003F01CFF05000F22310003A861
:101AB000656007F0F1FA019B039A6B405340049A6A
:101AC00020005340059A5340069A53401A041902C5
:101AD000120E5A40090E4A401B0E534023761D2415
:101AE00020210D4A6C4493691942FCD103780130DE
:101AF0001360A042F7D1094A13880133138008B05C
:101B000070BDFA21890003F0ADFE0500CDE7C046A7
:101B1000AA020000C810002000400340C6100020A8
:101B2000184A70B59369DB0616D400251021164EAD
:101B3000164C307893691942FCD11368DBB2002847
:101B40000BD1AA2B02D123700130012593691942D0
:101B5000F0D0002D00D0307070BD3F2807D96378D9
:101B6000042B02D001250020F0E70020EDE7451C02
:101B70002354E8B20328E8D96378042BF5D0402831
:101B8000F0D0E2E700400340D010002060100020B9
:101B900010B528220021040005F074FA01F080FA43
:101BA000002906D0FA220023920003F099FE60601B
:101BB00010BDFA21890003F055FEF8E7F0B557464D
:101BC0004E464546DE46E0B583B004000D1C161CAB
:101BD0001F1C01F065FA00294BD0FA220023920065
:101BE00003F07EFE81466069A561E6612762291CDB
:101BF00004F022FF002800D0656123789846032B6B
:101C000060D03CD8002B69D0022B2BD125239B46DA
:101C1000E35C291CE0689A4604F0BDFE414901904E
:101C2000381C04F009FF002863D056460136F6B28E
:101C30003D49019804F00EFF002801D00236F6B2AB
:101C40002523E654022E0DD94B46A360374B256160
:101C5000238001F025FA00292DD1FA21890003F013
:101C600001FE606003B0F0BCBB46B246A946A04688
:101C7000F0BDFA21890003F0F5FD8146B3E7042B9E
:101C8000F0D12B49281C04F0D7FE0028EAD0FC2113
:101C900070004008890504F0CFFE0028E2D04A46D3
:101CA0006368D31A234A9342DCD9234B238001F083
:101CB000F7F90029D1D0FA220023920003F010FE98
:101CC0006060CFE72423E35C002BCBD0C1239B00D3
:101CD000238001F0E5F90029BFD0ECE70123238040
:101CE00001F0DEF90029E6D1FA21890003F0BAFDFE
:101CF000B7E7C021301C090604F09EFE002894D1ED
:101D00005346002B09D10849019804F0A3FE00288E
:101D1000A8D05B464246E254A4E75646013EF6B2DE
:101D200086E7C0469A99993E0000A0400302000051
:101D30000000A041881300000504000000787047EF
:101D4000062801D902487047024B8000C058FAE7C4
:101D5000D4AC001078B00010037802220020023BBF
:101D6000DBB29A424041C0B27047C046242370B5EE
:101D7000C35C0400002B01D0002070BD01F090F97D
:101D8000002916D0FA220023920003F0A9FD23783F
:101D9000032B15D0022BEFD11349A06904F04CFEA0
:101DA0000028E9D01149E06904F046FE431E98413D
:101DB000E3E7FA21890003F055FD2378032BE9D1ED
:101DC000A568F233FF33451B9D42D5D30749E0692F
:101DD00004F032FE0200531E9A41054BAB429B4178
:101DE00058421043C9E7C0460000FA43000080BFD4
:101DF0002F750000037810B50400012B00D010BD32
:101E00008369C3604361002383840333FF3303800A
:101E100001F046F9002905D1FA21890003F022FDDD
:101E20006060ECE7FA220023920003F059FD606045
:101E3000E5E7C046037810B50400022B00D010BDC2
:101E4000094B038001F02CF9002905D1FA21890002
:101E500003F008FD6060F2E7FA220023920003F02D
:101E60003FFD6060EBE7C046010200002423012231
:101E7000C254704710B5FFF791FC0020FFF7FEFC3D
:101E8000FFF740FD0022014B1A7010BDD110002059
:101E900010B5064C2378002B00D010BD0020FFF7B2
:101EA000EDFCFFF72FFD01232370F6E7D110002092
:101EB000034B1A78012A01D100221A707047C046DC
:101EC000D110002010B50E4C2378012B01D000203A
:101ED00010BD0133237001F0E3F85A20FFF7CEFC68
:101EE000FA20400000F08CFFFFF706FD5A2802D0D0
:101EF00004232370EBE7032359382370E8E7C04637
:101F0000D110002010B5FFF7FDFC5A20FFF7B6FCFA
:101F1000FA20800000F074FF0020FFF7AFFCFA20E9
:101F2000400000F06DFF10BD10B50020FFF7A6FCCB
:101F30000022014B1A7010BDD1100020F0B58FB0F7
:101F400009AD04000F001422002128001E0005F036
:101F500099F801F0A5F8002900D182E0FA220023C7
:101F6000920003F0BDFC68602000FFF7E7FE3F49E8
:101F70002872A06904F029FD04F098FD2D2283B297
:101F80006A441B0A107053703949E06904F01DFD62
:101F900004F08CFD2F2283B26A441B0A1070537028
:101FA0003449206A04F011FD04F080FD312283B22F
:101FB0006A441B0A10705370002F0DD02B493868EB
:101FC00004F003FD04F072FD3322FF2183B26A4462
:101FD00008401B0A10705370002E01D0337D6B74C3
:101FE00000232000AB74FFF7B7FE002803D00122C6
:101FF000AB7C1343AB742423E35C002B03D002229D
:10200000AB7C1343AB74002E07D02423F35C002B6E
:1020100003D00422AB7C1343AB742800FFF7AAFC67
:1020200020006F68FFF78AFEFFF78AFE2423E35C37
:1020300006000693206A04F081FD04900591E06992
:1020400004F07CFD02900391A06904F077FD0A4D35
:102050000090019132003900280005F0C3F90FB05B
:10206000F0BDFA21890003F0FDFB7CE70000204170
:102070000000C84200007A4414AD0010F0B504001E
:102080008DB0002803D02423C35C002B01D10DB0F8
:10209000F0BD06AD15220021280004F0F3FF00F08A
:1020A000FFFF002941D0FA220023920003F018FC20
:1020B0006860206804F042FD00221E4B03F03DFEE4
:1020C00003F0CCFEA860606804F038FD0022194BD4
:1020D00003F033FE03F0C2FEE860A06804F0E6FC03
:1020E0002882237D1449AB74206A04F06EFC04F04E
:1020F0000FFDE8742800FFF77DFC206804F01EFD4A
:10210000237D06000493A0680F0004F017FD0290E1
:102110000391606804F012FD084D009001913200B7
:102120003B00280005F05EF9B1E7FA21890003F0D1
:1021300099FBBDE780842E410000204134AD0010A2
:1021400010B5041E10D0FFF793FC00F0A9FF002982
:102150000BD0FA220023920003F0C2FB0100064BD1
:102160002200180005F03EF910BDFA21890003F0A5
:1021700079FB0100F3E7C0464CAD001010B5FFF746
:10218000CFFC10BD10B520220021040004F07AFF1E
:1021900000F086FF002906D0FA220023920003F007
:1021A0009FFBE06110BDFA21890003F05BFBF8E7BB
:1021B000F0B54F464646D646C0B5050088461700DE
:1021C00000F06EFF002900D1C4E0FA220023920043
:1021D00003F086FB0400E869201A04F040FC604923
:1021E00004F0DFFB0021EC61061C04F02BFC00284E
:1021F00006D1FE21301C890504F02CFC002800D0FB
:10220000584E4346002B21D0DC682B68AC609846C2
:10221000191C201C04F0BFFB534904F0D6FB4146B7
:1022200004F0BCFB011C2860201C04F0B4FB311C32
:1022300004F0B7FB6C68E860211C04F0ACFB4B4970
:1022400004F0C3FB211C04F0A9FB6860002F70D0D0
:102250007B699846BB694046191C994604F088FC86
:1022600080231B069C463C694146824640466444A6
:1022700004F0ABFB49468046484604F0A6FB011C2F
:10228000404604F08BFB04F063FC011C201C04F0AE
:102290006FFC396A8146301C04F097FB696904F0D1
:1022A0007DFB796A8046301C04F08FFBA96904F03D
:1022B00075FBF969041C301C04F087FB296904F0E4
:1022C0006DFB2B4904F081FB2A49061C504604F0A3
:1022D0007CFB294904F065FB284904F076FB011CCE
:1022E000301C04F05BFB23492861484604F06DFB79
:1022F000214904F056FB214904F067FB1C49061CE8
:10230000404604F062FB011C301C04F047FB1949F5
:102310006861201C04F09EFB002814D01849201C82
:1023200004F039FB1349041C04F094FB0028F5D198
:10233000AC61E0BCBA46B146A846F0BD201C1049CD
:1023400004F02CFB041C0F49201C04F075FB002832
:10235000F4D1EDE7FA21890003F084FA04003AE7AA
:1023600000007A440AD7233CCDCCCC3DCDCC4C3EAA
:1023700048E17A3F00003443D00F494000D7A33CE6
:102380000000B443000034C30068704740687047E1
:1023900010B520220021040004F074FE00F080FE3D
:1023A000002906D0FA220023920003F099FAE06196
:1023B00010BDFA21890003F055FAF8E7094A10B573
:1023C00094464024830063441A68C000624080340D
:1023D00014408022520113431C60034B9C4660440E
:1023E000416010BD04C0014000400140074B800027
:1023F0009C4660440368C90092000A435A400C237B
:102400001A4080235B0103431A60704704C00140F7
:102410000123D0228340120693629361094A40212E
:102420009446830063441A68C0004A4080311140DA
:102430008022520113431960034B9C4605236044DC
:102440004360704704C0014000400140024B1868DF
:102450008007C00F7047C04600C0064070B5EFF35C
:10246000108C72B60D4D2B68002BFCD0BFF35F8F24
:102470000724CB08C618C05C01230C40A3401C00F5
:102480000440034207D118433070BFF35F8F2C60C4
:102490008CF3108870BD100001F0CAFC2C0100D034
:1024A0000021044B044ABFF35F8F02C39342FAD169
:1024B0007047C046000100D0800100D0044A107867
:1024C000431CDBB2172B00D9102313707047C04692
:1024D0009C01002001238340002904D0034A13609B
:1024E000034A13607047034A1360FBE780E200E091
:1024F00000E100E080E100E0024B10309B688000CA
:10250000C058704700ED00E070B50D00EFF3108685
:1025100072B60F4A1368002BFCD0BFF35F8F0D4BD0
:1025200010309B6884001B590B4A934203D09D4294
:1025300001D001F095FC074B9B681D51BFF35F8FE5
:10254000BFF35F8F0022024B1A6086F3108870BDC4
:10255000240100D000ED00E0CD010010F8B5DE460A
:1025600057464E4645460C00E0B5EFF3108872B66C
:102570005B4A1368002BFCD0BFF35F8F594B5A495D
:102580009A68030010339F00D5599C468D4238D07D
:10259000A54248D0554EAA1B2F2A32D8012213003B
:1025A000834099465248006803409A464B4651483A
:1025B0000360BFF35F8FEFF305839B46002B34D09E
:1025C0009C4501D001F04CFC01232A009A439068FD
:1025D000844208D172E04B005B189B00F3189868A6
:1025E000A04232D01A00062151560029F3DA844263
:1025F00050D05346002B24D04A463F4B1A603C4BE8
:102600001A60384B9B68DD51BFF35F8FBFF35F8F5C
:102610000022334B1A6088F31088F0BCBB46B246E8
:10262000A946A046F8BD0D00EBE72B009343986840
:102630001A008442D7D106201856002809DA0D0066
:1026400030E04A462B4B1A60DBE70620185600287C
:1026500021DB42001118890074188B46A16899602B
:10266000E179D971062161569971002924DBA4888A
:10267000F11A640524155C44091909051F4C490D1C
:102680002143998013181E4A9B001178F318997101
:102690001070AEE713005946002914D1FF31917133
:1026A0001849918016490A789A71174A9B1B5B4119
:1026B0005A43120D0A709CE71249E2E706201056B1
:1026C00013000028C5DA114A1149D21A083A5002FB
:1026D000400D014399800F4952080A43DA8088E788
:1026E000240100D000ED00E0CD010010A001002089
:1026F00000E100E080E100E080E200E000E0FFFFB8
:10270000CE10002001BDFFFFAAAA0000DA010020C0
:1027100000F0FFFF00F8FFFF70B5EFF30581012423
:102720000443EFF3108C72B6214A1368002BFCD0DF
:10273000BFF35F8F1F4B05001F4AED1A6D416A43BF
:10274000120D1E4D8900AE6852B27658A6421CD0BA
:102750000621595691421CD012215956914222D03D
:102760001E215956914220D02A21595603249142C4
:1027700010D0134B19781A708171BFF35F8F00224C
:102780000B4B1A608CF3108870BDAB680D4C5C501D
:10279000EFE700246100091989005B18FF21997196
:1027A00009499980E5E70124F4E70224F2E7C046ED
:1027B000240100D0A0010020AAAA000000ED00E042
:1027C000CE100020CD01001001BDFFFF054B064AD1
:1027D0001360064A136053609360D36013615361C2
:1027E000936170478080808000E400E004E400E0B2
:1027F000024B9C46614489000160704740000034F0
:1028000010B50400FFF75AFE01002000FFF7F0FFAB
:10281000FF232371BFF35F8F10BDC04610B50400C6
:10282000FFF74CFE01002000FFF7E2FFFF23A3802B
:10283000BFF35F8F10BDC04683680B4810B5844658
:10284000614462441201090159189B185C684A6886
:102850000120944201D802D00020C0B210BD1A68F5
:102860000B689A42F9D8F7E7FFFFFF0F0A4B196888
:10287000EFF3108072B60A68002AFCD0BFF35F8FB6
:102880001B68BFF35F8F00221A6080F3108840BF7F
:10289000002000217047C046A4100020F8B557461C
:1028A0004E464546DE46E0B598460CAB1C780DAB6F
:1028B0001B78070091469A460668002C57D1B47BD6
:1028C000002C3AD0650031682D19033D49194B7829
:1028D000B373002B00D1F37300238B704B700B701C
:1028E0002D4BE218BB6812019B184A461A604246FB
:1028F0005A600A9A9A600B9ADA6000238B704B70C8
:102900000B70737B9B46002B24D0220073685946C2
:10291000B06898475B465B0032685B44033B5519DF
:10292000D21800280FD05B46AB701378002B24D14F
:102930005B46147073735C450DD0F0BCBB46B24669
:10294000A946A046F8BD94702B78002B00D0537098
:102950005B462B7074734A464346387D00F034FC66
:10296000051E11D10E9B002BE7D01D70E5E7650019
:1029700031682D19033D4919B2E76B705B4614703D
:1029800073735C45D9D1E6E75346002BEAD12100A9
:10299000386800F04FFEE5E7FFFFFF0F664B82004F
:1029A000F0B5D4580023DE4657464E4645469B4672
:1029B000E0B58DB0099000F073FB626806000F006F
:1029C000EFF3108872B61368002BFCD0BFF35F8F53
:1029D00023689C465B7B9946002B0DD16368BFF34F
:1029E0005F8F4A461A6088F310880DB0F0BCBB4672
:1029F000B246A946A046F0BD504BA5684B441B010A
:102A0000ED182868696802000B00921BBB41002B7F
:102A10000EDD02000B00099800F0D6FB6368BFF3DF
:102A20005F8F5A461A6088F310880028C3D1DCE70C
:102A3000002B01D1002AECD10021604600F066FD98
:102A4000AB680200286869689A46EB680A900B91A7
:102A500008934B465D1EE368585D636800020243BD
:102A60002261BFF35F8F5A461A6088F3108853467D
:102A7000002BBAD04B4608991843D047626806909D
:102A80000791EFF3108872B61368002BFCD0BFF3E8
:102A90005F8F079B002B27DB069A079B11001943CA
:102AA00002D02369002B3BD12368D97B002906D0B3
:102AB0001A684800411852184946033A51709A7BE7
:102AC000002A01D14A469A734A46DA73E268535D96
:102AD000013353555B4623616368BFF35F8F5A46EA
:102AE0001A6088F3108866E72369002BDCD00A9A05
:102AF0000B9B06980799121A8B41002B02DA0122D0
:102B00000F4B524200210491013103914946029139
:102B100008992000019151460091FFF7BFFED9E7C7
:102B200000F0BEFA069A079B12184B41002BE9DA17
:102B30000122034B5242E5E7500F0020FFFFFF0F39
:102B4000FFFFFF7F10B5144C6368002B04D00A21EF
:102B50001248FFF74DFE10BD2300114A10212068D6
:102B600000F0E0FB032000F08FFA032000F094FB5C
:102B700003200C4900F0E2FAFFF7A0FC0A4B9C4648
:102B800003232375D0231B061B6860446375074B22
:102B900080006060DC60DAE7E8010020A41000201B
:102BA000392800109D29001040000034500F0020EB
:102BB000F0B54E465746DE464546E0B587B0019330
:102BC00012AB1B780600059300239A4699460092A3
:102BD0007268EFF3108B72B61368002BFCD0BFF352
:102BE0005F8F3568AC7B002C00D170E067002B68EC
:102BF0003F19033FDB195A78AA73002A00D1EA7300
:102C0000464AA118B268090152180098019910604B
:102C10005160109991601199D1604A469A705A702A
:102C20001A706B7B9846002B61D022006B6841467E
:102C3000A868984743465B002A684344033BD7197A
:102C4000D21800284CD04346BB701378002B00D01C
:102C50007B70434614706B73444549D0F3681B196D
:102C6000013B18787368BFF35F8F4A461A608BF395
:102C700010885346002B08D10002204307B0F0BC57
:102C8000BB46B246A946A046F0BD059B002B43D0EB
:102C9000109B00201199984703000B433CD00290F1
:102CA0000391002931DA009B019C0299039A5B1A77
:102CB00094418022009301941206944204D301238C
:102CC000174C5B4200930194059B9A4680E773681A
:102CD000BFF35F8F1C608BF3108801204042CDE76B
:102CE00094703B78002B00D0537043463B706C735C
:102CF000307D009A019B00F067FA82460028ADD033
:102D00002100306800F096FCA8E700F0C9F9029BAA
:102D1000039C1B184C41CCE70020AFE7FFFFFF0FDF
:102D2000FFFFFF7FF0B5C64600B584B004000D007C
:102D300000F0B6F924184D41002D02DA01242B4D84
:102D4000644206267642F71736196F41AF4214D80F
:102D500011D000F0A5F932003B00121A8B41002B74
:102D600015DC002B3ED02000290000F0D7F904B07C
:102D700080BCB846F0BDA642EBD90026002700F083
:102D80008FF932003B00121A8B41002BE9DD002342
:102D900002930193164B3200009316483B00FFF755
:102DA00007FF0130DFD0002339009846124A13484C
:102DB000536A994204D8976ABE42D4D99942D2D173
:102DC0000768EFF3108C72B63B68002BFCD0BFF3A2
:102DD0005F8F0368BFF35F8F47461F608CF31088D7
:102DE00020BFE5E7002ABED0D1E7C046FFFFFF7F46
:102DF0006D280010E801002000400540A4100020CC
:102E0000F0B5C64600B584B0040000F049F9FA22D6
:102E100006000F00200000230021920003F09EFD19
:102E20008019794104000D1E02DA01242A4D644202
:102E300006267642F71736196F41AF4214D811D0E3
:102E400000F02EF932003B00121A8B41002B15DCEA
:102E5000002B3ED02000290000F060F904B080BCB7
:102E6000B846F0BDA642EBD90026002700F018F9BD
:102E700032003B00121A8B41002BE9DD0023029344
:102E80000193164B3200009315483B00FFF790FE6C
:102E90000130DFD0002339009846124A1248536AA5
:102EA000994204D8976ABE42D4D99942D2D10768D0
:102EB000EFF3108C72B63B68002BFCD0BFF35F8F32
:102EC0000368BFF35F8F47461F608CF3108820BFF5
:102ED000E5E7002ABED0D1E7FFFFFF7F6D28001095
:102EE000E801002000400540A4100020F0B5EFF3F9
:102EF0000583C64600B505000C0084B0002B0FD03A
:102F00002F4A0020536AA34206D3926A1B1B591E04
:102F10008B41AA424041184304B080BCB846F0BD82
:102F2000284E02930193284B0200009330000B00BF
:102F3000FFF73EFE00280CDC214A0020536AA34222
:102F4000EAD3926A1B1BAA4240415A1E934118437E
:102F5000E2E720BF7268EFF3108772B61368002BA8
:102F6000FCD0BFF35F8FC3B29846FF2233680240A4
:102F70009C465B7B43450DD0634651001B68891816
:102F80005B18033B9B78002B04D13269904209D136
:102F9000336107E0F168030A8A18013A1278DBB25C
:102FA0009A4207D07368BFF35F8F00221A6087F3DD
:102FB0001088A5E74146604600F03CFBF2E7C046BA
:102FC00000400540E80100206D280010F0B5EFF347
:102FD0000582D6464F4646461000C0B51038EFF37E
:102FE000108872B6214C2368002BFCD0BFF35F8F92
:102FF0000123190081401E4D1F006963AA461D4D23
:1030000029601D4D2E78AC463500C5402F402B421F
:1030100015D053465F6A194B8500EB589F4218D371
:103020006246174B8E43EB581670BFF35F8F00223A
:10303000226088F31088002B06D0984704E0BFF385
:103040005F8F276088F31088E0BCBA46B146A84677
:10305000F0BD0C4B92009C46624413681360BFF3B2
:103060005F8F0023236088F31088EDE7280100D0EC
:10307000004005403C700540D2100020B0100020F8
:10308000C00D0020D03F054010B5034B01001800D3
:10309000024AFFF7E3F910BDCA10002058AD001036
:1030A000034B596A0A00986A596A8A42FAD17047F2
:1030B0000040054070B504000D00174A536A19001E
:1030C000966A536A8B42FAD13000190024184D4198
:1030D000AB4216D813D0104B2A005B6A9D4203D92D
:1030E0000D494B6A9342FCD3934207D10A4A02E04E
:1030F000516A994202D1916AA142F9D370BDA642A8
:10310000E9D9054B5B6A1C005A1CEFD0012201244F
:103110006442E5175242E3E700400540064A536A1D
:103120009942FCD807D1044B02E05A6A914202D17D
:103130009A6A8242F9D370470040054070B5040096
:103140000D00EFF3108672B61A4A1368002BFCD0FC
:10315000BFF35F8F002D1BD02000FFF7CDF916497C
:1031600081420AD02000FFF7CFF901212000FFF7AC
:10317000B1F90123A340114A1360114BA400E5509B
:10318000BFF35F8F00220B4B1A6086F3108870BD6F
:103190000121A1400A4BA200D5500A4B20001A7809
:1031A0008A4305491A70FFF7D9F900212000FFF77B
:1031B00091F9E5E7280100D0CD2F001038600540D7
:1031C000C00D0020D2100020F0B54F46D64646462E
:1031D000C0B507002B4C616A0D00A66A616AA9425E
:1031E000FAD18B4208D805D00120E0BCBA46B146DE
:1031F000A846F0BDB242F7D9EFF3108A72B6224862
:1032000001680029FCD0BFF35F8F0125BD401F4935
:103210001C4C8846097889462943C9B28C464146E8
:1032200060460870391D890065630A511849B80065
:103230004350216A0020294219D0616A0800A66A19
:10324000616A8142FAD18B4219D801D1B24216D8B3
:10325000CC450BD00B4B1F221D625D6301233A400E
:1032600093400C4A136043464A461A700120BFF34C
:103270005F8F0022044B1A608AF31088B5E70020A4
:10328000F5E7C04600400540280100D0D2100020DC
:10329000B010002080E200E0EFF3108C72B60A4913
:1032A0000B68002BFCD0BFF35F8F01238340074ADC
:1032B0000748136202789A430270BFF35F8F0023BE
:1032C0000B608CF310887047280100D00040054047
:1032D000D210002070B506000D00140000291CD08B
:1032E000002A12D073688068984763006A003168CA
:1032F0001B195219033B033ACB188918002806D032
:103300009D700A78002A0AD10C70280070BD8C705C
:103310001A78002A00D04A701D702000F6E75A7013
:103320000C70F2E710B583600023CCB24373013315
:10333000426004738373C4730068421C012C05D976
:103340000133DBB2137003329C42F9D1FF230B40EF
:103350005A00D318C01800230338437010BDC0466C
:10336000F8B5CE46474605000C0080B5002907D0C9
:103370004E0003687618033E9A195778002F04D13F
:103380002000C0BCB946B046F8BD7900C919033960
:1033900088464344597889460021597051706B68BA
:1033A0003A0021008068984743462A68D31892194A
:1033B000002811D09C701178002900D05970177026
:1033C000270049462800FFF7CBFF390002002800FC
:1033D000FFF780FF0400D3E797701978002900D029
:1033E00051701C70EDE7C046F8B557464E4645464D
:1033F000DE464C00E0B5641817000268033C050087
:10340000105D13190E009C46002854D043009846C6
:103410001B18033BD31859788A46002920D1002F66
:1034200013D0EC7B002C51D063001B19D318033B45
:103430005E70AB7B002B3CD0EE73002807D04300BE
:103440009846434619180339531800229A700023EE
:1034500062465370F0BCBB46B246A946A046F8BDD2
:10346000490051440339521851788846002151705F
:1034700089465970524601002800FFF72BFF43464A
:103480008246002B07D05B0029684344033BCB18DE
:103490005A78002A1FD1424651462800FFF71AFFEA
:1034A000A4462A689444002FC7D0EC7B002CC0D0DF
:1034B000BAE7AE73C0E7002FC9D0EC7B002CB3D1C4
:1034C000AB7B002B20D1A973E973C0E7AB7B002B4A
:1034D000EFD0EE73B5E7500080180338091848782C
:1034E000834648464870587041462800FFF7F2FE70
:1034F000594680462800FFF733FF41460200280066
:10350000FFF7E8FE8046C6E7E973A0E7F8B557463F
:103510004E464546DE46E0B5467B02687500AD196D
:10352000033D0F00515D531904009C46002956D0FD
:103530004B0098465B18033BD31858788246002806
:1035400022D1002F13D0E57B002D53D06B005B19E7
:10355000D318033B5E70A37B002B3ED0E67300299B
:1035600007D04B00984643465818033813180022DA
:103570009A7000236246300053706173F0BCBB4602
:10358000B246A946A046F8BD400050440338121880
:103590005078804600205070814658705246200076
:1035A000FFF798FE43468246002B07D05B00216858
:1035B0004344033BCB185A78002A20D14246514657
:1035C0002000FFF787FEAC46226801009444002FDC
:1035D000C5D0E57B002DBED0B8E7A673BEE7002FAF
:1035E000C7D0C57B002DB1D1837B002B20D1867342
:1035F000C673BEE7A37B002BEFD0E673B3E75000A2
:10360000801803380918487883464846487058702F
:1036100041462000FFF75EFE594680462000FFF736
:103620009FFE414602002000FFF754FE8046C5E79A
:10363000C6739EE770B5040000292CD0437B8B42F3
:103640002ED0056848004018033828188278002AD0
:1036500021D053009B18033BEA5CEE188A4202D14A
:103660001BE0002A08D053009B18033BEB185A7844
:103670008A42F6D142785A70002301228370437047
:103680002000FFF7B1FE617B02002000FFF722FE61
:103690006073012000E0002070BD43783370EBE7D9
:1036A00001221900FFF7A0FEF2E7C046F8B5CE46AA
:1036B0004746040080B506200E0000F091FA051E72
:1036C00075D0534B80229C4200D192E0514BD203E3
:1036D0001A60514B51491A6010008B689843FBD116
:1036E0004F4B504AE31859424B4180215B0049003F
:1036F0000620995200F074FA3100C00002F0B2F8CE
:10370000C30926D0484A934200D876E000234749AF
:10371000474A6162A362256B9046EB0721D52200E0
:10372000C02330329B011343424A06201A60666A66
:10373000A36AB601F61800F053FA3F4902F092F876
:10374000B6020100300002F08DF80021FFF7B2FC54
:1037500007E04022012190466162A362256BEB07DE
:10376000DDD427008026E36A00232C3776013E4310
:1037700033600620256300F033FA4146800002F0F2
:1037800071F8236B05009846DB0715D46023E26AC5
:103790005A400E3313403360434623638023102284
:1037A0009B013B431A60234B23630323A36428003C
:1037B000C0BCB946B046F8BD2200C02330329B01E0
:1037C00013431C4A06201A60636AA26A9B01994649
:1037D000914400F005FA4B4617499B02994602F0C6
:1037E00041F80100484602F03DF80021FFF762FC75
:1037F000CCE7084B12041A606BE77F2299018846D8
:10380000024001325208190090441300A4E7C04658
:103810000080034000E0004000F0004000C0004095
:103820000080FCBFC0100020FEFF0000FFFF000072
:10383000C0FF3F00010300004E0E00000539013AB1
:10384000F8B5D2004C0105001443002B06D0013B13
:103850005A4253419B00234302241C432E6BF3071F
:103860000BD46E22EB6A290063401A4080232C316E
:103870005B010B431A602E63F8BD2A00C02330326F
:103880009B0113430A4A06201A606F6AAB6ABF01A4
:10389000FF1800F0A5F9074901F0E4FFBF0201009D
:1038A000380001F0DFFF0021FFF704FCD9E7C04634
:1038B000010300004E0E0000F8B5066B04000D0178
:1038C000F3070BD4E36A22005D4010231D408023E0
:1038D0002C325B0113431D602663F8BD0200C02338
:1038E00030329B0113430A4A1A60476A836ABF0158
:1038F0000620FF1800F074F9064901F0B3FFBF027B
:103900000100380001F0AEFF0021FFF7D3FBD9E73B
:10391000010300004E0E000010B50C2082B000F034
:10392000B7F9FEF793FD002810D08B4B8B488B49DD
:103930008B4A186059609860D96018615961986124
:10394000D961186259625A6202B010BD854CA067F5
:1039500000F0A6F90122844B1A60636C012BFCD1A4
:103960000322824B1A607F4A936B012BFCD10133F7
:1039700001217F4A7F480093043300F037F9052383
:103980007D4A009301217D4800F030F97C4B5A6854
:10399000FF2A02D8802252005A608022734B6E4C5C
:1039A00012011A602169002907D0606901F05AFFED
:1039B000013043001B18033BFDD2E023704A7148DD
:1039C00011680B40036002231168594001330B401A
:1039D0000421036093681942FCD080216A4B0901DD
:1039E00019608021694B490051602361684B5A6816
:1039F000FF2A00D85960032201215B4B1A60644AF8
:103A000093681942FCD0E0231068034061480360CA
:103A1000126803234A40022113405D4A0360936801
:103A20001942FCD080215C4B0901196080215B4B5D
:103A30004900516063615A4B5A68FF2A00D85960A7
:103A40008022584B12011A60E169002907D0606991
:103A500001F008FF013043001B18033BFDD2E023B7
:103A60004F4A11680B4050490B6080214F4B0901B0
:103A700019608021394B49005160E3614C4B5A6811
:103A8000FF2A00D8596080224A4B12011A60216A2D
:103A9000002907D0606901F0E5FE013043001B18E2
:103AA000033BFDD2E023424A11680B4042490B60C0
:103AB0008021424B0901196080235B005360802202
:103AC000264BD20223623E4B5968914200D25A6083
:103AD00080223C4B12011A60616A002907D060699C
:103AE00001F0C0FE013043001B18033BFDD2E02370
:103AF000334A11680B4034490B608021334B090174
:103B000019608023DB025360154B6362304B5A68A7
:103B1000FF2A02D8802252005A6080222D4B1201C7
:103B20001A60A169002907D0606901F09BFE01308D
:103B300043001B18033BFDD2E023254A11680B40CC
:103B400025490B608021254B0901196080235B000A
:103B50005360124BA361F7E628090020006CDC02D9
:103B60001BB70000008000403CB0004030B0004077
:103B7000002F685900800240008C864700C0024038
:103B8000308000403090004030A00040001BB70063
:103B90003C8000403C9000403CA0004040597307EE
:103BA0005480004054B000405490004054A0004065
:103BB0006080004060B000406090004060A0004025
:103BC0006C8000406CB000406C9000406CA00040E5
:103BD0004880004048B000404890004048A0004065
:103BE000014B8000C058704728090020F8B5040038
:103BF00022481E0017000D0001F034FE01003800BD
:103C000001F030FE069B36041B031E432368002B85
:103C100022DB1B4B1B49E3185A1E93418022920161
:103C200094465B421B0B184A1B0363441360174AFC
:103C300013601F008A689743FBD1C022231D9201A5
:103C40001A4321232560A06013602368002BFCDA4F
:103C50000823E6601360F8BD3F2322681340AB429F
:103C6000D7D1A3681B051B0D8342D2D1EE22E36896
:103C7000D2021340B342CCD1EDE7C046001BB700DF
:103C80000040FDBF00C0004000E0004000F00040E8
:103C90008023024A9B000343D362704700800540A3
:103CA000AA23064A1B0113602F230549D360054B45
:103CB00019605368002BFCDA7047C0460040024090
:103CC00000B0FA00006002402C4B2D4A70B51A601B
:103CD0002C4A2D4B2D491A6014008B689C43FBD154
:103CE0002B4D2C4EB54208D2013E761BB60808CDAE
:103CF000984723000134B342F9D1FFF70DFE264A5D
:103D0000214B1A60214A9368DB43DB01DD09002B5C
:103D1000F9D14022214B224C224E9A675A671A67EA
:103D2000DA66B44208D223682000002B20D0083481
:103D3000FEF774FDB442F6D31B4C1C4EC022B16892
:103D4000200003F0A5F9B460FEF7AAFBFEF73EFDE4
:103D5000FEF7F8FE164C174EB44208D2013E361B51
:103D6000B60808CC98472B0001359E42F9D170BDAA
:103D70000834FEF745FDB442D5D3DDE700E000404E
:103D8000BFCDFBFEFE7F3C0000F0004000C00040C5
:103D90000009002010090020FFFFFF0100F0014092
:103DA000F8080020000900200000002000ED00E0DD
:103DB000100900201409002000BEFDE7094A030095
:103DC0001068002805D00849C3188B4207D8136033
:103DD000704706480449C31810608B42F7D9012088
:103DE0004042F5E7EC0E002000000420D410002033
:103DF00010B5FFF7E1FFC04630B50D0083B01900E4
:103E0000002A0BD0074B084C0192009302002B00B4
:103E1000200001F08DFC0120FFF7CEFF034B1A00BC
:103E2000F1E7C0467CAD00108CAD0010A0A90010D9
:103E30000FB400B5084883B003F004FA049B002BCC
:103E400007D005A91800019101F092FC034803F086
:103E5000F9F90120FFF7B0FFBCAD001088AA0010EF
:103E600010B50148FFF7E4FFCCAD00107047C04625
:103E7000F8B55746DE464E464546E0B599460A9B9C
:103E800007009A460D9B884693460B9C9B073BD1A7
:103E90000C9B9C423DD21E1B0B9415000C005E44F3
:103EA0002A004B46013521002020B847B542F7D102
:103EB000A0460B9C002C20D0454636195346321B99
:103EC000013C185D29004B46B847002CF6D12B0069
:103ED000350098460D9B9B070FD55B46EC1A0C9B53
:103EE000A3420AD9464698462A004B463100202074
:103EF0000134B84701354445F6D32800F0BCBB4631
:103F0000B246A946A046F8BD16001500002CD3D134
:103F1000E0E716001500002CCED1EEE7F0B54546DF
:103F2000DE4657464E46E0B585B09C4610AB1B7842
:103F3000149F934698460F9C129E139DBB074CD42A
:103F4000002D42D1B44248D201233B4099460E9BFA
:103F5000013B9A46302304E0524601341355A642F1
:103F600001D9202CF8D14B46002B00D183E00E9BC9
:103F7000013B99463023A54205D82EE04A4601343C
:103F80001355AC4229D0202CF8D1FB060CD57B056B
:103F900054D4A64263D0A54261D0119B102B50D0BF
:103FA000022B57D0202C32D1202301930E9B5A464E
:103FB0000093039763460295FFF75AFF05B0F0BCE4
:103FC000BB46B246A946A046F0BD01233B409946F8
:103FD00001233B422AD1B442B9D3FB061CD57B0551
:103FE000DBD4002CD5D1119B102B5BD0119B022B65
:103FF0006BD0302301240E9A13704346002B10D14E
:104000007B073ED52B260E9A631C1655CDE7230061
:10401000013430260E9AD654202CC5D04346002BAE
:10402000EED02D260E9A631C1655BEE74346002B94
:104030002FD0013DB44200D289E798E7119B102BA5
:10404000B2D1BB0637D5202CAED058230E9A1355CB
:104050000134A7E7202CA7D02300013407E0631E1A
:10406000012CC0D0119A102A31D0022AD1D1622657
:104070000E9AD65496E7FB06CED57B0500D488E78A
:104080008BE723003E0790D520260E9A0133165564
:104090008BE70C233B405A1E9341ED1AB44200D2E9
:1040A00055E764E7BB060ED478230E9A02241370FA
:1040B00030235370A1E7202C00D175E778230E9AA6
:1040C000135501346EE75823EFE76033EDE70E9A9E
:1040D000A61E91464E44BA0602D55822327098E781
:1040E0007822327095E7C04610B5002800D110BD87
:1040F00003F05EF8FBE7C0460B0010B5002802D0C5
:1041000049681B68984710BDF0B55746DE464E46D5
:104110004546E0B595B083460F00924698461E9AF4
:104120001F9B10001900209E01F06DFE002800D09A
:10413000EAE11E981F990122C54B524201F048FE48
:10414000002800D014E11E981F990122C14B524251
:1041500001F054FE002800D0E9E01E981F990022CB
:10416000BD4B01F04BFE002800D0C8E01E981F99FF
:104170000022BA4B01F02CFE002800D0BFE01E98B0
:104180001F990022002301F023FE002800D0E4E064
:1041900000230B93229B5B0500D4062600243023CA
:1041A00007E0172106AA013452181355013E202CAE
:1041B00001D0092EF5D81E981F9901F04FFEA84B8B
:1041C000F2009B181A685B6805000892099301F0D9
:1041D0002DFE02000B001E981F9901F07EFD089A2B
:1041E000099B01F0AAFD0690079101F05BFE814654
:1041F00001F018FE02000B000698079901F06DFD12
:104200000022984B0690079101F0F8FD002800D19C
:104210000DE101239C46E144484601F003FE020003
:104220000B000898099901F0D9FD002802D000235D
:1042300099460135002E00D1D9E006954D46B94684
:1042400014E006AA944617230A2163442800013487
:104250001F1901F007FB3031397028000A21013E97
:1042600001F000FB092D00D817E10500202CE8D152
:104270004F46069D20240CAE06AA1723944663449D
:1042800099465B46B34606930FE04B4628000A2149
:104290000134E61801F0BEFA3031280031700A21ED
:1042A00001F0B8FA051E00D1E4E0202CEDD1069B08
:1042B0005E469B460323229A1340012B18D1219B73
:1042C000002B15D00B9B002B00D1FDE0219B013B67
:1042D0002193202B0CD93023219A07E0172006A91F
:1042E000013409180B55944200D3CCE0202CF5D1B1
:1042F000229B01940393219B0096029322E0229B30
:1043000052460493219B3900039358461E9B1F9CE1
:10431000029600930194434600F04AF904002000FD
:1043200015B0F0BCBB46B246A946A046F0BD229BE4
:104330005B070FD403224C4B2299019203912199E0
:10434000009302914346524639005846FFF790FDCC
:104350000400E4E70422454BEEE71E9A1F9B002071
:10436000002101F0BAFC01231E901F910B9311E76D
:10437000229B54469B0711D1219B042B0ED9219BD4
:1043800055469C465E46043C64442A00434601353B
:1043900039002020B047A542F7D1B346344D26005E
:1043A0002B1F99465B46A3461C003200E878434623
:1043B0003900013DA04701364D45F6D123005C464A
:1043C0009B46229B04349B07A9D55346219AE31AA6
:1043D0009A42A4D95E4615002200434639002020A7
:1043E000B04753460134E31A9D42F5D897E72800B9
:1043F00001F01CFD02000B001E981F9901F06DFCDE
:104400000022184B0690079101F0E2FC0CAE002848
:1044100000D031E7069807990022124B01F0EEFC1C
:10442000002800D028E7012301359D4324E700221E
:10443000069807990B4B01F0CBFC002800D0F9E659
:104440004B46002B5CD101239C46E144F2E6C0467A
:10445000FFFFEFFFFFFFEF7F65CDCD4165CDCDC104
:1044600030B200100000E03FE0AD0010D8AD001009
:10447000E8AD0010069B5E469B460323229A13403C
:10448000012B00D181E0202C00D131E70B9B002BC8
:1044900027D02D23335501342AE74F46069D202C83
:1044A00000D1E7E63022331907E0172006A90134CE
:1044B00009180A55202C00D1DCE6A342F5D12E22A2
:1044C0000CAE0134F254D7E60C23229A134257D093
:1044D000219B013B2193A34200D9FCE6202C00D173
:1044E00006E7229B5B0703D52B2333550134FFE6F8
:1044F000229B1B0700D4FBE6202333550134F7E64B
:10450000DB0700D496E69EE7229B55469B0711D118
:10451000219B032B0ED9219B54469C465E46033DAE
:10452000654422004346013439002020B047AC42A4
:10453000F7D1B346B9465F461C4EEC1C2A00B07852
:10454000434649460135B847013EAC42F6D1229B6D
:10455000BB464F469B0700D4E1E65346219AE31A37
:104560009A4200D8DBE65E46150022004346390039
:104570002020B04753460134E31AAB42F5D3CEE6D0
:10458000219BA34200D9A6E6B2E6219B002B00D1D5
:1045900079E70B9B002B97D0219B013B21939C42F9
:1045A00000D298E6202C00D073E7A1E6E4AD00101D
:1045B000F0B5DE4657464E464546E0B599B08146D1
:1045C0008B4692469846229A239B1000190001F0D0
:1045D0001AFC002800D0CAE0229823990122824BBD
:1045E000524201F00BFC002800D0C0E02298239931
:1045F00001227E4B524201F0EBFB002800D0B6E0D6
:10460000229823990022002301F0E2FB002800D029
:10461000C9E1229B239C0893099408980999802357
:10462000269ADB001A400D928022269C120114402B
:1046300022000B94269C07000E001C4200D0ADE027
:104640000B00034300D0D5E0002A00D00AE222008C
:1046500006332493022313400C930223134200D009
:1046600002E2259B042B00D20FE2043B0B930023B4
:1046700004250A93002222982399002301F0A8FB25
:10468000002800D003E25A4B269A134004930B9B58
:104690000393249B0293089B099C00930194594621
:1046A000434652464846FFF72FFD02002020269B36
:1046B0001F27034059424B415B421840531C08934B
:1046C000594643464530C8470A9AD317D4185C4028
:1046D000D30F0A936B1E0B9308AB9C4600256744CF
:1046E00001E0202D0FD020000A2101F0BBF8013598
:1046F0007E193031317020000A2101F0B3F8260014
:104700000400092EEDD8052306930B9B594605930B
:10471000002304930A3303930A9B4846029310AB89
:104720000093089A43460195FFF7F8FB0C9B002B7A
:104730002DD05346C41A259BA34228D94D465F4627
:1047400081461E00534639001A1920204346013481
:10475000A847A642F6D8534648462599C21A0132C0
:104760000023914200D386E1013018180FE0269B08
:104770000493259B0393249B0293229B239C0093E9
:1047800001944346524659464846FFF7BDFC19B0CE
:10479000F0BCBB46B246A946A046F0BD01432BD1B2
:1047A0000B9B2200002B00D154E700230A93249B8B
:1047B0000A9A0024934200DD85E122982399002281
:1047C000002301F005FB002800D035E1269B084AB4
:1047D00002941A408023DB0013430493259B039328
:1047E000089B099CCBE7C046FFFFEF7FFFFFEFFF71
:1047F000FFF7FFFF06232493B44B70009C46400D47
:10480000604401F013FBB24AB24B01F096FAB24A8F
:10481000B24B01F06BFA3603B14B360B3343040055
:104820000D00380019000022AE4B01F056FAAE4AD6
:10483000AE4B01F082FA02000B002000290001F0CB
:1048400055FA01F00BFB0A9001F0F0FAA84AA94BC7
:1048500004000D0001F071FA0022A74B01F046FAA6
:1048600001F0FCFAA54A0600A54B2000290001F042
:1048700064FA040030000D000C9601F0D7FAA14A4A
:10488000A14B01F05AFA02000B002000290001F0B0
:1048900024FA02000B0006000F0001F04EFA32006D
:1048A00004000D003B003000390001F01FFA002227
:1048B0000E900F91954B2000290001F020FA002264
:1048C000934B01F013FA02000B002000290001F0C5
:1048D00016FA00228F4B01F009FA02000B002000AB
:1048E000290001F00CFA0D008021040032003B0089
:1048F0000020C90501F0F1F902000B002000290099
:1049000001F0F4F902000B000E980F9901F0F7F98D
:104910000022734B01F0EAF97F4B0C9C9C466444E7
:104920000022230501F009FA06000F0002000B0027
:104930000898099901F04CFA00280AD00A9B300027
:10494000013B39000A930022714B01F0D8F90600AF
:104950000F000A9A330063323900C62A12D80222A5
:104960002698042510400B9A0C90002A25D1259BEF
:10497000042B05D9002800D0A1E0259B043B0B9314
:10498000042541E00222269810400B9A0C90002A40
:1049900012D1259B052B76D9002872D1259B0525A0
:1049A000053B0B9334E0802212069446229B089329
:1049B000239B6344099330E605250B4300D1F6E6BB
:1049C00008980999554A564B01F010FA002808D06A
:1049D000089809990022534B01F0FAF9002800D0F9
:1049E000E5E6249B002B1CD00D9B002B19D0249BAB
:1049F000013B2493259BAB4204D90C9B002B5AD03E
:104A000002230C9300230B930A9B002B00D131E669
:104A10000898099932003B0001F071F9089009915A
:104A200028E6259BAB42EDD90C9B002B43D00023FD
:104A30000B9302330C93E7E78020269B3A4A00064B
:104A40001A40802384460294089C099D2900DB00BB
:104A500013430493259B6144220003930B000092AF
:104A600001938EE60524A8E600230B930A930233F4
:104A700004250C93FEE553468C46013B63441B1A08
:104A800072E602230C930525C2E70423EDE580209E
:104A9000089E099F000639008446269A224B6144ED
:104AA000134004930B9B32000393249B02930B004F
:104AB00000920193F3E5259B5B1B0B93A4E7022374
:104AC00004250C93A0E79C1A013C76E601FCFFFF4D
:104AD000FB799F501344D33FB3C8608B288AC63FED
:104AE0000000F03F0000F83F61436F63A787D23FAB
:104AF00071A379094F930A400000E03F1655B5BBFA
:104B0000B16B0240EF39FAFE422EE63F00002C4026
:104B10000000244000001840FF0300002D431CEB60
:104B2000E2361A3F80842E41FFF7FFFFF0B5DE46E4
:104B300057464E464546E0B5A5B01E002E9B924610
:104B40000C93CD4ACD4B80468B461A60002900D18C
:104B5000EAE1002330789946002800D1ECE1C84B07
:104B60004C460B93C74B454657460E930AE0631CD1
:104B7000984622003B005946A84744463078002812
:104B800000D187E001362528F1D108239A46043B5D
:104B90009946023B9846013B00229C460D94307892
:104BA000711C0300203BDBB2102B03D80B9C9B0035
:104BB000E3589F460300303B89460D9C092B3AD9A8
:104BC000002398462A2800D1C1E000239A462E28C7
:104BD0004BD00300683BDBB2122B1ED80E999B0012
:104BE000CB589F4663460E001A43D8E743460E0053
:104BF0001A43D4E74B460E001A43D0E710230E00A9
:104C00001A43CCE753460E001A43C8E780235B00E3
:104C10001A43FF3B9C467078E1444E4667284FD8C4
:104C20002428A4D90300253BDBB2422B9FD8964908
:104C30009B00CB589F46002394461E0000E00131A4
:104C4000B3009B195B001E180878303E0300303B10
:104C5000092BF4D90123624689469C460023B046BD
:104C60009A460E00E1442E28B3D1302180204942DB
:104C70008C46C000024370784B4684446146092943
:104C800000D86CE12A2800D17AE101239C464E46E7
:104C9000E1449EE7A146A846BA46CA4503D8012387
:104CA0005B425344994653464A4659460020C04702
:104CB000200025B0F0BCBB46B246A946A046F0BDD8
:104CC0000300693BDBB20D930F2B00D94FE70121A5
:104CD00099408C466D49894661464B4619400F9173
:104CE000634649460B4200D028E10D9B0A2B3AD07F
:104CF000072B00D03BE70C9B190008C98846002B06
:104D000000D14BE121200243914614A98C461F2279
:104D10000F2162448C4651460D950C91A246150018
:104D20000F9902E020290CD0130064461C4020009B
:104D30003730092C00D80738013168541A090F2B75
:104D4000F0D80C9B54460D9D9A460F9133E10C9B75
:104D500002CB8846002947DB0C9301239C467078E0
:104D60004E46E14431E70C9B02CB14935346002B93
:104D700000D138E19C4608780B000C908C44002848
:104D800001D100F098FC89466146944603E05A78C8
:104D90000133002A01D08B42F9D1494662465B1AA1
:104DA0000C900F93530500D520E10223180010400A
:104DB0000D90134200D1CBE30D930B1BB1469A46E5
:104DC0005E460C9822003B003100A8475346013450
:104DD000185D0028F6D1B3464E460D9B002B00D03F
:104DE000C7E1149B0C93C9E60C9301239C46283819
:104DF00049420243884670784E46E144E5E67078C1
:104E00006C2800D17FE180235B001A43FF3B9C4666
:104E1000E14402E780239B001A4301239C467078FB
:104E2000E144FAE67078682800D173E180231A43E0
:104E30007F3B9C46E144F0E6672800D103E1472828
:104E400000D15AE1452800D15AE104920721424697
:104E50000C9B0392073352468B43190002920CC9F4
:104E60002800009201930C9122003B005946FFF765
:104E70009FFB040082E6C0462D4B0010340F00203B
:104E800094B00010D8B0001024B100104190000080
:104E9000462800D1DBE00492072142460C9B039296
:104EA000073352468B43190002920CC92800009226
:104EB00001930C9122003B005946FFF725F90400AD
:104EC0005CE6631C984622003B0059462520A84713
:104ED000444653E60C9B04330D93631C994692079A
:104EE00000D422E10C9B2200187859463B00A847C9
:104EF00043464444012B00D885E23300B8462E00D7
:104F00005F4625004C46994622004346013439004D
:104F10002020B047AC42F7D12C00BB4635004746B5
:104F20004E460D9B0C9329E6DB4B307898460023C8
:104F30009946002800D012E60024AEE66F2800D182
:104F400088E000D80BE31023782800D1CFE09A4303
:104F50000A239C4600230F930A330D9380E05646A4
:104F6000B1008919490001330E181878303E01004C
:104F700030390929F4D9B2461E000133994628E692
:104F80000C9B023602CB8A46C9435046C9170840DB
:104F900082460C933078731C99461AE61023100051
:104FA000984311331843814680201300C00003400A
:104FB000024200D1A9E64B460693082305935346C7
:104FC000049310230393002302930F9B2200019369
:104FD0001CAB009359463B002800FEF79FFF434659
:104FE00004000C93CAE501235B42C3E60F9B5345C3
:104FF00001D953460F930223180010400D9013421D
:1050000000D1B7E10D93D1460B1B9A463300A14462
:105010002E0022004D460C98B9465F469B4608E09C
:105020004B463900541CB0475346185D002877D0D2
:1050300022009542F4D15B46BB464F46A946350057
:105040004C461E00C9E680231B011A43FDE62023BF
:105050001A4320E708239C4600230F9308330D933F
:1050600080231100DB0019401A4200D116E10D2304
:105070009A431000802302009B001A4014921842A9
:1050800000D0C2E1802302005B001A4091460C9AD6
:1050900004320F92184200D0B7E2430600D59FE1D8
:1050A000030600D419E30C9B1B880993002B00D046
:1050B000FCE110339843002900D1F7E10023994621
:1050C00043460593534604930D9B06900393002398
:1050D000D2E0582808D0622867D102239C460023DA
:1050E0000F9302330D93BBE720231A43103B9C46DA
:1050F00000230F9310330D93B2E780231B011A4353
:1051000020231A43A1E6C0239B001A43F31C9946AF
:10511000B07882E5C0231A43F31C9946B0787CE549
:1051200035005E46BB464F4657E64346012B00D846
:1051300063E1631E43449A463300B9462E005F463E
:1051400055469B46A24622004B460134390020209A
:10515000B047AC42F7D135005E46BB464F46A1464C
:1051600054460C9B4A46187859463B004444A8478D
:10517000D7E6A1460F9B984500D832E64444E41A8E
:105180003300B8462E005F4625004C469946220063
:105190004346013439002020B047AC42F7D12C00FF
:1051A000BB46350047464E461BE680231000DB0019
:1051B00018401A4200D10FE1112118008A430D92C4
:1051C0000D9A802311009B0019408C461A4269D128
:1051D000802311005B00194089460C9904310F911E
:1051E0001A4200D0CAE113005B0600D5F0E01300BC
:1051F0001B0600D459E20C9B00229B5ED9175A185B
:105200004A4092B2D90F0C91002B00D1F9E1100065
:1052100014AA944642461F23149252466344A84659
:1052200016944D460400B946B2461F00159201E09F
:10523000202D0FD020000A2100F014FB01357E192B
:105240003031317020000A2100F00CFB26000400F0
:10525000092EEDD8149B4F46A94645469846159B06
:1052600056469A46169C0D9B069343460593534615
:1052700004930A2303930C9B02934B4601931CABAC
:105280002200009359463B002800FEF747FE0F9B83
:1052900004000C9372E4C0466D3E00100C239A4348
:1052A0001000E7E607220C9B073393430132944634
:1052B0009C4462460C920CCBD90F0F9111001943FC
:1052C00000D191E0D9171391129151401091139987
:1052D0005940119110981199129A139B801A994173
:1052E0001090119114AA00239446424699461492B4
:1052F00052461F336344A846B24616944E46109C4D
:10530000119DB94615921F0001E0202E10D02000FB
:1053100029000A22002300F0E3FA013630322B0084
:10532000BA550D0022000400002BEED1092AECD85A
:10533000149B1094119545469846159B4F46B146CF
:1053400056469A46169C0D9B069343460593534634
:1053500004930A2303930F9B02934B4601931CABC8
:105360002200009359463B002800FEF7D7FD0400B9
:10537000FFF704FC0F9B984500D8C1E18023DB00B8
:105380000D9343460F9A1B199B1A994633002E0022
:105390004D46B9465F469B460C9122004B46013470
:1053A00039002020B047AC42F7D143460C99013375
:1053B0000F930B7835000C935E46BB464F46002B8F
:1053C00000D10EE50D9B002B00D1F6E4002319E679
:1053D0000C9B1B781A0015E710239A430D92EFE6F9
:1053E0000C9B1B78099361E6002399460028AAD1FB
:1053F000002200231092119374E70C9B220018786E
:1054000059463B00A8474C468BE50C9AFA3BFF3BBC
:1054100007329A430133994691444B460C931368E3
:10542000526815921A4306D1103290430022099215
:10543000002900D081E06122810600D54122D2B24C
:105440000A9214AA91460A9A00210A3A14924246F4
:105450001792524618925A460991B3461F311E00C0
:105460000F9B4944BA4619941A95002467469846FA
:105470008946159D16901B920AE03032D2B24B46F7
:1054800001341A55A8454AD0202C4AD006000D00F8
:105490003A0000233000290000F022FAD2B2092A93
:1054A000EBD9149B9C466244D2B2E8E761238206A2
:1054B00000D54123DBB20A3B0C93434614A91F22BB
:1054C0008C46159353466244A046B2464C46179705
:1054D000A9461700099D0D9E1490169308E03033DD
:1054E000DBB201343B55B5420ED3202C0CD0050065
:1054F0003100280000F0B6F9CBB20929EFD90C9A97
:1055000094466344DBB2ECE7159B4D46A146444606
:105510009846169B564614989A46179FD0E5B74270
:10552000B2D9179B57469846189B5E469A461B9BD6
:1055300009949B461698199C1A9D43460593534619
:1055400004930D9B0690039300230293099B05E7A8
:105550000F9B984500D914E701330F932DE41023D6
:10556000110099430D91692800D0BAE08023100002
:10557000DB0018401A4200D122E61DE60C9B1B6896
:10558000DA0F1100002B00D18CE0DA179818504088
:1055900014AA914642461F23149252464B44A046F9
:1055A000A946169704006546B2461F000C91159255
:1055B00001E0202D0FD020000A2100F053F9013521
:1055C0007E193031317020000A2100F04BF926009D
:1055D0000400092EEDD8149B444698460C9BAC461B
:1055E0001900159B56464D469A46169F0D9B0291F3
:1055F000069343460593534604930A230393634655
:105600003CE6002800D02EE602E60C9B1B6899467B
:10561000002B03D110339843002938D1612382062F
:1056200000D54123DBB20A3B0C9343461693534605
:1056300014A91F228C4617932B006244A0464D46A6
:10564000B246189799461700149C0D9E159008E0D5
:105650003033DBB201343B55B5420ED3202C0CD095
:1056600005003100280000F0FDF8CBB20929EFD980
:105670000C9A94466344DBB2ECE7169B14944446C0
:105680009846179B56464D469A461598189F43468E
:105690000593534604930D9B0690039300230293B6
:1056A000149BEBE50028A1D172E70C9B1B68D9176E
:1056B0005A184A40A6E580231000DB0018409C469B
:1056C0000F901A420FD00220030013400F93104294
:1056D00019D00023A1460F934CE50C9B1B6809933E
:1056E000E4E40A0034E40223180010400D90134251
:1056F00000D03EE54346002B00D042E6FFF771FBA9
:1057000001330F937FE463460D93F3E710B50C006C
:1057100084B00394012402A902900093034813006B
:105720006242FFF703FA04B010BDC046F940001012
:105730000FB430B50C4985B008AA08CA0D680392A9
:10574000002D0CD000920122084C5242200002A9E8
:10575000A847012005B030BC08BC04B018471800A9
:1057600001F070FD0020F5E7340F0020E940001043
:1057700010B5094A0300146884B0002C08D0012237
:1057800000910648524203A9A047012004B010BD71
:1057900001F058FD0020F9E7340F0020E940001027
:1057A00001480421014B184710020020D157001076
:1057B000002310B50100988A1B8B984710BDC04686
:1057C000162310B50100188802331B88984710BDB6
:1057D000F8B54746CE4680B50F1E18D0142399461B
:1057E000043304000025012698464B46188843469A
:1057F00021681B88984701C4431E98410135064023
:10580000AF42F2D13000C0BCB946B046F8BD012667
:10581000F8E7C046124A936F9B0815D29066D1668E
:10582000002905D0FFE7FFE7FFE7516F106F7047D2
:1058300004B580210906C2175140002800D0C84392
:1058400005F076F8002104BDF0B5146E556E576F63
:10585000166FFFF7E3FF1466556657671667F0BDCE
:10586000000000D0114A936F9B0813D21066516656
:10587000002905D0FFE7FFE7FFE7516F106F704782
:1058800004B5002801D00020C04305F051F80021E4
:1058900004BDC046F0B5146E556E576F166FFFF716
:1058A000E5FF1466556657671667F0BD000000D027
:1058B00094464A4A926F9208624601D228E0C04656
:1058C000F0B5464E346E756E776F366F00F020F887
:1058D0009446424A14665566576716676246F0BD9D
:1058E00094463E4A926F9208624601D254E0C04606
:1058F000F0B53A4E346E756E776F366F00F04CF837
:105900009446364A14665566576716676246F0BD78
:10591000002B24DB11D000293EDA00B5C9434042F8
:1059200000D1013100F038F8C943404200D10131C3
:10593000DB43524200D1013300BD002AEBD10028E5
:1059400001D1002905D00020C90FC90701D1C043EA
:10595000410800B504F0E4FF0022002300BD00B5BB
:1059600000290ADBDB43524200D1013300F014F876
:10597000C943404200D1013100BDC943404200D17A
:105980000131DB43524200D1013300F005F8DB4323
:10599000524200D1013300BD002923D1002B18D180
:1059A000002A0CD0BC460D4F38667A6600210023D1
:1059B000FFE7FFE7FFE77A6F386F67467047002819
:1059C00001D00748010000B504F0AAFF002200231F
:1059D00000BD02000B00002000217047000000D035
:1059E000FFFFFFFF002B00D0BFE0130C28D1002ADF
:1059F000E7D080B4114F39667A66FFE7FFE730B42D
:105A0000040C7B6F396F1B0423433B667A66FFE708
:105A1000FFE7FFE7C04684B27B6F3D6F1B04234363
:105A20003B667A66FFE7FFE7C04600232C042D0C97
:105A30007A6F386F00196941B0BC7047000000D020
:105A4000F0B594460025140E01D112020835140F4A
:105A500001D112010435940F01D192000235D40F07
:105A600001D152000135D40B0134254F7C66254C01
:105A70003C660E0C93B2FFE7FFE7FFE73C6F66431F
:105A8000360C7703BE467343DF0B5B04C01AB94183
:105A9000130C7343DB18C91ACE086643360CB644A0
:105AA00093B273431F0F1B01C01AB941130C734308
:105AB0001F0B1B05C01AB941860D8F023E4366437A
:105AC000360C092D24DB520A7243801A7703460AEA
:105AD0006643360C16235B1BDE40DF40BF1964466D
